{
	"Tokenrenacecoin/tokenrenacecoin.sol": {
		"RENACECOIN": {
			"abi": [
				{
					"inputs": [
						{
							"internalType": "address",
							"name": "_authority",
							"type": "address"
						}
					],
					"stateMutability": "nonpayable",
					"type": "constructor"
				},
				{
					"anonymous": false,
					"inputs": [
						{
							"indexed": true,
							"internalType": "address",
							"name": "owner",
							"type": "address"
						},
						{
							"indexed": true,
							"internalType": "address",
							"name": "spender",
							"type": "address"
						},
						{
							"indexed": false,
							"internalType": "uint256",
							"name": "value",
							"type": "uint256"
						}
					],
					"name": "Approval",
					"type": "event"
				},
				{
					"anonymous": false,
					"inputs": [
						{
							"indexed": true,
							"internalType": "contract IOlympusAuthority",
							"name": "authority",
							"type": "address"
						}
					],
					"name": "AuthorityUpdated",
					"type": "event"
				},
				{
					"anonymous": false,
					"inputs": [
						{
							"indexed": true,
							"internalType": "address",
							"name": "from",
							"type": "address"
						},
						{
							"indexed": true,
							"internalType": "address",
							"name": "to",
							"type": "address"
						},
						{
							"indexed": false,
							"internalType": "uint256",
							"name": "value",
							"type": "uint256"
						}
					],
					"name": "Transfer",
					"type": "event"
				},
				{
					"inputs": [],
					"name": "DOMAIN_SEPARATOR",
					"outputs": [
						{
							"internalType": "bytes32",
							"name": "",
							"type": "bytes32"
						}
					],
					"stateMutability": "view",
					"type": "function"
				},
				{
					"inputs": [
						{
							"internalType": "address",
							"name": "owner",
							"type": "address"
						},
						{
							"internalType": "address",
							"name": "spender",
							"type": "address"
						}
					],
					"name": "allowance",
					"outputs": [
						{
							"internalType": "uint256",
							"name": "",
							"type": "uint256"
						}
					],
					"stateMutability": "view",
					"type": "function"
				},
				{
					"inputs": [
						{
							"internalType": "address",
							"name": "spender",
							"type": "address"
						},
						{
							"internalType": "uint256",
							"name": "amount",
							"type": "uint256"
						}
					],
					"name": "approve",
					"outputs": [
						{
							"internalType": "bool",
							"name": "",
							"type": "bool"
						}
					],
					"stateMutability": "nonpayable",
					"type": "function"
				},
				{
					"inputs": [],
					"name": "authority",
					"outputs": [
						{
							"internalType": "contract IOlympusAuthority",
							"name": "",
							"type": "address"
						}
					],
					"stateMutability": "view",
					"type": "function"
				},
				{
					"inputs": [
						{
							"internalType": "address",
							"name": "account",
							"type": "address"
						}
					],
					"name": "balanceOf",
					"outputs": [
						{
							"internalType": "uint256",
							"name": "",
							"type": "uint256"
						}
					],
					"stateMutability": "view",
					"type": "function"
				},
				{
					"inputs": [
						{
							"internalType": "uint256",
							"name": "amount",
							"type": "uint256"
						}
					],
					"name": "burn",
					"outputs": [],
					"stateMutability": "nonpayable",
					"type": "function"
				},
				{
					"inputs": [
						{
							"internalType": "address",
							"name": "account_",
							"type": "address"
						},
						{
							"internalType": "uint256",
							"name": "amount_",
							"type": "uint256"
						}
					],
					"name": "burnFrom",
					"outputs": [],
					"stateMutability": "nonpayable",
					"type": "function"
				},
				{
					"inputs": [],
					"name": "decimals",
					"outputs": [
						{
							"internalType": "uint8",
							"name": "",
							"type": "uint8"
						}
					],
					"stateMutability": "view",
					"type": "function"
				},
				{
					"inputs": [
						{
							"internalType": "address",
							"name": "spender",
							"type": "address"
						},
						{
							"internalType": "uint256",
							"name": "subtractedValue",
							"type": "uint256"
						}
					],
					"name": "decreaseAllowance",
					"outputs": [
						{
							"internalType": "bool",
							"name": "",
							"type": "bool"
						}
					],
					"stateMutability": "nonpayable",
					"type": "function"
				},
				{
					"inputs": [
						{
							"internalType": "address",
							"name": "spender",
							"type": "address"
						},
						{
							"internalType": "uint256",
							"name": "addedValue",
							"type": "uint256"
						}
					],
					"name": "increaseAllowance",
					"outputs": [
						{
							"internalType": "bool",
							"name": "",
							"type": "bool"
						}
					],
					"stateMutability": "nonpayable",
					"type": "function"
				},
				{
					"inputs": [
						{
							"internalType": "address",
							"name": "account_",
							"type": "address"
						},
						{
							"internalType": "uint256",
							"name": "amount_",
							"type": "uint256"
						}
					],
					"name": "mint",
					"outputs": [],
					"stateMutability": "nonpayable",
					"type": "function"
				},
				{
					"inputs": [],
					"name": "name",
					"outputs": [
						{
							"internalType": "string",
							"name": "",
							"type": "string"
						}
					],
					"stateMutability": "view",
					"type": "function"
				},
				{
					"inputs": [
						{
							"internalType": "address",
							"name": "owner",
							"type": "address"
						}
					],
					"name": "nonces",
					"outputs": [
						{
							"internalType": "uint256",
							"name": "",
							"type": "uint256"
						}
					],
					"stateMutability": "view",
					"type": "function"
				},
				{
					"inputs": [
						{
							"internalType": "address",
							"name": "owner",
							"type": "address"
						},
						{
							"internalType": "address",
							"name": "spender",
							"type": "address"
						},
						{
							"internalType": "uint256",
							"name": "value",
							"type": "uint256"
						},
						{
							"internalType": "uint256",
							"name": "deadline",
							"type": "uint256"
						},
						{
							"internalType": "uint8",
							"name": "v",
							"type": "uint8"
						},
						{
							"internalType": "bytes32",
							"name": "r",
							"type": "bytes32"
						},
						{
							"internalType": "bytes32",
							"name": "s",
							"type": "bytes32"
						}
					],
					"name": "permit",
					"outputs": [],
					"stateMutability": "nonpayable",
					"type": "function"
				},
				{
					"inputs": [
						{
							"internalType": "contract IOlympusAuthority",
							"name": "_newAuthority",
							"type": "address"
						}
					],
					"name": "setAuthority",
					"outputs": [],
					"stateMutability": "nonpayable",
					"type": "function"
				},
				{
					"inputs": [],
					"name": "symbol",
					"outputs": [
						{
							"internalType": "string",
							"name": "",
							"type": "string"
						}
					],
					"stateMutability": "view",
					"type": "function"
				},
				{
					"inputs": [],
					"name": "totalSupply",
					"outputs": [
						{
							"internalType": "uint256",
							"name": "",
							"type": "uint256"
						}
					],
					"stateMutability": "view",
					"type": "function"
				},
				{
					"inputs": [
						{
							"internalType": "address",
							"name": "recipient",
							"type": "address"
						},
						{
							"internalType": "uint256",
							"name": "amount",
							"type": "uint256"
						}
					],
					"name": "transfer",
					"outputs": [
						{
							"internalType": "bool",
							"name": "",
							"type": "bool"
						}
					],
					"stateMutability": "nonpayable",
					"type": "function"
				},
				{
					"inputs": [
						{
							"internalType": "address",
							"name": "sender",
							"type": "address"
						},
						{
							"internalType": "address",
							"name": "recipient",
							"type": "address"
						},
						{
							"internalType": "uint256",
							"name": "amount",
							"type": "uint256"
						}
					],
					"name": "transferFrom",
					"outputs": [
						{
							"internalType": "bool",
							"name": "",
							"type": "bool"
						}
					],
					"stateMutability": "nonpayable",
					"type": "function"
				}
			],
			"devdoc": {
				"kind": "dev",
				"methods": {
					"DOMAIN_SEPARATOR()": {
						"details": "See {IERC20Permit-DOMAIN_SEPARATOR}."
					},
					"allowance(address,address)": {
						"details": "Returns the remaining number of tokens that `spender` will be allowed to spend on behalf of `owner` through {transferFrom}. This is zero by default. This value changes when {approve} or {transferFrom} are called."
					},
					"approve(address,uint256)": {
						"details": "Sets `amount` as the allowance of `spender` over the caller's tokens. Returns a boolean value indicating whether the operation succeeded. IMPORTANT: Beware that changing an allowance with this method brings the risk that someone may use both the old and the new allowance by unfortunate transaction ordering. One possible solution to mitigate this race condition is to first reduce the spender's allowance to 0 and set the desired value afterwards: https://github.com/ethereum/EIPs/issues/20#issuecomment-263524729 Emits an {Approval} event."
					},
					"balanceOf(address)": {
						"details": "Returns the amount of tokens owned by `account`."
					},
					"nonces(address)": {
						"details": "See {IERC20Permit-nonces}."
					},
					"permit(address,address,uint256,uint256,uint8,bytes32,bytes32)": {
						"details": "See {IERC20Permit-permit}."
					},
					"totalSupply()": {
						"details": "Returns the amount of tokens in existence."
					},
					"transfer(address,uint256)": {
						"details": "Moves `amount` tokens from the caller's account to `recipient`. Returns a boolean value indicating whether the operation succeeded. Emits a {Transfer} event."
					},
					"transferFrom(address,address,uint256)": {
						"details": "Moves `amount` tokens from `sender` to `recipient` using the allowance mechanism. `amount` is then deducted from the caller's allowance. Returns a boolean value indicating whether the operation succeeded. Emits a {Transfer} event."
					}
				},
				"version": 1
			},
			"evm": {
				"assembly": "    /* \"Tokenrenacecoin/tokenrenacecoin.sol\":31390:32394  contract RENACECOIN is ERC20Permit, IOHM, OlympusAccessControlled {\r... */\n  mstore(0x40, 0x0160)\n    /* \"Tokenrenacecoin/tokenrenacecoin.sol\":29432:29527  keccak256(\"Permit(address owner,address spender,uint256 value,uint256 nonce,uint256 deadline)\") */\n  0x6e71edae12b1b97f4d1f60370fef10105fa2faae0126114a169c64845d6126c9\n    /* \"Tokenrenacecoin/tokenrenacecoin.sol\":29387:29527  bytes32 private immutable _PERMIT_TYPEHASH = keccak256(\"Permit(address owner,address spender,uint256 value,uint256 nonce,uint256 deadline)\") */\n  0x0140\n  swap1\n  dup2\n  mstore\n  pop\n    /* \"Tokenrenacecoin/tokenrenacecoin.sol\":1646:1682  string UNAUTHORIZED = \"UNAUTHORIZED\" */\n  mload(0x40)\n  dup1\n  0x40\n  add\n  0x40\n  mstore\n  dup1\n  0x0c\n  dup2\n  mstore\n  0x20\n  add\n  0x554e415554484f52495a45440000000000000000000000000000000000000000\n  dup2\n  mstore\n  pop\n  0x06\n  swap1\n  dup1\n  mload\n  swap1\n  0x20\n  add\n  swap1\n  tag_1\n  swap3\n  swap2\n  swap1\n  tag_2\n  jump\t// in\ntag_1:\n  pop\n    /* \"Tokenrenacecoin/tokenrenacecoin.sol\":31498:31730  constructor(address _authority)\r... */\n  callvalue\n  dup1\n  iszero\n  tag_3\n  jumpi\n  0x00\n  dup1\n  revert\ntag_3:\n  pop\n  mload(0x40)\n  sub(codesize, bytecodeSize)\n  dup1\n  bytecodeSize\n  dup4\n  codecopy\n  dup2\n  dup2\n  add\n  0x40\n  mstore\n  0x20\n  dup2\n  lt\n  iszero\n  tag_4\n  jumpi\n  0x00\n  dup1\n  revert\ntag_4:\n  dup2\n  add\n  swap1\n  dup1\n  dup1\n  mload\n  swap1\n  0x20\n  add\n  swap1\n  swap3\n  swap2\n  swap1\n  pop\n  pop\n  pop\n    /* \"Tokenrenacecoin/tokenrenacecoin.sol\":31644:31654  _authority */\n  dup1\n    /* \"Tokenrenacecoin/tokenrenacecoin.sol\":29766:29818  constructor(string memory name) EIP712(name, \"1\") {} */\n  mload(0x40)\n  dup1\n  0x40\n  add\n  0x40\n  mstore\n  dup1\n  0x0a\n  dup2\n  mstore\n  0x20\n  add\n  0x52454e414345434f494e00000000000000000000000000000000000000000000\n  dup2\n  mstore\n  pop\n    /* \"Tokenrenacecoin/tokenrenacecoin.sol\":29805:29809  name */\n  dup1\n    /* \"Tokenrenacecoin/tokenrenacecoin.sol\":14063:14727  constructor(string memory name, string memory version) {\r... */\n  mload(0x40)\n  dup1\n  0x40\n  add\n  0x40\n  mstore\n  dup1\n  0x01\n  dup2\n  mstore\n  0x20\n  add\n  0x3100000000000000000000000000000000000000000000000000000000000000\n  dup2\n  mstore\n  pop\n    /* \"Tokenrenacecoin/tokenrenacecoin.sol\":24711:24877  constructor (string memory name_, string memory symbol_, uint8 decimals_) {\r... */\n  mload(0x40)\n  dup1\n  0x40\n  add\n  0x40\n  mstore\n  dup1\n  0x0a\n  dup2\n  mstore\n  0x20\n  add\n  0x52454e414345434f494e00000000000000000000000000000000000000000000\n  dup2\n  mstore\n  pop\n  mload(0x40)\n  dup1\n  0x40\n  add\n  0x40\n  mstore\n  dup1\n  0x03\n  dup2\n  mstore\n  0x20\n  add\n  0x524e430000000000000000000000000000000000000000000000000000000000\n  dup2\n  mstore\n  pop\n    /* \"Tokenrenacecoin/tokenrenacecoin.sol\":31562:31564  18 */\n  0x12\n    /* \"Tokenrenacecoin/tokenrenacecoin.sol\":24804:24809  name_ */\n  dup3\n    /* \"Tokenrenacecoin/tokenrenacecoin.sol\":24796:24801  _name */\n  0x03\n    /* \"Tokenrenacecoin/tokenrenacecoin.sol\":24796:24809  _name = name_ */\n  swap1\n  dup1\n  mload\n  swap1\n  0x20\n  add\n  swap1\n  tag_11\n  swap3\n  swap2\n  swap1\n  tag_2\n  jump\t// in\ntag_11:\n  pop\n    /* \"Tokenrenacecoin/tokenrenacecoin.sol\":24830:24837  symbol_ */\n  dup2\n    /* \"Tokenrenacecoin/tokenrenacecoin.sol\":24820:24827  _symbol */\n  0x04\n    /* \"Tokenrenacecoin/tokenrenacecoin.sol\":24820:24837  _symbol = symbol_ */\n  swap1\n  dup1\n  mload\n  swap1\n  0x20\n  add\n  swap1\n  tag_12\n  swap3\n  swap2\n  swap1\n  tag_2\n  jump\t// in\ntag_12:\n  pop\n    /* \"Tokenrenacecoin/tokenrenacecoin.sol\":24860:24869  decimals_ */\n  dup1\n    /* \"Tokenrenacecoin/tokenrenacecoin.sol\":24848:24869  _decimals = decimals_ */\n  0xff\n  and\n  0x80\n  dup2\n  0xff\n  and\n  0xf8\n  shl\n  dup2\n  mstore\n  pop\n  pop\n    /* \"Tokenrenacecoin/tokenrenacecoin.sol\":24711:24877  constructor (string memory name_, string memory symbol_, uint8 decimals_) {\r... */\n  pop\n  pop\n  pop\n    /* \"Tokenrenacecoin/tokenrenacecoin.sol\":14131:14146  uint256 chainID */\n  0x00\n    /* \"Tokenrenacecoin/tokenrenacecoin.sol\":14192:14201  chainid() */\n  chainid\n    /* \"Tokenrenacecoin/tokenrenacecoin.sol\":14181:14201  chainID := chainid() */\n  swap1\n  pop\n    /* \"Tokenrenacecoin/tokenrenacecoin.sol\":14224:14242  bytes32 hashedName */\n  0x00\n    /* \"Tokenrenacecoin/tokenrenacecoin.sol\":14261:14265  name */\n  dup4\n    /* \"Tokenrenacecoin/tokenrenacecoin.sol\":14245:14267  keccak256(bytes(name)) */\n  dup1\n  mload\n  swap1\n  0x20\n  add\n  keccak256\n    /* \"Tokenrenacecoin/tokenrenacecoin.sol\":14224:14267  bytes32 hashedName = keccak256(bytes(name)) */\n  swap1\n  pop\n    /* \"Tokenrenacecoin/tokenrenacecoin.sol\":14278:14299  bytes32 hashedVersion */\n  0x00\n    /* \"Tokenrenacecoin/tokenrenacecoin.sol\":14318:14325  version */\n  dup4\n    /* \"Tokenrenacecoin/tokenrenacecoin.sol\":14302:14327  keccak256(bytes(version)) */\n  dup1\n  mload\n  swap1\n  0x20\n  add\n  keccak256\n    /* \"Tokenrenacecoin/tokenrenacecoin.sol\":14278:14327  bytes32 hashedVersion = keccak256(bytes(version)) */\n  swap1\n  pop\n    /* \"Tokenrenacecoin/tokenrenacecoin.sol\":14338:14354  bytes32 typeHash */\n  0x00\n    /* \"Tokenrenacecoin/tokenrenacecoin.sol\":14357:14476  keccak256(\r... */\n  0x8b73c3c69bb8fe3d512ecc4cf759cc79239f7b179b0ffacaa9a75d522b39400f\n    /* \"Tokenrenacecoin/tokenrenacecoin.sol\":14338:14476  bytes32 typeHash = keccak256(\r... */\n  swap1\n  pop\n    /* \"Tokenrenacecoin/tokenrenacecoin.sol\":14502:14512  hashedName */\n  dup3\n    /* \"Tokenrenacecoin/tokenrenacecoin.sol\":14487:14512  _HASHED_NAME = hashedName */\n  0xe0\n  dup2\n  dup2\n  mstore\n  pop\n  pop\n    /* \"Tokenrenacecoin/tokenrenacecoin.sol\":14541:14554  hashedVersion */\n  dup2\n    /* \"Tokenrenacecoin/tokenrenacecoin.sol\":14523:14554  _HASHED_VERSION = hashedVersion */\n  0x0100\n  dup2\n  dup2\n  mstore\n  pop\n  pop\n    /* \"Tokenrenacecoin/tokenrenacecoin.sol\":14584:14591  chainID */\n  dup4\n    /* \"Tokenrenacecoin/tokenrenacecoin.sol\":14565:14591  _CACHED_CHAIN_ID = chainID */\n  0xc0\n  dup2\n  dup2\n  mstore\n  pop\n  pop\n    /* \"Tokenrenacecoin/tokenrenacecoin.sol\":14629:14687  _buildDomainSeparator(typeHash, hashedName, hashedVersion) */\n  tag_14\n    /* \"Tokenrenacecoin/tokenrenacecoin.sol\":14651:14659  typeHash */\n  dup2\n    /* \"Tokenrenacecoin/tokenrenacecoin.sol\":14661:14671  hashedName */\n  dup5\n    /* \"Tokenrenacecoin/tokenrenacecoin.sol\":14673:14686  hashedVersion */\n  dup5\n    /* \"Tokenrenacecoin/tokenrenacecoin.sol\":14629:14650  _buildDomainSeparator */\n  shl(0x20, tag_15)\n    /* \"Tokenrenacecoin/tokenrenacecoin.sol\":14629:14687  _buildDomainSeparator(typeHash, hashedName, hashedVersion) */\n  0x20\n  shr\n  jump\t// in\ntag_14:\n    /* \"Tokenrenacecoin/tokenrenacecoin.sol\":14602:14687  _CACHED_DOMAIN_SEPARATOR = _buildDomainSeparator(typeHash, hashedName, hashedVersion) */\n  0xa0\n  dup2\n  dup2\n  mstore\n  pop\n  pop\n    /* \"Tokenrenacecoin/tokenrenacecoin.sol\":14711:14719  typeHash */\n  dup1\n    /* \"Tokenrenacecoin/tokenrenacecoin.sol\":14698:14719  _TYPE_HASH = typeHash */\n  0x0120\n  dup2\n  dup2\n  mstore\n  pop\n  pop\n    /* \"Tokenrenacecoin/tokenrenacecoin.sol\":14063:14727  constructor(string memory name, string memory version) {\r... */\n  pop\n  pop\n  pop\n  pop\n  pop\n  pop\n    /* \"Tokenrenacecoin/tokenrenacecoin.sol\":29766:29818  constructor(string memory name) EIP712(name, \"1\") {} */\n  pop\n    /* \"Tokenrenacecoin/tokenrenacecoin.sol\":1911:1921  _authority */\n  dup1\n    /* \"Tokenrenacecoin/tokenrenacecoin.sol\":1899:1908  authority */\n  0x07\n  0x00\n    /* \"Tokenrenacecoin/tokenrenacecoin.sol\":1899:1921  authority = _authority */\n  0x0100\n  exp\n  dup2\n  sload\n  dup2\n  0xffffffffffffffffffffffffffffffffffffffff\n  mul\n  not\n  and\n  swap1\n  dup4\n  0xffffffffffffffffffffffffffffffffffffffff\n  and\n  mul\n  or\n  swap1\n  sstore\n  pop\n    /* \"Tokenrenacecoin/tokenrenacecoin.sol\":1954:1964  _authority */\n  dup1\n    /* \"Tokenrenacecoin/tokenrenacecoin.sol\":1937:1965  AuthorityUpdated(_authority) */\n  0xffffffffffffffffffffffffffffffffffffffff\n  and\n  0x2f658b440c35314f52658ea8a740e05b284cdc84dc9ae01e891f21b8933e7cad\n  mload(0x40)\n  mload(0x40)\n  dup1\n  swap2\n  sub\n  swap1\n  log2\n    /* \"Tokenrenacecoin/tokenrenacecoin.sol\":1846:1973  constructor(IOlympusAuthority _authority) {\r... */\n  pop\n    /* \"Tokenrenacecoin/tokenrenacecoin.sol\":31670:31716  _mint(_authority, 200000000000000000000000000) */\n  tag_19\n    /* \"Tokenrenacecoin/tokenrenacecoin.sol\":31676:31686  _authority */\n  dup2\n    /* \"Tokenrenacecoin/tokenrenacecoin.sol\":31688:31715  200000000000000000000000000 */\n  0xa56fa5b99019a5c8000000\n    /* \"Tokenrenacecoin/tokenrenacecoin.sol\":31670:31675  _mint */\n  shl(0x20, tag_20)\n    /* \"Tokenrenacecoin/tokenrenacecoin.sol\":31670:31716  _mint(_authority, 200000000000000000000000000) */\n  0x20\n  shr\n  jump\t// in\ntag_19:\n    /* \"Tokenrenacecoin/tokenrenacecoin.sol\":31498:31730  constructor(address _authority)\r... */\n  pop\n    /* \"Tokenrenacecoin/tokenrenacecoin.sol\":31390:32394  contract RENACECOIN is ERC20Permit, IOHM, OlympusAccessControlled {\r... */\n  jump(tag_21)\n    /* \"Tokenrenacecoin/tokenrenacecoin.sol\":15196:15546  function _buildDomainSeparator(\r... */\ntag_15:\n    /* \"Tokenrenacecoin/tokenrenacecoin.sol\":15340:15347  bytes32 */\n  0x00\n    /* \"Tokenrenacecoin/tokenrenacecoin.sol\":15360:15375  uint256 chainID */\n  dup1\n    /* \"Tokenrenacecoin/tokenrenacecoin.sol\":15421:15430  chainid() */\n  chainid\n    /* \"Tokenrenacecoin/tokenrenacecoin.sol\":15410:15430  chainID := chainid() */\n  swap1\n  pop\n    /* \"Tokenrenacecoin/tokenrenacecoin.sol\":15481:15489  typeHash */\n  dup5\n    /* \"Tokenrenacecoin/tokenrenacecoin.sol\":15491:15499  nameHash */\n  dup5\n    /* \"Tokenrenacecoin/tokenrenacecoin.sol\":15501:15512  versionHash */\n  dup5\n    /* \"Tokenrenacecoin/tokenrenacecoin.sol\":15514:15521  chainID */\n  dup4\n    /* \"Tokenrenacecoin/tokenrenacecoin.sol\":15531:15535  this */\n  address\n    /* \"Tokenrenacecoin/tokenrenacecoin.sol\":15470:15537  abi.encode(typeHash, nameHash, versionHash, chainID, address(this)) */\n  add(0x20, mload(0x40))\n  dup1\n  dup7\n  dup2\n  mstore\n  0x20\n  add\n  dup6\n  dup2\n  mstore\n  0x20\n  add\n  dup5\n  dup2\n  mstore\n  0x20\n  add\n  dup4\n  dup2\n  mstore\n  0x20\n  add\n  dup3\n  0xffffffffffffffffffffffffffffffffffffffff\n  and\n  dup2\n  mstore\n  0x20\n  add\n  swap6\n  pop\n  pop\n  pop\n  pop\n  pop\n  pop\n  mload(0x40)\n  0x20\n  dup2\n  dup4\n  sub\n  sub\n  dup2\n  mstore\n  swap1\n  0x40\n  mstore\n    /* \"Tokenrenacecoin/tokenrenacecoin.sol\":15460:15538  keccak256(abi.encode(typeHash, nameHash, versionHash, chainID, address(this))) */\n  dup1\n  mload\n  swap1\n  0x20\n  add\n  keccak256\n    /* \"Tokenrenacecoin/tokenrenacecoin.sol\":15453:15538  return keccak256(abi.encode(typeHash, nameHash, versionHash, chainID, address(this))) */\n  swap2\n  pop\n  pop\n    /* \"Tokenrenacecoin/tokenrenacecoin.sol\":15196:15546  function _buildDomainSeparator(\r... */\n  swap4\n  swap3\n  pop\n  pop\n  pop\n  jump\t// out\n    /* \"Tokenrenacecoin/tokenrenacecoin.sol\":27295:27669  function _mint(address account, uint256 amount) internal virtual {\r... */\ntag_20:\n    /* \"Tokenrenacecoin/tokenrenacecoin.sol\":27398:27399  0 */\n  0x00\n    /* \"Tokenrenacecoin/tokenrenacecoin.sol\":27379:27400  account != address(0) */\n  0xffffffffffffffffffffffffffffffffffffffff\n  and\n    /* \"Tokenrenacecoin/tokenrenacecoin.sol\":27379:27386  account */\n  dup3\n    /* \"Tokenrenacecoin/tokenrenacecoin.sol\":27379:27400  account != address(0) */\n  0xffffffffffffffffffffffffffffffffffffffff\n  and\n  eq\n  iszero\n    /* \"Tokenrenacecoin/tokenrenacecoin.sol\":27371:27436  require(account != address(0), \"ERC20: mint to the zero address\") */\n  tag_24\n  jumpi\n  mload(0x40)\n  0x08c379a000000000000000000000000000000000000000000000000000000000\n  dup2\n  mstore\n  0x04\n  add\n  dup1\n  dup1\n  0x20\n  add\n  dup3\n  dup2\n  sub\n  dup3\n  mstore\n  0x1f\n  dup2\n  mstore\n  0x20\n  add\n  dup1\n  0x45524332303a206d696e7420746f20746865207a65726f206164647265737300\n  dup2\n  mstore\n  pop\n  0x20\n  add\n  swap2\n  pop\n  pop\n  mload(0x40)\n  dup1\n  swap2\n  sub\n  swap1\n  revert\ntag_24:\n    /* \"Tokenrenacecoin/tokenrenacecoin.sol\":27447:27496  _beforeTokenTransfer(address(0), account, amount) */\n  tag_25\n    /* \"Tokenrenacecoin/tokenrenacecoin.sol\":27476:27477  0 */\n  0x00\n    /* \"Tokenrenacecoin/tokenrenacecoin.sol\":27480:27487  account */\n  dup4\n    /* \"Tokenrenacecoin/tokenrenacecoin.sol\":27489:27495  amount */\n  dup4\n    /* \"Tokenrenacecoin/tokenrenacecoin.sol\":27447:27467  _beforeTokenTransfer */\n  shl(0x20, tag_26)\n    /* \"Tokenrenacecoin/tokenrenacecoin.sol\":27447:27496  _beforeTokenTransfer(address(0), account, amount) */\n  0x20\n  shr\n  jump\t// in\ntag_25:\n    /* \"Tokenrenacecoin/tokenrenacecoin.sol\":27522:27546  _totalSupply.add(amount) */\n  tag_27\n    /* \"Tokenrenacecoin/tokenrenacecoin.sol\":27539:27545  amount */\n  dup2\n    /* \"Tokenrenacecoin/tokenrenacecoin.sol\":27522:27534  _totalSupply */\n  sload(0x02)\n    /* \"Tokenrenacecoin/tokenrenacecoin.sol\":27522:27538  _totalSupply.add */\n  or(tag_0_84, shl(0x20, tag_28))\n  swap1\n    /* \"Tokenrenacecoin/tokenrenacecoin.sol\":27522:27546  _totalSupply.add(amount) */\n  swap2\n  swap1\n  0x20\n  shr\n  jump\t// in\ntag_27:\n    /* \"Tokenrenacecoin/tokenrenacecoin.sol\":27507:27519  _totalSupply */\n  0x02\n    /* \"Tokenrenacecoin/tokenrenacecoin.sol\":27507:27546  _totalSupply = _totalSupply.add(amount) */\n  dup2\n  swap1\n  sstore\n  pop\n    /* \"Tokenrenacecoin/tokenrenacecoin.sol\":27578:27608  _balances[account].add(amount) */\n  tag_29\n    /* \"Tokenrenacecoin/tokenrenacecoin.sol\":27601:27607  amount */\n  dup2\n    /* \"Tokenrenacecoin/tokenrenacecoin.sol\":27578:27587  _balances */\n  0x00\n    /* \"Tokenrenacecoin/tokenrenacecoin.sol\":27578:27596  _balances[account] */\n  dup1\n    /* \"Tokenrenacecoin/tokenrenacecoin.sol\":27588:27595  account */\n  dup6\n    /* \"Tokenrenacecoin/tokenrenacecoin.sol\":27578:27596  _balances[account] */\n  0xffffffffffffffffffffffffffffffffffffffff\n  and\n  0xffffffffffffffffffffffffffffffffffffffff\n  and\n  dup2\n  mstore\n  0x20\n  add\n  swap1\n  dup2\n  mstore\n  0x20\n  add\n  0x00\n  keccak256\n  sload\n    /* \"Tokenrenacecoin/tokenrenacecoin.sol\":27578:27600  _balances[account].add */\n  or(tag_0_84, shl(0x20, tag_28))\n  swap1\n    /* \"Tokenrenacecoin/tokenrenacecoin.sol\":27578:27608  _balances[account].add(amount) */\n  swap2\n  swap1\n  0x20\n  shr\n  jump\t// in\ntag_29:\n    /* \"Tokenrenacecoin/tokenrenacecoin.sol\":27557:27566  _balances */\n  0x00\n    /* \"Tokenrenacecoin/tokenrenacecoin.sol\":27557:27575  _balances[account] */\n  dup1\n    /* \"Tokenrenacecoin/tokenrenacecoin.sol\":27567:27574  account */\n  dup5\n    /* \"Tokenrenacecoin/tokenrenacecoin.sol\":27557:27575  _balances[account] */\n  0xffffffffffffffffffffffffffffffffffffffff\n  and\n  0xffffffffffffffffffffffffffffffffffffffff\n  and\n  dup2\n  mstore\n  0x20\n  add\n  swap1\n  dup2\n  mstore\n  0x20\n  add\n  0x00\n  keccak256\n    /* \"Tokenrenacecoin/tokenrenacecoin.sol\":27557:27608  _balances[account] = _balances[account].add(amount) */\n  dup2\n  swap1\n  sstore\n  pop\n    /* \"Tokenrenacecoin/tokenrenacecoin.sol\":27645:27652  account */\n  dup2\n    /* \"Tokenrenacecoin/tokenrenacecoin.sol\":27624:27661  Transfer(address(0), account, amount) */\n  0xffffffffffffffffffffffffffffffffffffffff\n  and\n    /* \"Tokenrenacecoin/tokenrenacecoin.sol\":27641:27642  0 */\n  0x00\n    /* \"Tokenrenacecoin/tokenrenacecoin.sol\":27624:27661  Transfer(address(0), account, amount) */\n  0xffffffffffffffffffffffffffffffffffffffff\n  and\n  0xddf252ad1be2c89b69c2b068fc378daa952ba7f163c4a11628f55a4df523b3ef\n    /* \"Tokenrenacecoin/tokenrenacecoin.sol\":27654:27660  amount */\n  dup4\n    /* \"Tokenrenacecoin/tokenrenacecoin.sol\":27624:27661  Transfer(address(0), account, amount) */\n  mload(0x40)\n  dup1\n  dup3\n  dup2\n  mstore\n  0x20\n  add\n  swap2\n  pop\n  pop\n  mload(0x40)\n  dup1\n  swap2\n  sub\n  swap1\n  log3\n    /* \"Tokenrenacecoin/tokenrenacecoin.sol\":27295:27669  function _mint(address account, uint256 amount) internal virtual {\r... */\n  pop\n  pop\n  jump\t// out\n    /* \"Tokenrenacecoin/tokenrenacecoin.sol\":28455:28552  function _beforeTokenTransfer( address from_, address to_, uint256 amount_ ) internal virtual { } */\ntag_26:\n  pop\n  pop\n  pop\n  jump\t// out\n    /* \"Tokenrenacecoin/tokenrenacecoin.sol\":21618:21799  function add(uint256 a, uint256 b) internal pure returns (uint256) {\r... */\ntag_28:\n    /* \"Tokenrenacecoin/tokenrenacecoin.sol\":21676:21683  uint256 */\n  0x00\n    /* \"Tokenrenacecoin/tokenrenacecoin.sol\":21696:21705  uint256 c */\n  dup1\n    /* \"Tokenrenacecoin/tokenrenacecoin.sol\":21712:21713  b */\n  dup3\n    /* \"Tokenrenacecoin/tokenrenacecoin.sol\":21708:21709  a */\n  dup5\n    /* \"Tokenrenacecoin/tokenrenacecoin.sol\":21708:21713  a + b */\n  add\n    /* \"Tokenrenacecoin/tokenrenacecoin.sol\":21696:21713  uint256 c = a + b */\n  swap1\n  pop\n    /* \"Tokenrenacecoin/tokenrenacecoin.sol\":21737:21738  a */\n  dup4\n    /* \"Tokenrenacecoin/tokenrenacecoin.sol\":21732:21733  c */\n  dup2\n    /* \"Tokenrenacecoin/tokenrenacecoin.sol\":21732:21738  c >= a */\n  lt\n  iszero\n    /* \"Tokenrenacecoin/tokenrenacecoin.sol\":21724:21770  require(c >= a, \"SafeMath: addition overflow\") */\n  tag_32\n  jumpi\n  mload(0x40)\n  0x08c379a000000000000000000000000000000000000000000000000000000000\n  dup2\n  mstore\n  0x04\n  add\n  dup1\n  dup1\n  0x20\n  add\n  dup3\n  dup2\n  sub\n  dup3\n  mstore\n  0x1b\n  dup2\n  mstore\n  0x20\n  add\n  dup1\n  0x536166654d6174683a206164646974696f6e206f766572666c6f770000000000\n  dup2\n  mstore\n  pop\n  0x20\n  add\n  swap2\n  pop\n  pop\n  mload(0x40)\n  dup1\n  swap2\n  sub\n  swap1\n  revert\ntag_32:\n    /* \"Tokenrenacecoin/tokenrenacecoin.sol\":21790:21791  c */\n  dup1\n    /* \"Tokenrenacecoin/tokenrenacecoin.sol\":21783:21791  return c */\n  swap2\n  pop\n  pop\n    /* \"Tokenrenacecoin/tokenrenacecoin.sol\":21618:21799  function add(uint256 a, uint256 b) internal pure returns (uint256) {\r... */\n  swap3\n  swap2\n  pop\n  pop\n  jump\t// out\n    /* \"Tokenrenacecoin/tokenrenacecoin.sol\":31390:32394  contract RENACECOIN is ERC20Permit, IOHM, OlympusAccessControlled {\r... */\ntag_2:\n  dup3\n  dup1\n  sload\n  0x01\n  dup2\n  0x01\n  and\n  iszero\n  0x0100\n  mul\n  sub\n  and\n  0x02\n  swap1\n  div\n  swap1\n  0x00\n  mstore\n  keccak256(0x00, 0x20)\n  swap1\n  0x1f\n  add\n  0x20\n  swap1\n  div\n  dup2\n  add\n  swap3\n  dup3\n  tag_34\n  jumpi\n  0x00\n  dup6\n  sstore\n  jump(tag_33)\ntag_34:\n  dup3\n  0x1f\n  lt\n  tag_35\n  jumpi\n  dup1\n  mload\n  not(0xff)\n  and\n  dup4\n  dup1\n  add\n  or\n  dup6\n  sstore\n  jump(tag_33)\ntag_35:\n  dup3\n  dup1\n  add\n  0x01\n  add\n  dup6\n  sstore\n  dup3\n  iszero\n  tag_33\n  jumpi\n  swap2\n  dup3\n  add\ntag_36:\n  dup3\n  dup2\n  gt\n  iszero\n  tag_37\n  jumpi\n  dup3\n  mload\n  dup3\n  sstore\n  swap2\n  0x20\n  add\n  swap2\n  swap1\n  0x01\n  add\n  swap1\n  jump(tag_36)\ntag_37:\ntag_33:\n  pop\n  swap1\n  pop\n  tag_38\n  swap2\n  swap1\n  tag_39\n  jump\t// in\ntag_38:\n  pop\n  swap1\n  jump\t// out\ntag_39:\ntag_40:\n  dup1\n  dup3\n  gt\n  iszero\n  tag_41\n  jumpi\n  0x00\n  dup2\n  0x00\n  swap1\n  sstore\n  pop\n  0x01\n  add\n  jump(tag_40)\ntag_41:\n  pop\n  swap1\n  jump\t// out\ntag_21:\n  shr(0xf8, mload(0x80))\n  mload(0xa0)\n  mload(0xc0)\n  mload(0xe0)\n  mload(0x0100)\n  mload(0x0120)\n  mload(0x0140)\n  codecopy(0x00, dataOffset(sub_0), dataSize(sub_0))\n  assignImmutable(\"0x392c50ca5507384bea71aeaaad0c3da80670680e4a8116ffc86d5c553597399c\")\n  assignImmutable(\"0x42d683e394a4df18653c7650f8aa08cb69f6a4b0d0acad4653af662538b2a674\")\n  assignImmutable(\"0xdd5c87e7d2b0dfec287534406fac02a7bbb933ae982df87d512731e2383f3518\")\n  assignImmutable(\"0x47c45d5c96028246b97317e5b08ebf9432401948cd8d066b95926c97155d1ae7\")\n  assignImmutable(\"0xb94f8c478e7f92fc0cbeb8585a30ff43095dcb640fbbe86337c29b9c95bacdbd\")\n  assignImmutable(\"0x251437c0092c2b0ae5c27df55e04490f08f4eb0dcb868271fba9915d5c3457ef\")\n  assignImmutable(\"0x69bb780f07d68a8f9bd72ed7c0eb217fbfcf23cce950b57f4cc31ee126c912a8\")\n  return(0x00, dataSize(sub_0))\nstop\n\nsub_0: assembly {\n        /* \"Tokenrenacecoin/tokenrenacecoin.sol\":31390:32394  contract RENACECOIN is ERC20Permit, IOHM, OlympusAccessControlled {\r... */\n      mstore(0x40, 0x80)\n      callvalue\n      dup1\n      iszero\n      tag_1\n      jumpi\n      0x00\n      dup1\n      revert\n    tag_1:\n      pop\n      jumpi(tag_2, lt(calldatasize, 0x04))\n      shr(0xe0, calldataload(0x00))\n      dup1\n      0x70a08231\n      gt\n      tag_22\n      jumpi\n      dup1\n      0xa457c2d7\n      gt\n      tag_23\n      jumpi\n      dup1\n      0xa457c2d7\n      eq\n      tag_17\n      jumpi\n      dup1\n      0xa9059cbb\n      eq\n      tag_18\n      jumpi\n      dup1\n      0xbf7e214f\n      eq\n      tag_19\n      jumpi\n      dup1\n      0xd505accf\n      eq\n      tag_20\n      jumpi\n      dup1\n      0xdd62ed3e\n      eq\n      tag_21\n      jumpi\n      jump(tag_2)\n    tag_23:\n      dup1\n      0x70a08231\n      eq\n      tag_12\n      jumpi\n      dup1\n      0x79cc6790\n      eq\n      tag_13\n      jumpi\n      dup1\n      0x7a9e5e4b\n      eq\n      tag_14\n      jumpi\n      dup1\n      0x7ecebe00\n      eq\n      tag_15\n      jumpi\n      dup1\n      0x95d89b41\n      eq\n      tag_16\n      jumpi\n      jump(tag_2)\n    tag_22:\n      dup1\n      0x313ce567\n      gt\n      tag_24\n      jumpi\n      dup1\n      0x313ce567\n      eq\n      tag_7\n      jumpi\n      dup1\n      0x3644e515\n      eq\n      tag_8\n      jumpi\n      dup1\n      0x39509351\n      eq\n      tag_9\n      jumpi\n      dup1\n      0x40c10f19\n      eq\n      tag_10\n      jumpi\n      dup1\n      0x42966c68\n      eq\n      tag_11\n      jumpi\n      jump(tag_2)\n    tag_24:\n      dup1\n      0x06fdde03\n      eq\n      tag_3\n      jumpi\n      dup1\n      0x095ea7b3\n      eq\n      tag_4\n      jumpi\n      dup1\n      0x18160ddd\n      eq\n      tag_5\n      jumpi\n      dup1\n      0x23b872dd\n      eq\n      tag_6\n      jumpi\n    tag_2:\n      0x00\n      dup1\n      revert\n        /* \"Tokenrenacecoin/tokenrenacecoin.sol\":24885:24968  function name() public view returns (string memory) {\r... */\n    tag_3:\n      tag_25\n      tag_26\n      jump\t// in\n    tag_25:\n      mload(0x40)\n      dup1\n      dup1\n      0x20\n      add\n      dup3\n      dup2\n      sub\n      dup3\n      mstore\n      dup4\n      dup2\n      dup2\n      mload\n      dup2\n      mstore\n      0x20\n      add\n      swap2\n      pop\n      dup1\n      mload\n      swap1\n      0x20\n      add\n      swap1\n      dup1\n      dup4\n      dup4\n      0x00\n    tag_27:\n      dup4\n      dup2\n      lt\n      iszero\n      tag_29\n      jumpi\n      dup1\n      dup3\n      add\n      mload\n      dup2\n      dup5\n      add\n      mstore\n      0x20\n      dup2\n      add\n      swap1\n      pop\n      jump(tag_27)\n    tag_29:\n      pop\n      pop\n      pop\n      pop\n      swap1\n      pop\n      swap1\n      dup2\n      add\n      swap1\n      0x1f\n      and\n      dup1\n      iszero\n      tag_30\n      jumpi\n      dup1\n      dup3\n      sub\n      dup1\n      mload\n      0x01\n      dup4\n      0x20\n      sub\n      0x0100\n      exp\n      sub\n      not\n      and\n      dup2\n      mstore\n      0x20\n      add\n      swap2\n      pop\n    tag_30:\n      pop\n      swap3\n      pop\n      pop\n      pop\n      mload(0x40)\n      dup1\n      swap2\n      sub\n      swap1\n      return\n        /* \"Tokenrenacecoin/tokenrenacecoin.sol\":25753:25920  function approve(address spender, uint256 amount) public virtual override returns (bool) {\r... */\n    tag_4:\n      tag_31\n      0x04\n      dup1\n      calldatasize\n      sub\n      0x40\n      dup2\n      lt\n      iszero\n      tag_32\n      jumpi\n      0x00\n      dup1\n      revert\n    tag_32:\n      dup2\n      add\n      swap1\n      dup1\n      dup1\n      calldataload\n      0xffffffffffffffffffffffffffffffffffffffff\n      and\n      swap1\n      0x20\n      add\n      swap1\n      swap3\n      swap2\n      swap1\n      dup1\n      calldataload\n      swap1\n      0x20\n      add\n      swap1\n      swap3\n      swap2\n      swap1\n      pop\n      pop\n      pop\n      tag_33\n      jump\t// in\n    tag_31:\n      mload(0x40)\n      dup1\n      dup3\n      iszero\n      iszero\n      dup2\n      mstore\n      0x20\n      add\n      swap2\n      pop\n      pop\n      mload(0x40)\n      dup1\n      swap2\n      sub\n      swap1\n      return\n        /* \"Tokenrenacecoin/tokenrenacecoin.sol\":25170:25270  function totalSupply() public view override returns (uint256) {\r... */\n    tag_5:\n      tag_34\n      tag_35\n      jump\t// in\n    tag_34:\n      mload(0x40)\n      dup1\n      dup3\n      dup2\n      mstore\n      0x20\n      add\n      swap2\n      pop\n      pop\n      mload(0x40)\n      dup1\n      swap2\n      sub\n      swap1\n      return\n        /* \"Tokenrenacecoin/tokenrenacecoin.sol\":25928:26245  function transferFrom(address sender, address recipient, uint256 amount) public virtual override returns (bool) {\r... */\n    tag_6:\n      tag_36\n      0x04\n      dup1\n      calldatasize\n      sub\n      0x60\n      dup2\n      lt\n      iszero\n      tag_37\n      jumpi\n      0x00\n      dup1\n      revert\n    tag_37:\n      dup2\n      add\n      swap1\n      dup1\n      dup1\n      calldataload\n      0xffffffffffffffffffffffffffffffffffffffff\n      and\n      swap1\n      0x20\n      add\n      swap1\n      swap3\n      swap2\n      swap1\n      dup1\n      calldataload\n      0xffffffffffffffffffffffffffffffffffffffff\n      and\n      swap1\n      0x20\n      add\n      swap1\n      swap3\n      swap2\n      swap1\n      dup1\n      calldataload\n      swap1\n      0x20\n      add\n      swap1\n      swap3\n      swap2\n      swap1\n      pop\n      pop\n      pop\n      tag_38\n      jump\t// in\n    tag_36:\n      mload(0x40)\n      dup1\n      dup3\n      iszero\n      iszero\n      dup2\n      mstore\n      0x20\n      add\n      swap2\n      pop\n      pop\n      mload(0x40)\n      dup1\n      swap2\n      sub\n      swap1\n      return\n        /* \"Tokenrenacecoin/tokenrenacecoin.sol\":25071:25162  function decimals() public view virtual returns (uint8) {\r... */\n    tag_7:\n      tag_39\n      tag_40\n      jump\t// in\n    tag_39:\n      mload(0x40)\n      dup1\n      dup3\n      0xff\n      and\n      dup2\n      mstore\n      0x20\n      add\n      swap2\n      pop\n      pop\n      mload(0x40)\n      dup1\n      swap2\n      sub\n      swap1\n      return\n        /* \"Tokenrenacecoin/tokenrenacecoin.sol\":30853:30968  function DOMAIN_SEPARATOR() external view override returns (bytes32) {\r... */\n    tag_8:\n      tag_41\n      tag_42\n      jump\t// in\n    tag_41:\n      mload(0x40)\n      dup1\n      dup3\n      dup2\n      mstore\n      0x20\n      add\n      swap2\n      pop\n      pop\n      mload(0x40)\n      dup1\n      swap2\n      sub\n      swap1\n      return\n        /* \"Tokenrenacecoin/tokenrenacecoin.sol\":26253:26467  function increaseAllowance(address spender, uint256 addedValue) public virtual returns (bool) {\r... */\n    tag_9:\n      tag_43\n      0x04\n      dup1\n      calldatasize\n      sub\n      0x40\n      dup2\n      lt\n      iszero\n      tag_44\n      jumpi\n      0x00\n      dup1\n      revert\n    tag_44:\n      dup2\n      add\n      swap1\n      dup1\n      dup1\n      calldataload\n      0xffffffffffffffffffffffffffffffffffffffff\n      and\n      swap1\n      0x20\n      add\n      swap1\n      swap3\n      swap2\n      swap1\n      dup1\n      calldataload\n      swap1\n      0x20\n      add\n      swap1\n      swap3\n      swap2\n      swap1\n      pop\n      pop\n      pop\n      tag_45\n      jump\t// in\n    tag_43:\n      mload(0x40)\n      dup1\n      dup3\n      iszero\n      iszero\n      dup2\n      mstore\n      0x20\n      add\n      swap2\n      pop\n      pop\n      mload(0x40)\n      dup1\n      swap2\n      sub\n      swap1\n      return\n        /* \"Tokenrenacecoin/tokenrenacecoin.sol\":31742:31862  function mint(address account_, uint256 amount_) external override onlyVault {\r... */\n    tag_10:\n      tag_46\n      0x04\n      dup1\n      calldatasize\n      sub\n      0x40\n      dup2\n      lt\n      iszero\n      tag_47\n      jumpi\n      0x00\n      dup1\n      revert\n    tag_47:\n      dup2\n      add\n      swap1\n      dup1\n      dup1\n      calldataload\n      0xffffffffffffffffffffffffffffffffffffffff\n      and\n      swap1\n      0x20\n      add\n      swap1\n      swap3\n      swap2\n      swap1\n      dup1\n      calldataload\n      swap1\n      0x20\n      add\n      swap1\n      swap3\n      swap2\n      swap1\n      pop\n      pop\n      pop\n      tag_48\n      jump\t// in\n    tag_46:\n      stop\n        /* \"Tokenrenacecoin/tokenrenacecoin.sol\":31870:31962  function burn(uint256 amount) external override {\r... */\n    tag_11:\n      tag_49\n      0x04\n      dup1\n      calldatasize\n      sub\n      0x20\n      dup2\n      lt\n      iszero\n      tag_50\n      jumpi\n      0x00\n      dup1\n      revert\n    tag_50:\n      dup2\n      add\n      swap1\n      dup1\n      dup1\n      calldataload\n      swap1\n      0x20\n      add\n      swap1\n      swap3\n      swap2\n      swap1\n      pop\n      pop\n      pop\n      tag_51\n      jump\t// in\n    tag_49:\n      stop\n        /* \"Tokenrenacecoin/tokenrenacecoin.sol\":25278:25405  function balanceOf(address account) public view virtual override returns (uint256) {\r... */\n    tag_12:\n      tag_52\n      0x04\n      dup1\n      calldatasize\n      sub\n      0x20\n      dup2\n      lt\n      iszero\n      tag_53\n      jumpi\n      0x00\n      dup1\n      revert\n    tag_53:\n      dup2\n      add\n      swap1\n      dup1\n      dup1\n      calldataload\n      0xffffffffffffffffffffffffffffffffffffffff\n      and\n      swap1\n      0x20\n      add\n      swap1\n      swap3\n      swap2\n      swap1\n      pop\n      pop\n      pop\n      tag_54\n      jump\t// in\n    tag_52:\n      mload(0x40)\n      dup1\n      dup3\n      dup2\n      mstore\n      0x20\n      add\n      swap2\n      pop\n      pop\n      mload(0x40)\n      dup1\n      swap2\n      sub\n      swap1\n      return\n        /* \"Tokenrenacecoin/tokenrenacecoin.sol\":31970:32088  function burnFrom(address account_, uint256 amount_) external override {\r... */\n    tag_13:\n      tag_55\n      0x04\n      dup1\n      calldatasize\n      sub\n      0x40\n      dup2\n      lt\n      iszero\n      tag_56\n      jumpi\n      0x00\n      dup1\n      revert\n    tag_56:\n      dup2\n      add\n      swap1\n      dup1\n      dup1\n      calldataload\n      0xffffffffffffffffffffffffffffffffffffffff\n      and\n      swap1\n      0x20\n      add\n      swap1\n      swap3\n      swap2\n      swap1\n      dup1\n      calldataload\n      swap1\n      0x20\n      add\n      swap1\n      swap3\n      swap2\n      swap1\n      pop\n      pop\n      pop\n      tag_57\n      jump\t// in\n    tag_55:\n      stop\n        /* \"Tokenrenacecoin/tokenrenacecoin.sol\":2542:2710  function setAuthority(IOlympusAuthority _newAuthority) external onlyGovernor {\r... */\n    tag_14:\n      tag_58\n      0x04\n      dup1\n      calldatasize\n      sub\n      0x20\n      dup2\n      lt\n      iszero\n      tag_59\n      jumpi\n      0x00\n      dup1\n      revert\n    tag_59:\n      dup2\n      add\n      swap1\n      dup1\n      dup1\n      calldataload\n      0xffffffffffffffffffffffffffffffffffffffff\n      and\n      swap1\n      0x20\n      add\n      swap1\n      swap3\n      swap2\n      swap1\n      pop\n      pop\n      pop\n      tag_60\n      jump\t// in\n    tag_58:\n      stop\n        /* \"Tokenrenacecoin/tokenrenacecoin.sol\":30595:30723  function nonces(address owner) public view virtual override returns (uint256) {\r... */\n    tag_15:\n      tag_61\n      0x04\n      dup1\n      calldatasize\n      sub\n      0x20\n      dup2\n      lt\n      iszero\n      tag_62\n      jumpi\n      0x00\n      dup1\n      revert\n    tag_62:\n      dup2\n      add\n      swap1\n      dup1\n      dup1\n      calldataload\n      0xffffffffffffffffffffffffffffffffffffffff\n      and\n      swap1\n      0x20\n      add\n      swap1\n      swap3\n      swap2\n      swap1\n      pop\n      pop\n      pop\n      tag_63\n      jump\t// in\n    tag_61:\n      mload(0x40)\n      dup1\n      dup3\n      dup2\n      mstore\n      0x20\n      add\n      swap2\n      pop\n      pop\n      mload(0x40)\n      dup1\n      swap2\n      sub\n      swap1\n      return\n        /* \"Tokenrenacecoin/tokenrenacecoin.sol\":24976:25063  function symbol() public view returns (string memory) {\r... */\n    tag_16:\n      tag_64\n      tag_65\n      jump\t// in\n    tag_64:\n      mload(0x40)\n      dup1\n      dup1\n      0x20\n      add\n      dup3\n      dup2\n      sub\n      dup3\n      mstore\n      dup4\n      dup2\n      dup2\n      mload\n      dup2\n      mstore\n      0x20\n      add\n      swap2\n      pop\n      dup1\n      mload\n      swap1\n      0x20\n      add\n      swap1\n      dup1\n      dup4\n      dup4\n      0x00\n    tag_66:\n      dup4\n      dup2\n      lt\n      iszero\n      tag_68\n      jumpi\n      dup1\n      dup3\n      add\n      mload\n      dup2\n      dup5\n      add\n      mstore\n      0x20\n      dup2\n      add\n      swap1\n      pop\n      jump(tag_66)\n    tag_68:\n      pop\n      pop\n      pop\n      pop\n      swap1\n      pop\n      swap1\n      dup2\n      add\n      swap1\n      0x1f\n      and\n      dup1\n      iszero\n      tag_69\n      jumpi\n      dup1\n      dup3\n      sub\n      dup1\n      mload\n      0x01\n      dup4\n      0x20\n      sub\n      0x0100\n      exp\n      sub\n      not\n      and\n      dup2\n      mstore\n      0x20\n      add\n      swap2\n      pop\n    tag_69:\n      pop\n      swap3\n      pop\n      pop\n      pop\n      mload(0x40)\n      dup1\n      swap2\n      sub\n      swap1\n      return\n        /* \"Tokenrenacecoin/tokenrenacecoin.sol\":26475:26740  function decreaseAllowance(address spender, uint256 subtractedValue) public virtual returns (bool) {\r... */\n    tag_17:\n      tag_70\n      0x04\n      dup1\n      calldatasize\n      sub\n      0x40\n      dup2\n      lt\n      iszero\n      tag_71\n      jumpi\n      0x00\n      dup1\n      revert\n    tag_71:\n      dup2\n      add\n      swap1\n      dup1\n      dup1\n      calldataload\n      0xffffffffffffffffffffffffffffffffffffffff\n      and\n      swap1\n      0x20\n      add\n      swap1\n      swap3\n      swap2\n      swap1\n      dup1\n      calldataload\n      swap1\n      0x20\n      add\n      swap1\n      swap3\n      swap2\n      swap1\n      pop\n      pop\n      pop\n      tag_72\n      jump\t// in\n    tag_70:\n      mload(0x40)\n      dup1\n      dup3\n      iszero\n      iszero\n      dup2\n      mstore\n      0x20\n      add\n      swap2\n      pop\n      pop\n      mload(0x40)\n      dup1\n      swap2\n      sub\n      swap1\n      return\n        /* \"Tokenrenacecoin/tokenrenacecoin.sol\":25413:25586  function transfer(address recipient, uint256 amount) public virtual override returns (bool) {\r... */\n    tag_18:\n      tag_73\n      0x04\n      dup1\n      calldatasize\n      sub\n      0x40\n      dup2\n      lt\n      iszero\n      tag_74\n      jumpi\n      0x00\n      dup1\n      revert\n    tag_74:\n      dup2\n      add\n      swap1\n      dup1\n      dup1\n      calldataload\n      0xffffffffffffffffffffffffffffffffffffffff\n      and\n      swap1\n      0x20\n      add\n      swap1\n      swap3\n      swap2\n      swap1\n      dup1\n      calldataload\n      swap1\n      0x20\n      add\n      swap1\n      swap3\n      swap2\n      swap1\n      pop\n      pop\n      pop\n      tag_75\n      jump\t// in\n    tag_73:\n      mload(0x40)\n      dup1\n      dup3\n      iszero\n      iszero\n      dup2\n      mstore\n      0x20\n      add\n      swap2\n      pop\n      pop\n      mload(0x40)\n      dup1\n      swap2\n      sub\n      swap1\n      return\n        /* \"Tokenrenacecoin/tokenrenacecoin.sol\":1754:1788  IOlympusAuthority public authority */\n    tag_19:\n      tag_76\n      tag_77\n      jump\t// in\n    tag_76:\n      mload(0x40)\n      dup1\n      dup3\n      0xffffffffffffffffffffffffffffffffffffffff\n      and\n      dup2\n      mstore\n      0x20\n      add\n      swap2\n      pop\n      pop\n      mload(0x40)\n      dup1\n      swap2\n      sub\n      swap1\n      return\n        /* \"Tokenrenacecoin/tokenrenacecoin.sol\":29884:30529  function permit(\r... */\n    tag_20:\n      tag_78\n      0x04\n      dup1\n      calldatasize\n      sub\n      0xe0\n      dup2\n      lt\n      iszero\n      tag_79\n      jumpi\n      0x00\n      dup1\n      revert\n    tag_79:\n      dup2\n      add\n      swap1\n      dup1\n      dup1\n      calldataload\n      0xffffffffffffffffffffffffffffffffffffffff\n      and\n      swap1\n      0x20\n      add\n      swap1\n      swap3\n      swap2\n      swap1\n      dup1\n      calldataload\n      0xffffffffffffffffffffffffffffffffffffffff\n      and\n      swap1\n      0x20\n      add\n      swap1\n      swap3\n      swap2\n      swap1\n      dup1\n      calldataload\n      swap1\n      0x20\n      add\n      swap1\n      swap3\n      swap2\n      swap1\n      dup1\n      calldataload\n      swap1\n      0x20\n      add\n      swap1\n      swap3\n      swap2\n      swap1\n      dup1\n      calldataload\n      0xff\n      and\n      swap1\n      0x20\n      add\n      swap1\n      swap3\n      swap2\n      swap1\n      dup1\n      calldataload\n      swap1\n      0x20\n      add\n      swap1\n      swap3\n      swap2\n      swap1\n      dup1\n      calldataload\n      swap1\n      0x20\n      add\n      swap1\n      swap3\n      swap2\n      swap1\n      pop\n      pop\n      pop\n      tag_80\n      jump\t// in\n    tag_78:\n      stop\n        /* \"Tokenrenacecoin/tokenrenacecoin.sol\":25594:25745  function allowance(address owner, address spender) public view virtual override returns (uint256) {\r... */\n    tag_21:\n      tag_81\n      0x04\n      dup1\n      calldatasize\n      sub\n      0x40\n      dup2\n      lt\n      iszero\n      tag_82\n      jumpi\n      0x00\n      dup1\n      revert\n    tag_82:\n      dup2\n      add\n      swap1\n      dup1\n      dup1\n      calldataload\n      0xffffffffffffffffffffffffffffffffffffffff\n      and\n      swap1\n      0x20\n      add\n      swap1\n      swap3\n      swap2\n      swap1\n      dup1\n      calldataload\n      0xffffffffffffffffffffffffffffffffffffffff\n      and\n      swap1\n      0x20\n      add\n      swap1\n      swap3\n      swap2\n      swap1\n      pop\n      pop\n      pop\n      tag_83\n      jump\t// in\n    tag_81:\n      mload(0x40)\n      dup1\n      dup3\n      dup2\n      mstore\n      0x20\n      add\n      swap2\n      pop\n      pop\n      mload(0x40)\n      dup1\n      swap2\n      sub\n      swap1\n      return\n        /* \"Tokenrenacecoin/tokenrenacecoin.sol\":24885:24968  function name() public view returns (string memory) {\r... */\n    tag_26:\n        /* \"Tokenrenacecoin/tokenrenacecoin.sol\":24922:24935  string memory */\n      0x60\n        /* \"Tokenrenacecoin/tokenrenacecoin.sol\":24955:24960  _name */\n      0x03\n        /* \"Tokenrenacecoin/tokenrenacecoin.sol\":24948:24960  return _name */\n      dup1\n      sload\n      0x01\n      dup2\n      0x01\n      and\n      iszero\n      0x0100\n      mul\n      sub\n      and\n      0x02\n      swap1\n      div\n      dup1\n      0x1f\n      add\n      0x20\n      dup1\n      swap2\n      div\n      mul\n      0x20\n      add\n      mload(0x40)\n      swap1\n      dup2\n      add\n      0x40\n      mstore\n      dup1\n      swap3\n      swap2\n      swap1\n      dup2\n      dup2\n      mstore\n      0x20\n      add\n      dup3\n      dup1\n      sload\n      0x01\n      dup2\n      0x01\n      and\n      iszero\n      0x0100\n      mul\n      sub\n      and\n      0x02\n      swap1\n      div\n      dup1\n      iszero\n      tag_86\n      jumpi\n      dup1\n      0x1f\n      lt\n      tag_87\n      jumpi\n      0x0100\n      dup1\n      dup4\n      sload\n      div\n      mul\n      dup4\n      mstore\n      swap2\n      0x20\n      add\n      swap2\n      jump(tag_86)\n    tag_87:\n      dup3\n      add\n      swap2\n      swap1\n      0x00\n      mstore\n      keccak256(0x00, 0x20)\n      swap1\n    tag_88:\n      dup2\n      sload\n      dup2\n      mstore\n      swap1\n      0x01\n      add\n      swap1\n      0x20\n      add\n      dup1\n      dup4\n      gt\n      tag_88\n      jumpi\n      dup3\n      swap1\n      sub\n      0x1f\n      and\n      dup3\n      add\n      swap2\n    tag_86:\n      pop\n      pop\n      pop\n      pop\n      pop\n      swap1\n      pop\n        /* \"Tokenrenacecoin/tokenrenacecoin.sol\":24885:24968  function name() public view returns (string memory) {\r... */\n      swap1\n      jump\t// out\n        /* \"Tokenrenacecoin/tokenrenacecoin.sol\":25753:25920  function approve(address spender, uint256 amount) public virtual override returns (bool) {\r... */\n    tag_33:\n        /* \"Tokenrenacecoin/tokenrenacecoin.sol\":25836:25840  bool */\n      0x00\n        /* \"Tokenrenacecoin/tokenrenacecoin.sol\":25853:25890  _approve(msg.sender, spender, amount) */\n      tag_90\n        /* \"Tokenrenacecoin/tokenrenacecoin.sol\":25862:25872  msg.sender */\n      caller\n        /* \"Tokenrenacecoin/tokenrenacecoin.sol\":25874:25881  spender */\n      dup5\n        /* \"Tokenrenacecoin/tokenrenacecoin.sol\":25883:25889  amount */\n      dup5\n        /* \"Tokenrenacecoin/tokenrenacecoin.sol\":25853:25861  _approve */\n      tag_91\n        /* \"Tokenrenacecoin/tokenrenacecoin.sol\":25853:25890  _approve(msg.sender, spender, amount) */\n      jump\t// in\n    tag_90:\n        /* \"Tokenrenacecoin/tokenrenacecoin.sol\":25908:25912  true */\n      0x01\n        /* \"Tokenrenacecoin/tokenrenacecoin.sol\":25901:25912  return true */\n      swap1\n      pop\n        /* \"Tokenrenacecoin/tokenrenacecoin.sol\":25753:25920  function approve(address spender, uint256 amount) public virtual override returns (bool) {\r... */\n      swap3\n      swap2\n      pop\n      pop\n      jump\t// out\n        /* \"Tokenrenacecoin/tokenrenacecoin.sol\":25170:25270  function totalSupply() public view override returns (uint256) {\r... */\n    tag_35:\n        /* \"Tokenrenacecoin/tokenrenacecoin.sol\":25223:25230  uint256 */\n      0x00\n        /* \"Tokenrenacecoin/tokenrenacecoin.sol\":25250:25262  _totalSupply */\n      sload(0x02)\n        /* \"Tokenrenacecoin/tokenrenacecoin.sol\":25243:25262  return _totalSupply */\n      swap1\n      pop\n        /* \"Tokenrenacecoin/tokenrenacecoin.sol\":25170:25270  function totalSupply() public view override returns (uint256) {\r... */\n      swap1\n      jump\t// out\n        /* \"Tokenrenacecoin/tokenrenacecoin.sol\":25928:26245  function transferFrom(address sender, address recipient, uint256 amount) public virtual override returns (bool) {\r... */\n    tag_38:\n        /* \"Tokenrenacecoin/tokenrenacecoin.sol\":26034:26038  bool */\n      0x00\n        /* \"Tokenrenacecoin/tokenrenacecoin.sol\":26051:26087  _transfer(sender, recipient, amount) */\n      tag_94\n        /* \"Tokenrenacecoin/tokenrenacecoin.sol\":26061:26067  sender */\n      dup5\n        /* \"Tokenrenacecoin/tokenrenacecoin.sol\":26069:26078  recipient */\n      dup5\n        /* \"Tokenrenacecoin/tokenrenacecoin.sol\":26080:26086  amount */\n      dup5\n        /* \"Tokenrenacecoin/tokenrenacecoin.sol\":26051:26060  _transfer */\n      tag_95\n        /* \"Tokenrenacecoin/tokenrenacecoin.sol\":26051:26087  _transfer(sender, recipient, amount) */\n      jump\t// in\n    tag_94:\n        /* \"Tokenrenacecoin/tokenrenacecoin.sol\":26098:26215  _approve(sender, msg.sender, _allowances[sender][msg.sender].sub(amount, \"ERC20: transfer amount exceeds allowance\")) */\n      tag_96\n        /* \"Tokenrenacecoin/tokenrenacecoin.sol\":26107:26113  sender */\n      dup5\n        /* \"Tokenrenacecoin/tokenrenacecoin.sol\":26115:26125  msg.sender */\n      caller\n        /* \"Tokenrenacecoin/tokenrenacecoin.sol\":26127:26214  _allowances[sender][msg.sender].sub(amount, \"ERC20: transfer amount exceeds allowance\") */\n      tag_97\n        /* \"Tokenrenacecoin/tokenrenacecoin.sol\":26163:26169  amount */\n      dup6\n        /* \"Tokenrenacecoin/tokenrenacecoin.sol\":26127:26214  _allowances[sender][msg.sender].sub(amount, \"ERC20: transfer amount exceeds allowance\") */\n      mload(0x40)\n      dup1\n      0x60\n      add\n      0x40\n      mstore\n      dup1\n      0x28\n      dup2\n      mstore\n      0x20\n      add\n      data_974d1b4421da69cc60b481194f0dad36a5bb4e23da810da7a7fb30cdba178330\n      0x28\n      swap2\n      codecopy\n        /* \"Tokenrenacecoin/tokenrenacecoin.sol\":26127:26138  _allowances */\n      0x01\n        /* \"Tokenrenacecoin/tokenrenacecoin.sol\":26127:26146  _allowances[sender] */\n      0x00\n        /* \"Tokenrenacecoin/tokenrenacecoin.sol\":26139:26145  sender */\n      dup12\n        /* \"Tokenrenacecoin/tokenrenacecoin.sol\":26127:26146  _allowances[sender] */\n      0xffffffffffffffffffffffffffffffffffffffff\n      and\n      0xffffffffffffffffffffffffffffffffffffffff\n      and\n      dup2\n      mstore\n      0x20\n      add\n      swap1\n      dup2\n      mstore\n      0x20\n      add\n      0x00\n      keccak256\n        /* \"Tokenrenacecoin/tokenrenacecoin.sol\":26127:26158  _allowances[sender][msg.sender] */\n      0x00\n        /* \"Tokenrenacecoin/tokenrenacecoin.sol\":26147:26157  msg.sender */\n      caller\n        /* \"Tokenrenacecoin/tokenrenacecoin.sol\":26127:26158  _allowances[sender][msg.sender] */\n      0xffffffffffffffffffffffffffffffffffffffff\n      and\n      0xffffffffffffffffffffffffffffffffffffffff\n      and\n      dup2\n      mstore\n      0x20\n      add\n      swap1\n      dup2\n      mstore\n      0x20\n      add\n      0x00\n      keccak256\n      sload\n        /* \"Tokenrenacecoin/tokenrenacecoin.sol\":26127:26162  _allowances[sender][msg.sender].sub */\n      tag_98\n      swap1\n        /* \"Tokenrenacecoin/tokenrenacecoin.sol\":26127:26214  _allowances[sender][msg.sender].sub(amount, \"ERC20: transfer amount exceeds allowance\") */\n      swap3\n      swap2\n      swap1\n      0xffffffff\n      and\n      jump\t// in\n    tag_97:\n        /* \"Tokenrenacecoin/tokenrenacecoin.sol\":26098:26106  _approve */\n      tag_91\n        /* \"Tokenrenacecoin/tokenrenacecoin.sol\":26098:26215  _approve(sender, msg.sender, _allowances[sender][msg.sender].sub(amount, \"ERC20: transfer amount exceeds allowance\")) */\n      jump\t// in\n    tag_96:\n        /* \"Tokenrenacecoin/tokenrenacecoin.sol\":26233:26237  true */\n      0x01\n        /* \"Tokenrenacecoin/tokenrenacecoin.sol\":26226:26237  return true */\n      swap1\n      pop\n        /* \"Tokenrenacecoin/tokenrenacecoin.sol\":25928:26245  function transferFrom(address sender, address recipient, uint256 amount) public virtual override returns (bool) {\r... */\n      swap4\n      swap3\n      pop\n      pop\n      pop\n      jump\t// out\n        /* \"Tokenrenacecoin/tokenrenacecoin.sol\":25071:25162  function decimals() public view virtual returns (uint8) {\r... */\n    tag_40:\n        /* \"Tokenrenacecoin/tokenrenacecoin.sol\":25120:25125  uint8 */\n      0x00\n        /* \"Tokenrenacecoin/tokenrenacecoin.sol\":25145:25154  _decimals */\n      immutable(\"0x69bb780f07d68a8f9bd72ed7c0eb217fbfcf23cce950b57f4cc31ee126c912a8\")\n        /* \"Tokenrenacecoin/tokenrenacecoin.sol\":25138:25154  return _decimals */\n      swap1\n      pop\n        /* \"Tokenrenacecoin/tokenrenacecoin.sol\":25071:25162  function decimals() public view virtual returns (uint8) {\r... */\n      swap1\n      jump\t// out\n        /* \"Tokenrenacecoin/tokenrenacecoin.sol\":30853:30968  function DOMAIN_SEPARATOR() external view override returns (bytes32) {\r... */\n    tag_42:\n        /* \"Tokenrenacecoin/tokenrenacecoin.sol\":30913:30920  bytes32 */\n      0x00\n        /* \"Tokenrenacecoin/tokenrenacecoin.sol\":30940:30960  _domainSeparatorV4() */\n      tag_101\n        /* \"Tokenrenacecoin/tokenrenacecoin.sol\":30940:30958  _domainSeparatorV4 */\n      tag_102\n        /* \"Tokenrenacecoin/tokenrenacecoin.sol\":30940:30960  _domainSeparatorV4() */\n      jump\t// in\n    tag_101:\n        /* \"Tokenrenacecoin/tokenrenacecoin.sol\":30933:30960  return _domainSeparatorV4() */\n      swap1\n      pop\n        /* \"Tokenrenacecoin/tokenrenacecoin.sol\":30853:30968  function DOMAIN_SEPARATOR() external view override returns (bytes32) {\r... */\n      swap1\n      jump\t// out\n        /* \"Tokenrenacecoin/tokenrenacecoin.sol\":26253:26467  function increaseAllowance(address spender, uint256 addedValue) public virtual returns (bool) {\r... */\n    tag_45:\n        /* \"Tokenrenacecoin/tokenrenacecoin.sol\":26341:26345  bool */\n      0x00\n        /* \"Tokenrenacecoin/tokenrenacecoin.sol\":26358:26437  _approve(msg.sender, spender, _allowances[msg.sender][spender].add(addedValue)) */\n      tag_104\n        /* \"Tokenrenacecoin/tokenrenacecoin.sol\":26367:26377  msg.sender */\n      caller\n        /* \"Tokenrenacecoin/tokenrenacecoin.sol\":26379:26386  spender */\n      dup5\n        /* \"Tokenrenacecoin/tokenrenacecoin.sol\":26388:26436  _allowances[msg.sender][spender].add(addedValue) */\n      tag_105\n        /* \"Tokenrenacecoin/tokenrenacecoin.sol\":26425:26435  addedValue */\n      dup6\n        /* \"Tokenrenacecoin/tokenrenacecoin.sol\":26388:26399  _allowances */\n      0x01\n        /* \"Tokenrenacecoin/tokenrenacecoin.sol\":26388:26411  _allowances[msg.sender] */\n      0x00\n        /* \"Tokenrenacecoin/tokenrenacecoin.sol\":26400:26410  msg.sender */\n      caller\n        /* \"Tokenrenacecoin/tokenrenacecoin.sol\":26388:26411  _allowances[msg.sender] */\n      0xffffffffffffffffffffffffffffffffffffffff\n      and\n      0xffffffffffffffffffffffffffffffffffffffff\n      and\n      dup2\n      mstore\n      0x20\n      add\n      swap1\n      dup2\n      mstore\n      0x20\n      add\n      0x00\n      keccak256\n        /* \"Tokenrenacecoin/tokenrenacecoin.sol\":26388:26420  _allowances[msg.sender][spender] */\n      0x00\n        /* \"Tokenrenacecoin/tokenrenacecoin.sol\":26412:26419  spender */\n      dup10\n        /* \"Tokenrenacecoin/tokenrenacecoin.sol\":26388:26420  _allowances[msg.sender][spender] */\n      0xffffffffffffffffffffffffffffffffffffffff\n      and\n      0xffffffffffffffffffffffffffffffffffffffff\n      and\n      dup2\n      mstore\n      0x20\n      add\n      swap1\n      dup2\n      mstore\n      0x20\n      add\n      0x00\n      keccak256\n      sload\n        /* \"Tokenrenacecoin/tokenrenacecoin.sol\":26388:26424  _allowances[msg.sender][spender].add */\n      tag_84\n      swap1\n        /* \"Tokenrenacecoin/tokenrenacecoin.sol\":26388:26436  _allowances[msg.sender][spender].add(addedValue) */\n      swap2\n      swap1\n      0xffffffff\n      and\n      jump\t// in\n    tag_105:\n        /* \"Tokenrenacecoin/tokenrenacecoin.sol\":26358:26366  _approve */\n      tag_91\n        /* \"Tokenrenacecoin/tokenrenacecoin.sol\":26358:26437  _approve(msg.sender, spender, _allowances[msg.sender][spender].add(addedValue)) */\n      jump\t// in\n    tag_104:\n        /* \"Tokenrenacecoin/tokenrenacecoin.sol\":26455:26459  true */\n      0x01\n        /* \"Tokenrenacecoin/tokenrenacecoin.sol\":26448:26459  return true */\n      swap1\n      pop\n        /* \"Tokenrenacecoin/tokenrenacecoin.sol\":26253:26467  function increaseAllowance(address spender, uint256 addedValue) public virtual returns (bool) {\r... */\n      swap3\n      swap2\n      pop\n      pop\n      jump\t// out\n        /* \"Tokenrenacecoin/tokenrenacecoin.sol\":31742:31862  function mint(address account_, uint256 amount_) external override onlyVault {\r... */\n    tag_48:\n        /* \"Tokenrenacecoin/tokenrenacecoin.sol\":2438:2447  authority */\n      0x07\n      0x00\n      swap1\n      sload\n      swap1\n      0x0100\n      exp\n      swap1\n      div\n      0xffffffffffffffffffffffffffffffffffffffff\n      and\n        /* \"Tokenrenacecoin/tokenrenacecoin.sol\":2438:2453  authority.vault */\n      0xffffffffffffffffffffffffffffffffffffffff\n      and\n      0xfbfa77cf\n        /* \"Tokenrenacecoin/tokenrenacecoin.sol\":2438:2455  authority.vault() */\n      mload(0x40)\n      dup2\n      0xffffffff\n      and\n      0xe0\n      shl\n      dup2\n      mstore\n      0x04\n      add\n      0x20\n      mload(0x40)\n      dup1\n      dup4\n      sub\n      dup2\n      dup7\n      dup1\n      extcodesize\n      iszero\n      dup1\n      iszero\n      tag_107\n      jumpi\n      0x00\n      dup1\n      revert\n    tag_107:\n      pop\n      gas\n      staticcall\n      iszero\n      dup1\n      iszero\n      tag_109\n      jumpi\n      returndatasize\n      0x00\n      dup1\n      returndatacopy\n      revert(0x00, returndatasize)\n    tag_109:\n      pop\n      pop\n      pop\n      pop\n      mload(0x40)\n      returndatasize\n      0x20\n      dup2\n      lt\n      iszero\n      tag_110\n      jumpi\n      0x00\n      dup1\n      revert\n    tag_110:\n      dup2\n      add\n      swap1\n      dup1\n      dup1\n      mload\n      swap1\n      0x20\n      add\n      swap1\n      swap3\n      swap2\n      swap1\n      pop\n      pop\n      pop\n        /* \"Tokenrenacecoin/tokenrenacecoin.sol\":2424:2455  msg.sender == authority.vault() */\n      0xffffffffffffffffffffffffffffffffffffffff\n      and\n        /* \"Tokenrenacecoin/tokenrenacecoin.sol\":2424:2434  msg.sender */\n      caller\n        /* \"Tokenrenacecoin/tokenrenacecoin.sol\":2424:2455  msg.sender == authority.vault() */\n      0xffffffffffffffffffffffffffffffffffffffff\n      and\n      eq\n        /* \"Tokenrenacecoin/tokenrenacecoin.sol\":2457:2469  UNAUTHORIZED */\n      0x06\n        /* \"Tokenrenacecoin/tokenrenacecoin.sol\":2416:2470  require(msg.sender == authority.vault(), UNAUTHORIZED) */\n      swap1\n      tag_111\n      jumpi\n      mload(0x40)\n      0x08c379a000000000000000000000000000000000000000000000000000000000\n      dup2\n      mstore\n      0x04\n      add\n      dup1\n      dup1\n      0x20\n      add\n      dup3\n      dup2\n      sub\n      dup3\n      mstore\n      dup4\n      dup2\n      dup2\n      sload\n      0x01\n      dup2\n      0x01\n      and\n      iszero\n      0x0100\n      mul\n      sub\n      and\n      0x02\n      swap1\n      div\n      dup2\n      mstore\n      0x20\n      add\n      swap2\n      pop\n      dup1\n      sload\n      0x01\n      dup2\n      0x01\n      and\n      iszero\n      0x0100\n      mul\n      sub\n      and\n      0x02\n      swap1\n      div\n      dup1\n      iszero\n      tag_112\n      jumpi\n      dup1\n      0x1f\n      lt\n      tag_113\n      jumpi\n      0x0100\n      dup1\n      dup4\n      sload\n      div\n      mul\n      dup4\n      mstore\n      swap2\n      0x20\n      add\n      swap2\n      jump(tag_112)\n    tag_113:\n      dup3\n      add\n      swap2\n      swap1\n      0x00\n      mstore\n      keccak256(0x00, 0x20)\n      swap1\n    tag_114:\n      dup2\n      sload\n      dup2\n      mstore\n      swap1\n      0x01\n      add\n      swap1\n      0x20\n      add\n      dup1\n      dup4\n      gt\n      tag_114\n      jumpi\n      dup3\n      swap1\n      sub\n      0x1f\n      and\n      dup3\n      add\n      swap2\n    tag_112:\n      pop\n      pop\n      swap3\n      pop\n      pop\n      pop\n      mload(0x40)\n      dup1\n      swap2\n      sub\n      swap1\n      revert\n    tag_111:\n      pop\n        /* \"Tokenrenacecoin/tokenrenacecoin.sol\":31830:31854  _mint(account_, amount_) */\n      tag_116\n        /* \"Tokenrenacecoin/tokenrenacecoin.sol\":31836:31844  account_ */\n      dup3\n        /* \"Tokenrenacecoin/tokenrenacecoin.sol\":31846:31853  amount_ */\n      dup3\n        /* \"Tokenrenacecoin/tokenrenacecoin.sol\":31830:31835  _mint */\n      tag_117\n        /* \"Tokenrenacecoin/tokenrenacecoin.sol\":31830:31854  _mint(account_, amount_) */\n      jump\t// in\n    tag_116:\n        /* \"Tokenrenacecoin/tokenrenacecoin.sol\":31742:31862  function mint(address account_, uint256 amount_) external override onlyVault {\r... */\n      pop\n      pop\n      jump\t// out\n        /* \"Tokenrenacecoin/tokenrenacecoin.sol\":31870:31962  function burn(uint256 amount) external override {\r... */\n    tag_51:\n        /* \"Tokenrenacecoin/tokenrenacecoin.sol\":31929:31954  _burn(msg.sender, amount) */\n      tag_119\n        /* \"Tokenrenacecoin/tokenrenacecoin.sol\":31935:31945  msg.sender */\n      caller\n        /* \"Tokenrenacecoin/tokenrenacecoin.sol\":31947:31953  amount */\n      dup3\n        /* \"Tokenrenacecoin/tokenrenacecoin.sol\":31929:31934  _burn */\n      tag_120\n        /* \"Tokenrenacecoin/tokenrenacecoin.sol\":31929:31954  _burn(msg.sender, amount) */\n      jump\t// in\n    tag_119:\n        /* \"Tokenrenacecoin/tokenrenacecoin.sol\":31870:31962  function burn(uint256 amount) external override {\r... */\n      pop\n      jump\t// out\n        /* \"Tokenrenacecoin/tokenrenacecoin.sol\":25278:25405  function balanceOf(address account) public view virtual override returns (uint256) {\r... */\n    tag_54:\n        /* \"Tokenrenacecoin/tokenrenacecoin.sol\":25352:25359  uint256 */\n      0x00\n        /* \"Tokenrenacecoin/tokenrenacecoin.sol\":25379:25388  _balances */\n      dup1\n        /* \"Tokenrenacecoin/tokenrenacecoin.sol\":25379:25397  _balances[account] */\n      0x00\n        /* \"Tokenrenacecoin/tokenrenacecoin.sol\":25389:25396  account */\n      dup4\n        /* \"Tokenrenacecoin/tokenrenacecoin.sol\":25379:25397  _balances[account] */\n      0xffffffffffffffffffffffffffffffffffffffff\n      and\n      0xffffffffffffffffffffffffffffffffffffffff\n      and\n      dup2\n      mstore\n      0x20\n      add\n      swap1\n      dup2\n      mstore\n      0x20\n      add\n      0x00\n      keccak256\n      sload\n        /* \"Tokenrenacecoin/tokenrenacecoin.sol\":25372:25397  return _balances[account] */\n      swap1\n      pop\n        /* \"Tokenrenacecoin/tokenrenacecoin.sol\":25278:25405  function balanceOf(address account) public view virtual override returns (uint256) {\r... */\n      swap2\n      swap1\n      pop\n      jump\t// out\n        /* \"Tokenrenacecoin/tokenrenacecoin.sol\":31970:32088  function burnFrom(address account_, uint256 amount_) external override {\r... */\n    tag_57:\n        /* \"Tokenrenacecoin/tokenrenacecoin.sol\":32052:32080  _burnFrom(account_, amount_) */\n      tag_123\n        /* \"Tokenrenacecoin/tokenrenacecoin.sol\":32062:32070  account_ */\n      dup3\n        /* \"Tokenrenacecoin/tokenrenacecoin.sol\":32072:32079  amount_ */\n      dup3\n        /* \"Tokenrenacecoin/tokenrenacecoin.sol\":32052:32061  _burnFrom */\n      tag_124\n        /* \"Tokenrenacecoin/tokenrenacecoin.sol\":32052:32080  _burnFrom(account_, amount_) */\n      jump\t// in\n    tag_123:\n        /* \"Tokenrenacecoin/tokenrenacecoin.sol\":31970:32088  function burnFrom(address account_, uint256 amount_) external override {\r... */\n      pop\n      pop\n      jump\t// out\n        /* \"Tokenrenacecoin/tokenrenacecoin.sol\":2542:2710  function setAuthority(IOlympusAuthority _newAuthority) external onlyGovernor {\r... */\n    tag_60:\n        /* \"Tokenrenacecoin/tokenrenacecoin.sol\":2085:2094  authority */\n      0x07\n      0x00\n      swap1\n      sload\n      swap1\n      0x0100\n      exp\n      swap1\n      div\n      0xffffffffffffffffffffffffffffffffffffffff\n      and\n        /* \"Tokenrenacecoin/tokenrenacecoin.sol\":2085:2103  authority.governor */\n      0xffffffffffffffffffffffffffffffffffffffff\n      and\n      0x0c340a24\n        /* \"Tokenrenacecoin/tokenrenacecoin.sol\":2085:2105  authority.governor() */\n      mload(0x40)\n      dup2\n      0xffffffff\n      and\n      0xe0\n      shl\n      dup2\n      mstore\n      0x04\n      add\n      0x20\n      mload(0x40)\n      dup1\n      dup4\n      sub\n      dup2\n      dup7\n      dup1\n      extcodesize\n      iszero\n      dup1\n      iszero\n      tag_126\n      jumpi\n      0x00\n      dup1\n      revert\n    tag_126:\n      pop\n      gas\n      staticcall\n      iszero\n      dup1\n      iszero\n      tag_128\n      jumpi\n      returndatasize\n      0x00\n      dup1\n      returndatacopy\n      revert(0x00, returndatasize)\n    tag_128:\n      pop\n      pop\n      pop\n      pop\n      mload(0x40)\n      returndatasize\n      0x20\n      dup2\n      lt\n      iszero\n      tag_129\n      jumpi\n      0x00\n      dup1\n      revert\n    tag_129:\n      dup2\n      add\n      swap1\n      dup1\n      dup1\n      mload\n      swap1\n      0x20\n      add\n      swap1\n      swap3\n      swap2\n      swap1\n      pop\n      pop\n      pop\n        /* \"Tokenrenacecoin/tokenrenacecoin.sol\":2071:2105  msg.sender == authority.governor() */\n      0xffffffffffffffffffffffffffffffffffffffff\n      and\n        /* \"Tokenrenacecoin/tokenrenacecoin.sol\":2071:2081  msg.sender */\n      caller\n        /* \"Tokenrenacecoin/tokenrenacecoin.sol\":2071:2105  msg.sender == authority.governor() */\n      0xffffffffffffffffffffffffffffffffffffffff\n      and\n      eq\n        /* \"Tokenrenacecoin/tokenrenacecoin.sol\":2107:2119  UNAUTHORIZED */\n      0x06\n        /* \"Tokenrenacecoin/tokenrenacecoin.sol\":2063:2120  require(msg.sender == authority.governor(), UNAUTHORIZED) */\n      swap1\n      tag_130\n      jumpi\n      mload(0x40)\n      0x08c379a000000000000000000000000000000000000000000000000000000000\n      dup2\n      mstore\n      0x04\n      add\n      dup1\n      dup1\n      0x20\n      add\n      dup3\n      dup2\n      sub\n      dup3\n      mstore\n      dup4\n      dup2\n      dup2\n      sload\n      0x01\n      dup2\n      0x01\n      and\n      iszero\n      0x0100\n      mul\n      sub\n      and\n      0x02\n      swap1\n      div\n      dup2\n      mstore\n      0x20\n      add\n      swap2\n      pop\n      dup1\n      sload\n      0x01\n      dup2\n      0x01\n      and\n      iszero\n      0x0100\n      mul\n      sub\n      and\n      0x02\n      swap1\n      div\n      dup1\n      iszero\n      tag_131\n      jumpi\n      dup1\n      0x1f\n      lt\n      tag_132\n      jumpi\n      0x0100\n      dup1\n      dup4\n      sload\n      div\n      mul\n      dup4\n      mstore\n      swap2\n      0x20\n      add\n      swap2\n      jump(tag_131)\n    tag_132:\n      dup3\n      add\n      swap2\n      swap1\n      0x00\n      mstore\n      keccak256(0x00, 0x20)\n      swap1\n    tag_133:\n      dup2\n      sload\n      dup2\n      mstore\n      swap1\n      0x01\n      add\n      swap1\n      0x20\n      add\n      dup1\n      dup4\n      gt\n      tag_133\n      jumpi\n      dup3\n      swap1\n      sub\n      0x1f\n      and\n      dup3\n      add\n      swap2\n    tag_131:\n      pop\n      pop\n      swap3\n      pop\n      pop\n      pop\n      mload(0x40)\n      dup1\n      swap2\n      sub\n      swap1\n      revert\n    tag_130:\n      pop\n        /* \"Tokenrenacecoin/tokenrenacecoin.sol\":2642:2655  _newAuthority */\n      dup1\n        /* \"Tokenrenacecoin/tokenrenacecoin.sol\":2630:2639  authority */\n      0x07\n      0x00\n        /* \"Tokenrenacecoin/tokenrenacecoin.sol\":2630:2655  authority = _newAuthority */\n      0x0100\n      exp\n      dup2\n      sload\n      dup2\n      0xffffffffffffffffffffffffffffffffffffffff\n      mul\n      not\n      and\n      swap1\n      dup4\n      0xffffffffffffffffffffffffffffffffffffffff\n      and\n      mul\n      or\n      swap1\n      sstore\n      pop\n        /* \"Tokenrenacecoin/tokenrenacecoin.sol\":2688:2701  _newAuthority */\n      dup1\n        /* \"Tokenrenacecoin/tokenrenacecoin.sol\":2671:2702  AuthorityUpdated(_newAuthority) */\n      0xffffffffffffffffffffffffffffffffffffffff\n      and\n      0x2f658b440c35314f52658ea8a740e05b284cdc84dc9ae01e891f21b8933e7cad\n      mload(0x40)\n      mload(0x40)\n      dup1\n      swap2\n      sub\n      swap1\n      log2\n        /* \"Tokenrenacecoin/tokenrenacecoin.sol\":2542:2710  function setAuthority(IOlympusAuthority _newAuthority) external onlyGovernor {\r... */\n      pop\n      jump\t// out\n        /* \"Tokenrenacecoin/tokenrenacecoin.sol\":30595:30723  function nonces(address owner) public view virtual override returns (uint256) {\r... */\n    tag_63:\n        /* \"Tokenrenacecoin/tokenrenacecoin.sol\":30664:30671  uint256 */\n      0x00\n        /* \"Tokenrenacecoin/tokenrenacecoin.sol\":30691:30715  _nonces[owner].current() */\n      tag_136\n        /* \"Tokenrenacecoin/tokenrenacecoin.sol\":30691:30698  _nonces */\n      0x05\n        /* \"Tokenrenacecoin/tokenrenacecoin.sol\":30691:30705  _nonces[owner] */\n      0x00\n        /* \"Tokenrenacecoin/tokenrenacecoin.sol\":30699:30704  owner */\n      dup5\n        /* \"Tokenrenacecoin/tokenrenacecoin.sol\":30691:30705  _nonces[owner] */\n      0xffffffffffffffffffffffffffffffffffffffff\n      and\n      0xffffffffffffffffffffffffffffffffffffffff\n      and\n      dup2\n      mstore\n      0x20\n      add\n      swap1\n      dup2\n      mstore\n      0x20\n      add\n      0x00\n      keccak256\n        /* \"Tokenrenacecoin/tokenrenacecoin.sol\":30691:30713  _nonces[owner].current */\n      tag_137\n        /* \"Tokenrenacecoin/tokenrenacecoin.sol\":30691:30715  _nonces[owner].current() */\n      jump\t// in\n    tag_136:\n        /* \"Tokenrenacecoin/tokenrenacecoin.sol\":30684:30715  return _nonces[owner].current() */\n      swap1\n      pop\n        /* \"Tokenrenacecoin/tokenrenacecoin.sol\":30595:30723  function nonces(address owner) public view virtual override returns (uint256) {\r... */\n      swap2\n      swap1\n      pop\n      jump\t// out\n        /* \"Tokenrenacecoin/tokenrenacecoin.sol\":24976:25063  function symbol() public view returns (string memory) {\r... */\n    tag_65:\n        /* \"Tokenrenacecoin/tokenrenacecoin.sol\":25015:25028  string memory */\n      0x60\n        /* \"Tokenrenacecoin/tokenrenacecoin.sol\":25048:25055  _symbol */\n      0x04\n        /* \"Tokenrenacecoin/tokenrenacecoin.sol\":25041:25055  return _symbol */\n      dup1\n      sload\n      0x01\n      dup2\n      0x01\n      and\n      iszero\n      0x0100\n      mul\n      sub\n      and\n      0x02\n      swap1\n      div\n      dup1\n      0x1f\n      add\n      0x20\n      dup1\n      swap2\n      div\n      mul\n      0x20\n      add\n      mload(0x40)\n      swap1\n      dup2\n      add\n      0x40\n      mstore\n      dup1\n      swap3\n      swap2\n      swap1\n      dup2\n      dup2\n      mstore\n      0x20\n      add\n      dup3\n      dup1\n      sload\n      0x01\n      dup2\n      0x01\n      and\n      iszero\n      0x0100\n      mul\n      sub\n      and\n      0x02\n      swap1\n      div\n      dup1\n      iszero\n      tag_139\n      jumpi\n      dup1\n      0x1f\n      lt\n      tag_140\n      jumpi\n      0x0100\n      dup1\n      dup4\n      sload\n      div\n      mul\n      dup4\n      mstore\n      swap2\n      0x20\n      add\n      swap2\n      jump(tag_139)\n    tag_140:\n      dup3\n      add\n      swap2\n      swap1\n      0x00\n      mstore\n      keccak256(0x00, 0x20)\n      swap1\n    tag_141:\n      dup2\n      sload\n      dup2\n      mstore\n      swap1\n      0x01\n      add\n      swap1\n      0x20\n      add\n      dup1\n      dup4\n      gt\n      tag_141\n      jumpi\n      dup3\n      swap1\n      sub\n      0x1f\n      and\n      dup3\n      add\n      swap2\n    tag_139:\n      pop\n      pop\n      pop\n      pop\n      pop\n      swap1\n      pop\n        /* \"Tokenrenacecoin/tokenrenacecoin.sol\":24976:25063  function symbol() public view returns (string memory) {\r... */\n      swap1\n      jump\t// out\n        /* \"Tokenrenacecoin/tokenrenacecoin.sol\":26475:26740  function decreaseAllowance(address spender, uint256 subtractedValue) public virtual returns (bool) {\r... */\n    tag_72:\n        /* \"Tokenrenacecoin/tokenrenacecoin.sol\":26568:26572  bool */\n      0x00\n        /* \"Tokenrenacecoin/tokenrenacecoin.sol\":26585:26710  _approve(msg.sender, spender, _allowances[msg.sender][spender].sub(subtractedValue, \"ERC20: decreased allowance below zero\")) */\n      tag_143\n        /* \"Tokenrenacecoin/tokenrenacecoin.sol\":26594:26604  msg.sender */\n      caller\n        /* \"Tokenrenacecoin/tokenrenacecoin.sol\":26606:26613  spender */\n      dup5\n        /* \"Tokenrenacecoin/tokenrenacecoin.sol\":26615:26709  _allowances[msg.sender][spender].sub(subtractedValue, \"ERC20: decreased allowance below zero\") */\n      tag_144\n        /* \"Tokenrenacecoin/tokenrenacecoin.sol\":26652:26667  subtractedValue */\n      dup6\n        /* \"Tokenrenacecoin/tokenrenacecoin.sol\":26615:26709  _allowances[msg.sender][spender].sub(subtractedValue, \"ERC20: decreased allowance below zero\") */\n      mload(0x40)\n      dup1\n      0x60\n      add\n      0x40\n      mstore\n      dup1\n      0x25\n      dup2\n      mstore\n      0x20\n      add\n      data_f8b476f7d28209d77d4a4ac1fe36b9f8259aa1bb6bddfa6e89de7e51615cf8a8\n      0x25\n      swap2\n      codecopy\n        /* \"Tokenrenacecoin/tokenrenacecoin.sol\":26615:26626  _allowances */\n      0x01\n        /* \"Tokenrenacecoin/tokenrenacecoin.sol\":26615:26638  _allowances[msg.sender] */\n      0x00\n        /* \"Tokenrenacecoin/tokenrenacecoin.sol\":26627:26637  msg.sender */\n      caller\n        /* \"Tokenrenacecoin/tokenrenacecoin.sol\":26615:26638  _allowances[msg.sender] */\n      0xffffffffffffffffffffffffffffffffffffffff\n      and\n      0xffffffffffffffffffffffffffffffffffffffff\n      and\n      dup2\n      mstore\n      0x20\n      add\n      swap1\n      dup2\n      mstore\n      0x20\n      add\n      0x00\n      keccak256\n        /* \"Tokenrenacecoin/tokenrenacecoin.sol\":26615:26647  _allowances[msg.sender][spender] */\n      0x00\n        /* \"Tokenrenacecoin/tokenrenacecoin.sol\":26639:26646  spender */\n      dup11\n        /* \"Tokenrenacecoin/tokenrenacecoin.sol\":26615:26647  _allowances[msg.sender][spender] */\n      0xffffffffffffffffffffffffffffffffffffffff\n      and\n      0xffffffffffffffffffffffffffffffffffffffff\n      and\n      dup2\n      mstore\n      0x20\n      add\n      swap1\n      dup2\n      mstore\n      0x20\n      add\n      0x00\n      keccak256\n      sload\n        /* \"Tokenrenacecoin/tokenrenacecoin.sol\":26615:26651  _allowances[msg.sender][spender].sub */\n      tag_98\n      swap1\n        /* \"Tokenrenacecoin/tokenrenacecoin.sol\":26615:26709  _allowances[msg.sender][spender].sub(subtractedValue, \"ERC20: decreased allowance below zero\") */\n      swap3\n      swap2\n      swap1\n      0xffffffff\n      and\n      jump\t// in\n    tag_144:\n        /* \"Tokenrenacecoin/tokenrenacecoin.sol\":26585:26593  _approve */\n      tag_91\n        /* \"Tokenrenacecoin/tokenrenacecoin.sol\":26585:26710  _approve(msg.sender, spender, _allowances[msg.sender][spender].sub(subtractedValue, \"ERC20: decreased allowance below zero\")) */\n      jump\t// in\n    tag_143:\n        /* \"Tokenrenacecoin/tokenrenacecoin.sol\":26728:26732  true */\n      0x01\n        /* \"Tokenrenacecoin/tokenrenacecoin.sol\":26721:26732  return true */\n      swap1\n      pop\n        /* \"Tokenrenacecoin/tokenrenacecoin.sol\":26475:26740  function decreaseAllowance(address spender, uint256 subtractedValue) public virtual returns (bool) {\r... */\n      swap3\n      swap2\n      pop\n      pop\n      jump\t// out\n        /* \"Tokenrenacecoin/tokenrenacecoin.sol\":25413:25586  function transfer(address recipient, uint256 amount) public virtual override returns (bool) {\r... */\n    tag_75:\n        /* \"Tokenrenacecoin/tokenrenacecoin.sol\":25499:25503  bool */\n      0x00\n        /* \"Tokenrenacecoin/tokenrenacecoin.sol\":25516:25556  _transfer(msg.sender, recipient, amount) */\n      tag_146\n        /* \"Tokenrenacecoin/tokenrenacecoin.sol\":25526:25536  msg.sender */\n      caller\n        /* \"Tokenrenacecoin/tokenrenacecoin.sol\":25538:25547  recipient */\n      dup5\n        /* \"Tokenrenacecoin/tokenrenacecoin.sol\":25549:25555  amount */\n      dup5\n        /* \"Tokenrenacecoin/tokenrenacecoin.sol\":25516:25525  _transfer */\n      tag_95\n        /* \"Tokenrenacecoin/tokenrenacecoin.sol\":25516:25556  _transfer(msg.sender, recipient, amount) */\n      jump\t// in\n    tag_146:\n        /* \"Tokenrenacecoin/tokenrenacecoin.sol\":25574:25578  true */\n      0x01\n        /* \"Tokenrenacecoin/tokenrenacecoin.sol\":25567:25578  return true */\n      swap1\n      pop\n        /* \"Tokenrenacecoin/tokenrenacecoin.sol\":25413:25586  function transfer(address recipient, uint256 amount) public virtual override returns (bool) {\r... */\n      swap3\n      swap2\n      pop\n      pop\n      jump\t// out\n        /* \"Tokenrenacecoin/tokenrenacecoin.sol\":1754:1788  IOlympusAuthority public authority */\n    tag_77:\n      0x07\n      0x00\n      swap1\n      sload\n      swap1\n      0x0100\n      exp\n      swap1\n      div\n      0xffffffffffffffffffffffffffffffffffffffff\n      and\n      dup2\n      jump\t// out\n        /* \"Tokenrenacecoin/tokenrenacecoin.sol\":29884:30529  function permit(\r... */\n    tag_80:\n        /* \"Tokenrenacecoin/tokenrenacecoin.sol\":30128:30136  deadline */\n      dup4\n        /* \"Tokenrenacecoin/tokenrenacecoin.sol\":30109:30124  block.timestamp */\n      timestamp\n        /* \"Tokenrenacecoin/tokenrenacecoin.sol\":30109:30136  block.timestamp <= deadline */\n      gt\n      iszero\n        /* \"Tokenrenacecoin/tokenrenacecoin.sol\":30101:30170  require(block.timestamp <= deadline, \"ERC20Permit: expired deadline\") */\n      tag_148\n      jumpi\n      mload(0x40)\n      0x08c379a000000000000000000000000000000000000000000000000000000000\n      dup2\n      mstore\n      0x04\n      add\n      dup1\n      dup1\n      0x20\n      add\n      dup3\n      dup2\n      sub\n      dup3\n      mstore\n      0x1d\n      dup2\n      mstore\n      0x20\n      add\n      dup1\n      0x45524332305065726d69743a206578706972656420646561646c696e65000000\n      dup2\n      mstore\n      pop\n      0x20\n      add\n      swap2\n      pop\n      pop\n      mload(0x40)\n      dup1\n      swap2\n      sub\n      swap1\n      revert\n    tag_148:\n        /* \"Tokenrenacecoin/tokenrenacecoin.sol\":30183:30201  bytes32 structHash */\n      0x00\n        /* \"Tokenrenacecoin/tokenrenacecoin.sol\":30225:30241  _PERMIT_TYPEHASH */\n      immutable(\"0x392c50ca5507384bea71aeaaad0c3da80670680e4a8116ffc86d5c553597399c\")\n        /* \"Tokenrenacecoin/tokenrenacecoin.sol\":30243:30248  owner */\n      dup9\n        /* \"Tokenrenacecoin/tokenrenacecoin.sol\":30250:30257  spender */\n      dup9\n        /* \"Tokenrenacecoin/tokenrenacecoin.sol\":30259:30264  value */\n      dup9\n        /* \"Tokenrenacecoin/tokenrenacecoin.sol\":30266:30282  _useNonce(owner) */\n      tag_149\n        /* \"Tokenrenacecoin/tokenrenacecoin.sol\":30276:30281  owner */\n      dup13\n        /* \"Tokenrenacecoin/tokenrenacecoin.sol\":30266:30275  _useNonce */\n      tag_150\n        /* \"Tokenrenacecoin/tokenrenacecoin.sol\":30266:30282  _useNonce(owner) */\n      jump\t// in\n    tag_149:\n        /* \"Tokenrenacecoin/tokenrenacecoin.sol\":30284:30292  deadline */\n      dup10\n        /* \"Tokenrenacecoin/tokenrenacecoin.sol\":30214:30293  abi.encode(_PERMIT_TYPEHASH, owner, spender, value, _useNonce(owner), deadline) */\n      add(0x20, mload(0x40))\n      dup1\n      dup8\n      dup2\n      mstore\n      0x20\n      add\n      dup7\n      0xffffffffffffffffffffffffffffffffffffffff\n      and\n      dup2\n      mstore\n      0x20\n      add\n      dup6\n      0xffffffffffffffffffffffffffffffffffffffff\n      and\n      dup2\n      mstore\n      0x20\n      add\n      dup5\n      dup2\n      mstore\n      0x20\n      add\n      dup4\n      dup2\n      mstore\n      0x20\n      add\n      dup3\n      dup2\n      mstore\n      0x20\n      add\n      swap7\n      pop\n      pop\n      pop\n      pop\n      pop\n      pop\n      pop\n      mload(0x40)\n      0x20\n      dup2\n      dup4\n      sub\n      sub\n      dup2\n      mstore\n      swap1\n      0x40\n      mstore\n        /* \"Tokenrenacecoin/tokenrenacecoin.sol\":30204:30294  keccak256(abi.encode(_PERMIT_TYPEHASH, owner, spender, value, _useNonce(owner), deadline)) */\n      dup1\n      mload\n      swap1\n      0x20\n      add\n      keccak256\n        /* \"Tokenrenacecoin/tokenrenacecoin.sol\":30183:30294  bytes32 structHash = keccak256(abi.encode(_PERMIT_TYPEHASH, owner, spender, value, _useNonce(owner), deadline)) */\n      swap1\n      pop\n        /* \"Tokenrenacecoin/tokenrenacecoin.sol\":30307:30319  bytes32 hash */\n      0x00\n        /* \"Tokenrenacecoin/tokenrenacecoin.sol\":30322:30350  _hashTypedDataV4(structHash) */\n      tag_151\n        /* \"Tokenrenacecoin/tokenrenacecoin.sol\":30339:30349  structHash */\n      dup3\n        /* \"Tokenrenacecoin/tokenrenacecoin.sol\":30322:30338  _hashTypedDataV4 */\n      tag_152\n        /* \"Tokenrenacecoin/tokenrenacecoin.sol\":30322:30350  _hashTypedDataV4(structHash) */\n      jump\t// in\n    tag_151:\n        /* \"Tokenrenacecoin/tokenrenacecoin.sol\":30307:30350  bytes32 hash = _hashTypedDataV4(structHash) */\n      swap1\n      pop\n        /* \"Tokenrenacecoin/tokenrenacecoin.sol\":30363:30377  address signer */\n      0x00\n        /* \"Tokenrenacecoin/tokenrenacecoin.sol\":30380:30408  ECDSA.recover(hash, v, r, s) */\n      tag_153\n        /* \"Tokenrenacecoin/tokenrenacecoin.sol\":30394:30398  hash */\n      dup3\n        /* \"Tokenrenacecoin/tokenrenacecoin.sol\":30400:30401  v */\n      dup8\n        /* \"Tokenrenacecoin/tokenrenacecoin.sol\":30403:30404  r */\n      dup8\n        /* \"Tokenrenacecoin/tokenrenacecoin.sol\":30406:30407  s */\n      dup8\n        /* \"Tokenrenacecoin/tokenrenacecoin.sol\":30380:30393  ECDSA.recover */\n      tag_154\n        /* \"Tokenrenacecoin/tokenrenacecoin.sol\":30380:30408  ECDSA.recover(hash, v, r, s) */\n      jump\t// in\n    tag_153:\n        /* \"Tokenrenacecoin/tokenrenacecoin.sol\":30363:30408  address signer = ECDSA.recover(hash, v, r, s) */\n      swap1\n      pop\n        /* \"Tokenrenacecoin/tokenrenacecoin.sol\":30437:30442  owner */\n      dup10\n        /* \"Tokenrenacecoin/tokenrenacecoin.sol\":30427:30442  signer == owner */\n      0xffffffffffffffffffffffffffffffffffffffff\n      and\n        /* \"Tokenrenacecoin/tokenrenacecoin.sol\":30427:30433  signer */\n      dup2\n        /* \"Tokenrenacecoin/tokenrenacecoin.sol\":30427:30442  signer == owner */\n      0xffffffffffffffffffffffffffffffffffffffff\n      and\n      eq\n        /* \"Tokenrenacecoin/tokenrenacecoin.sol\":30419:30477  require(signer == owner, \"ERC20Permit: invalid signature\") */\n      tag_155\n      jumpi\n      mload(0x40)\n      0x08c379a000000000000000000000000000000000000000000000000000000000\n      dup2\n      mstore\n      0x04\n      add\n      dup1\n      dup1\n      0x20\n      add\n      dup3\n      dup2\n      sub\n      dup3\n      mstore\n      0x1e\n      dup2\n      mstore\n      0x20\n      add\n      dup1\n      0x45524332305065726d69743a20696e76616c6964207369676e61747572650000\n      dup2\n      mstore\n      pop\n      0x20\n      add\n      swap2\n      pop\n      pop\n      mload(0x40)\n      dup1\n      swap2\n      sub\n      swap1\n      revert\n    tag_155:\n        /* \"Tokenrenacecoin/tokenrenacecoin.sol\":30490:30521  _approve(owner, spender, value) */\n      tag_156\n        /* \"Tokenrenacecoin/tokenrenacecoin.sol\":30499:30504  owner */\n      dup11\n        /* \"Tokenrenacecoin/tokenrenacecoin.sol\":30506:30513  spender */\n      dup11\n        /* \"Tokenrenacecoin/tokenrenacecoin.sol\":30515:30520  value */\n      dup11\n        /* \"Tokenrenacecoin/tokenrenacecoin.sol\":30490:30498  _approve */\n      tag_91\n        /* \"Tokenrenacecoin/tokenrenacecoin.sol\":30490:30521  _approve(owner, spender, value) */\n      jump\t// in\n    tag_156:\n        /* \"Tokenrenacecoin/tokenrenacecoin.sol\":29884:30529  function permit(\r... */\n      pop\n      pop\n      pop\n      pop\n      pop\n      pop\n      pop\n      pop\n      pop\n      pop\n      jump\t// out\n        /* \"Tokenrenacecoin/tokenrenacecoin.sol\":25594:25745  function allowance(address owner, address spender) public view virtual override returns (uint256) {\r... */\n    tag_83:\n        /* \"Tokenrenacecoin/tokenrenacecoin.sol\":25683:25690  uint256 */\n      0x00\n        /* \"Tokenrenacecoin/tokenrenacecoin.sol\":25710:25721  _allowances */\n      0x01\n        /* \"Tokenrenacecoin/tokenrenacecoin.sol\":25710:25728  _allowances[owner] */\n      0x00\n        /* \"Tokenrenacecoin/tokenrenacecoin.sol\":25722:25727  owner */\n      dup5\n        /* \"Tokenrenacecoin/tokenrenacecoin.sol\":25710:25728  _allowances[owner] */\n      0xffffffffffffffffffffffffffffffffffffffff\n      and\n      0xffffffffffffffffffffffffffffffffffffffff\n      and\n      dup2\n      mstore\n      0x20\n      add\n      swap1\n      dup2\n      mstore\n      0x20\n      add\n      0x00\n      keccak256\n        /* \"Tokenrenacecoin/tokenrenacecoin.sol\":25710:25737  _allowances[owner][spender] */\n      0x00\n        /* \"Tokenrenacecoin/tokenrenacecoin.sol\":25729:25736  spender */\n      dup4\n        /* \"Tokenrenacecoin/tokenrenacecoin.sol\":25710:25737  _allowances[owner][spender] */\n      0xffffffffffffffffffffffffffffffffffffffff\n      and\n      0xffffffffffffffffffffffffffffffffffffffff\n      and\n      dup2\n      mstore\n      0x20\n      add\n      swap1\n      dup2\n      mstore\n      0x20\n      add\n      0x00\n      keccak256\n      sload\n        /* \"Tokenrenacecoin/tokenrenacecoin.sol\":25703:25737  return _allowances[owner][spender] */\n      swap1\n      pop\n        /* \"Tokenrenacecoin/tokenrenacecoin.sol\":25594:25745  function allowance(address owner, address spender) public view virtual override returns (uint256) {\r... */\n      swap3\n      swap2\n      pop\n      pop\n      jump\t// out\n        /* \"Tokenrenacecoin/tokenrenacecoin.sol\":21618:21799  function add(uint256 a, uint256 b) internal pure returns (uint256) {\r... */\n    tag_84:\n        /* \"Tokenrenacecoin/tokenrenacecoin.sol\":21676:21683  uint256 */\n      0x00\n        /* \"Tokenrenacecoin/tokenrenacecoin.sol\":21696:21705  uint256 c */\n      dup1\n        /* \"Tokenrenacecoin/tokenrenacecoin.sol\":21712:21713  b */\n      dup3\n        /* \"Tokenrenacecoin/tokenrenacecoin.sol\":21708:21709  a */\n      dup5\n        /* \"Tokenrenacecoin/tokenrenacecoin.sol\":21708:21713  a + b */\n      add\n        /* \"Tokenrenacecoin/tokenrenacecoin.sol\":21696:21713  uint256 c = a + b */\n      swap1\n      pop\n        /* \"Tokenrenacecoin/tokenrenacecoin.sol\":21737:21738  a */\n      dup4\n        /* \"Tokenrenacecoin/tokenrenacecoin.sol\":21732:21733  c */\n      dup2\n        /* \"Tokenrenacecoin/tokenrenacecoin.sol\":21732:21738  c >= a */\n      lt\n      iszero\n        /* \"Tokenrenacecoin/tokenrenacecoin.sol\":21724:21770  require(c >= a, \"SafeMath: addition overflow\") */\n      tag_159\n      jumpi\n      mload(0x40)\n      0x08c379a000000000000000000000000000000000000000000000000000000000\n      dup2\n      mstore\n      0x04\n      add\n      dup1\n      dup1\n      0x20\n      add\n      dup3\n      dup2\n      sub\n      dup3\n      mstore\n      0x1b\n      dup2\n      mstore\n      0x20\n      add\n      dup1\n      0x536166654d6174683a206164646974696f6e206f766572666c6f770000000000\n      dup2\n      mstore\n      pop\n      0x20\n      add\n      swap2\n      pop\n      pop\n      mload(0x40)\n      dup1\n      swap2\n      sub\n      swap1\n      revert\n    tag_159:\n        /* \"Tokenrenacecoin/tokenrenacecoin.sol\":21790:21791  c */\n      dup1\n        /* \"Tokenrenacecoin/tokenrenacecoin.sol\":21783:21791  return c */\n      swap2\n      pop\n      pop\n        /* \"Tokenrenacecoin/tokenrenacecoin.sol\":21618:21799  function add(uint256 a, uint256 b) internal pure returns (uint256) {\r... */\n      swap3\n      swap2\n      pop\n      pop\n      jump\t// out\n        /* \"Tokenrenacecoin/tokenrenacecoin.sol\":28103:28449  function _approve(address owner, address spender, uint256 amount) internal virtual {\r... */\n    tag_91:\n        /* \"Tokenrenacecoin/tokenrenacecoin.sol\":28222:28223  0 */\n      0x00\n        /* \"Tokenrenacecoin/tokenrenacecoin.sol\":28205:28224  owner != address(0) */\n      0xffffffffffffffffffffffffffffffffffffffff\n      and\n        /* \"Tokenrenacecoin/tokenrenacecoin.sol\":28205:28210  owner */\n      dup4\n        /* \"Tokenrenacecoin/tokenrenacecoin.sol\":28205:28224  owner != address(0) */\n      0xffffffffffffffffffffffffffffffffffffffff\n      and\n      eq\n      iszero\n        /* \"Tokenrenacecoin/tokenrenacecoin.sol\":28197:28265  require(owner != address(0), \"ERC20: approve from the zero address\") */\n      tag_161\n      jumpi\n      mload(0x40)\n      0x08c379a000000000000000000000000000000000000000000000000000000000\n      dup2\n      mstore\n      0x04\n      add\n      dup1\n      dup1\n      0x20\n      add\n      dup3\n      dup2\n      sub\n      dup3\n      mstore\n      0x24\n      dup2\n      mstore\n      0x20\n      add\n      dup1\n      data_c953f4879035ed60e766b34720f656aab5c697b141d924c283124ecedb91c208\n      0x24\n      swap2\n      codecopy\n      0x40\n      add\n      swap2\n      pop\n      pop\n      mload(0x40)\n      dup1\n      swap2\n      sub\n      swap1\n      revert\n    tag_161:\n        /* \"Tokenrenacecoin/tokenrenacecoin.sol\":28303:28304  0 */\n      0x00\n        /* \"Tokenrenacecoin/tokenrenacecoin.sol\":28284:28305  spender != address(0) */\n      0xffffffffffffffffffffffffffffffffffffffff\n      and\n        /* \"Tokenrenacecoin/tokenrenacecoin.sol\":28284:28291  spender */\n      dup3\n        /* \"Tokenrenacecoin/tokenrenacecoin.sol\":28284:28305  spender != address(0) */\n      0xffffffffffffffffffffffffffffffffffffffff\n      and\n      eq\n      iszero\n        /* \"Tokenrenacecoin/tokenrenacecoin.sol\":28276:28344  require(spender != address(0), \"ERC20: approve to the zero address\") */\n      tag_162\n      jumpi\n      mload(0x40)\n      0x08c379a000000000000000000000000000000000000000000000000000000000\n      dup2\n      mstore\n      0x04\n      add\n      dup1\n      dup1\n      0x20\n      add\n      dup3\n      dup2\n      sub\n      dup3\n      mstore\n      0x22\n      dup2\n      mstore\n      0x20\n      add\n      dup1\n      data_24883cc5fe64ace9d0df1893501ecb93c77180f0ff69cca79affb3c316dc8029\n      0x22\n      swap2\n      codecopy\n      0x40\n      add\n      swap2\n      pop\n      pop\n      mload(0x40)\n      dup1\n      swap2\n      sub\n      swap1\n      revert\n    tag_162:\n        /* \"Tokenrenacecoin/tokenrenacecoin.sol\":28387:28393  amount */\n      dup1\n        /* \"Tokenrenacecoin/tokenrenacecoin.sol\":28357:28368  _allowances */\n      0x01\n        /* \"Tokenrenacecoin/tokenrenacecoin.sol\":28357:28375  _allowances[owner] */\n      0x00\n        /* \"Tokenrenacecoin/tokenrenacecoin.sol\":28369:28374  owner */\n      dup6\n        /* \"Tokenrenacecoin/tokenrenacecoin.sol\":28357:28375  _allowances[owner] */\n      0xffffffffffffffffffffffffffffffffffffffff\n      and\n      0xffffffffffffffffffffffffffffffffffffffff\n      and\n      dup2\n      mstore\n      0x20\n      add\n      swap1\n      dup2\n      mstore\n      0x20\n      add\n      0x00\n      keccak256\n        /* \"Tokenrenacecoin/tokenrenacecoin.sol\":28357:28384  _allowances[owner][spender] */\n      0x00\n        /* \"Tokenrenacecoin/tokenrenacecoin.sol\":28376:28383  spender */\n      dup5\n        /* \"Tokenrenacecoin/tokenrenacecoin.sol\":28357:28384  _allowances[owner][spender] */\n      0xffffffffffffffffffffffffffffffffffffffff\n      and\n      0xffffffffffffffffffffffffffffffffffffffff\n      and\n      dup2\n      mstore\n      0x20\n      add\n      swap1\n      dup2\n      mstore\n      0x20\n      add\n      0x00\n      keccak256\n        /* \"Tokenrenacecoin/tokenrenacecoin.sol\":28357:28393  _allowances[owner][spender] = amount */\n      dup2\n      swap1\n      sstore\n      pop\n        /* \"Tokenrenacecoin/tokenrenacecoin.sol\":28425:28432  spender */\n      dup2\n        /* \"Tokenrenacecoin/tokenrenacecoin.sol\":28409:28441  Approval(owner, spender, amount) */\n      0xffffffffffffffffffffffffffffffffffffffff\n      and\n        /* \"Tokenrenacecoin/tokenrenacecoin.sol\":28418:28423  owner */\n      dup4\n        /* \"Tokenrenacecoin/tokenrenacecoin.sol\":28409:28441  Approval(owner, spender, amount) */\n      0xffffffffffffffffffffffffffffffffffffffff\n      and\n      0x8c5be1e5ebec7d5bd14f71427d1e84f3dd0314c0f7b2291e5b200ac8c7c3b925\n        /* \"Tokenrenacecoin/tokenrenacecoin.sol\":28434:28440  amount */\n      dup4\n        /* \"Tokenrenacecoin/tokenrenacecoin.sol\":28409:28441  Approval(owner, spender, amount) */\n      mload(0x40)\n      dup1\n      dup3\n      dup2\n      mstore\n      0x20\n      add\n      swap2\n      pop\n      pop\n      mload(0x40)\n      dup1\n      swap2\n      sub\n      swap1\n      log3\n        /* \"Tokenrenacecoin/tokenrenacecoin.sol\":28103:28449  function _approve(address owner, address spender, uint256 amount) internal virtual {\r... */\n      pop\n      pop\n      pop\n      jump\t// out\n        /* \"Tokenrenacecoin/tokenrenacecoin.sol\":26748:27287  function _transfer(address sender, address recipient, uint256 amount) internal virtual {\r... */\n    tag_95:\n        /* \"Tokenrenacecoin/tokenrenacecoin.sol\":26872:26873  0 */\n      0x00\n        /* \"Tokenrenacecoin/tokenrenacecoin.sol\":26854:26874  sender != address(0) */\n      0xffffffffffffffffffffffffffffffffffffffff\n      and\n        /* \"Tokenrenacecoin/tokenrenacecoin.sol\":26854:26860  sender */\n      dup4\n        /* \"Tokenrenacecoin/tokenrenacecoin.sol\":26854:26874  sender != address(0) */\n      0xffffffffffffffffffffffffffffffffffffffff\n      and\n      eq\n      iszero\n        /* \"Tokenrenacecoin/tokenrenacecoin.sol\":26846:26916  require(sender != address(0), \"ERC20: transfer from the zero address\") */\n      tag_164\n      jumpi\n      mload(0x40)\n      0x08c379a000000000000000000000000000000000000000000000000000000000\n      dup2\n      mstore\n      0x04\n      add\n      dup1\n      dup1\n      0x20\n      add\n      dup3\n      dup2\n      sub\n      dup3\n      mstore\n      0x25\n      dup2\n      mstore\n      0x20\n      add\n      dup1\n      data_baecc556b46f4ed0f2b4cb599d60785ac8563dd2dc0a5bf12edea1c39e5e1fea\n      0x25\n      swap2\n      codecopy\n      0x40\n      add\n      swap2\n      pop\n      pop\n      mload(0x40)\n      dup1\n      swap2\n      sub\n      swap1\n      revert\n    tag_164:\n        /* \"Tokenrenacecoin/tokenrenacecoin.sol\":26956:26957  0 */\n      0x00\n        /* \"Tokenrenacecoin/tokenrenacecoin.sol\":26935:26958  recipient != address(0) */\n      0xffffffffffffffffffffffffffffffffffffffff\n      and\n        /* \"Tokenrenacecoin/tokenrenacecoin.sol\":26935:26944  recipient */\n      dup3\n        /* \"Tokenrenacecoin/tokenrenacecoin.sol\":26935:26958  recipient != address(0) */\n      0xffffffffffffffffffffffffffffffffffffffff\n      and\n      eq\n      iszero\n        /* \"Tokenrenacecoin/tokenrenacecoin.sol\":26927:26998  require(recipient != address(0), \"ERC20: transfer to the zero address\") */\n      tag_165\n      jumpi\n      mload(0x40)\n      0x08c379a000000000000000000000000000000000000000000000000000000000\n      dup2\n      mstore\n      0x04\n      add\n      dup1\n      dup1\n      0x20\n      add\n      dup3\n      dup2\n      sub\n      dup3\n      mstore\n      0x23\n      dup2\n      mstore\n      0x20\n      add\n      dup1\n      data_0557e210f7a69a685100a7e4e3d0a7024c546085cee28910fd17d0b081d9516f\n      0x23\n      swap2\n      codecopy\n      0x40\n      add\n      swap2\n      pop\n      pop\n      mload(0x40)\n      dup1\n      swap2\n      sub\n      swap1\n      revert\n    tag_165:\n        /* \"Tokenrenacecoin/tokenrenacecoin.sol\":27011:27058  _beforeTokenTransfer(sender, recipient, amount) */\n      tag_166\n        /* \"Tokenrenacecoin/tokenrenacecoin.sol\":27032:27038  sender */\n      dup4\n        /* \"Tokenrenacecoin/tokenrenacecoin.sol\":27040:27049  recipient */\n      dup4\n        /* \"Tokenrenacecoin/tokenrenacecoin.sol\":27051:27057  amount */\n      dup4\n        /* \"Tokenrenacecoin/tokenrenacecoin.sol\":27011:27031  _beforeTokenTransfer */\n      tag_167\n        /* \"Tokenrenacecoin/tokenrenacecoin.sol\":27011:27058  _beforeTokenTransfer(sender, recipient, amount) */\n      jump\t// in\n    tag_166:\n        /* \"Tokenrenacecoin/tokenrenacecoin.sol\":27091:27162  _balances[sender].sub(amount, \"ERC20: transfer amount exceeds balance\") */\n      tag_168\n        /* \"Tokenrenacecoin/tokenrenacecoin.sol\":27113:27119  amount */\n      dup2\n        /* \"Tokenrenacecoin/tokenrenacecoin.sol\":27091:27162  _balances[sender].sub(amount, \"ERC20: transfer amount exceeds balance\") */\n      mload(0x40)\n      dup1\n      0x60\n      add\n      0x40\n      mstore\n      dup1\n      0x26\n      dup2\n      mstore\n      0x20\n      add\n      data_4107e8a8b9e94bf8ff83080ddec1c0bffe897ebc2241b89d44f66b3d274088b6\n      0x26\n      swap2\n      codecopy\n        /* \"Tokenrenacecoin/tokenrenacecoin.sol\":27091:27100  _balances */\n      0x00\n        /* \"Tokenrenacecoin/tokenrenacecoin.sol\":27091:27108  _balances[sender] */\n      dup1\n        /* \"Tokenrenacecoin/tokenrenacecoin.sol\":27101:27107  sender */\n      dup8\n        /* \"Tokenrenacecoin/tokenrenacecoin.sol\":27091:27108  _balances[sender] */\n      0xffffffffffffffffffffffffffffffffffffffff\n      and\n      0xffffffffffffffffffffffffffffffffffffffff\n      and\n      dup2\n      mstore\n      0x20\n      add\n      swap1\n      dup2\n      mstore\n      0x20\n      add\n      0x00\n      keccak256\n      sload\n        /* \"Tokenrenacecoin/tokenrenacecoin.sol\":27091:27112  _balances[sender].sub */\n      tag_98\n      swap1\n        /* \"Tokenrenacecoin/tokenrenacecoin.sol\":27091:27162  _balances[sender].sub(amount, \"ERC20: transfer amount exceeds balance\") */\n      swap3\n      swap2\n      swap1\n      0xffffffff\n      and\n      jump\t// in\n    tag_168:\n        /* \"Tokenrenacecoin/tokenrenacecoin.sol\":27071:27080  _balances */\n      0x00\n        /* \"Tokenrenacecoin/tokenrenacecoin.sol\":27071:27088  _balances[sender] */\n      dup1\n        /* \"Tokenrenacecoin/tokenrenacecoin.sol\":27081:27087  sender */\n      dup6\n        /* \"Tokenrenacecoin/tokenrenacecoin.sol\":27071:27088  _balances[sender] */\n      0xffffffffffffffffffffffffffffffffffffffff\n      and\n      0xffffffffffffffffffffffffffffffffffffffff\n      and\n      dup2\n      mstore\n      0x20\n      add\n      swap1\n      dup2\n      mstore\n      0x20\n      add\n      0x00\n      keccak256\n        /* \"Tokenrenacecoin/tokenrenacecoin.sol\":27071:27162  _balances[sender] = _balances[sender].sub(amount, \"ERC20: transfer amount exceeds balance\") */\n      dup2\n      swap1\n      sstore\n      pop\n        /* \"Tokenrenacecoin/tokenrenacecoin.sol\":27196:27228  _balances[recipient].add(amount) */\n      tag_169\n        /* \"Tokenrenacecoin/tokenrenacecoin.sol\":27221:27227  amount */\n      dup2\n        /* \"Tokenrenacecoin/tokenrenacecoin.sol\":27196:27205  _balances */\n      0x00\n        /* \"Tokenrenacecoin/tokenrenacecoin.sol\":27196:27216  _balances[recipient] */\n      dup1\n        /* \"Tokenrenacecoin/tokenrenacecoin.sol\":27206:27215  recipient */\n      dup6\n        /* \"Tokenrenacecoin/tokenrenacecoin.sol\":27196:27216  _balances[recipient] */\n      0xffffffffffffffffffffffffffffffffffffffff\n      and\n      0xffffffffffffffffffffffffffffffffffffffff\n      and\n      dup2\n      mstore\n      0x20\n      add\n      swap1\n      dup2\n      mstore\n      0x20\n      add\n      0x00\n      keccak256\n      sload\n        /* \"Tokenrenacecoin/tokenrenacecoin.sol\":27196:27220  _balances[recipient].add */\n      tag_84\n      swap1\n        /* \"Tokenrenacecoin/tokenrenacecoin.sol\":27196:27228  _balances[recipient].add(amount) */\n      swap2\n      swap1\n      0xffffffff\n      and\n      jump\t// in\n    tag_169:\n        /* \"Tokenrenacecoin/tokenrenacecoin.sol\":27173:27182  _balances */\n      0x00\n        /* \"Tokenrenacecoin/tokenrenacecoin.sol\":27173:27193  _balances[recipient] */\n      dup1\n        /* \"Tokenrenacecoin/tokenrenacecoin.sol\":27183:27192  recipient */\n      dup5\n        /* \"Tokenrenacecoin/tokenrenacecoin.sol\":27173:27193  _balances[recipient] */\n      0xffffffffffffffffffffffffffffffffffffffff\n      and\n      0xffffffffffffffffffffffffffffffffffffffff\n      and\n      dup2\n      mstore\n      0x20\n      add\n      swap1\n      dup2\n      mstore\n      0x20\n      add\n      0x00\n      keccak256\n        /* \"Tokenrenacecoin/tokenrenacecoin.sol\":27173:27228  _balances[recipient] = _balances[recipient].add(amount) */\n      dup2\n      swap1\n      sstore\n      pop\n        /* \"Tokenrenacecoin/tokenrenacecoin.sol\":27261:27270  recipient */\n      dup2\n        /* \"Tokenrenacecoin/tokenrenacecoin.sol\":27244:27279  Transfer(sender, recipient, amount) */\n      0xffffffffffffffffffffffffffffffffffffffff\n      and\n        /* \"Tokenrenacecoin/tokenrenacecoin.sol\":27253:27259  sender */\n      dup4\n        /* \"Tokenrenacecoin/tokenrenacecoin.sol\":27244:27279  Transfer(sender, recipient, amount) */\n      0xffffffffffffffffffffffffffffffffffffffff\n      and\n      0xddf252ad1be2c89b69c2b068fc378daa952ba7f163c4a11628f55a4df523b3ef\n        /* \"Tokenrenacecoin/tokenrenacecoin.sol\":27272:27278  amount */\n      dup4\n        /* \"Tokenrenacecoin/tokenrenacecoin.sol\":27244:27279  Transfer(sender, recipient, amount) */\n      mload(0x40)\n      dup1\n      dup3\n      dup2\n      mstore\n      0x20\n      add\n      swap2\n      pop\n      pop\n      mload(0x40)\n      dup1\n      swap2\n      sub\n      swap1\n      log3\n        /* \"Tokenrenacecoin/tokenrenacecoin.sol\":26748:27287  function _transfer(address sender, address recipient, uint256 amount) internal virtual {\r... */\n      pop\n      pop\n      pop\n      jump\t// out\n        /* \"Tokenrenacecoin/tokenrenacecoin.sol\":21951:22143  function sub(uint256 a, uint256 b, string memory errorMessage) internal pure returns (uint256) {\r... */\n    tag_98:\n        /* \"Tokenrenacecoin/tokenrenacecoin.sol\":22037:22044  uint256 */\n      0x00\n        /* \"Tokenrenacecoin/tokenrenacecoin.sol\":22070:22071  a */\n      dup4\n        /* \"Tokenrenacecoin/tokenrenacecoin.sol\":22065:22066  b */\n      dup4\n        /* \"Tokenrenacecoin/tokenrenacecoin.sol\":22065:22071  b <= a */\n      gt\n      iszero\n        /* \"Tokenrenacecoin/tokenrenacecoin.sol\":22073:22085  errorMessage */\n      dup3\n        /* \"Tokenrenacecoin/tokenrenacecoin.sol\":22057:22086  require(b <= a, errorMessage) */\n      swap1\n      tag_171\n      jumpi\n      mload(0x40)\n      0x08c379a000000000000000000000000000000000000000000000000000000000\n      dup2\n      mstore\n      0x04\n      add\n      dup1\n      dup1\n      0x20\n      add\n      dup3\n      dup2\n      sub\n      dup3\n      mstore\n      dup4\n      dup2\n      dup2\n      mload\n      dup2\n      mstore\n      0x20\n      add\n      swap2\n      pop\n      dup1\n      mload\n      swap1\n      0x20\n      add\n      swap1\n      dup1\n      dup4\n      dup4\n      0x00\n    tag_172:\n      dup4\n      dup2\n      lt\n      iszero\n      tag_174\n      jumpi\n      dup1\n      dup3\n      add\n      mload\n      dup2\n      dup5\n      add\n      mstore\n      0x20\n      dup2\n      add\n      swap1\n      pop\n      jump(tag_172)\n    tag_174:\n      pop\n      pop\n      pop\n      pop\n      swap1\n      pop\n      swap1\n      dup2\n      add\n      swap1\n      0x1f\n      and\n      dup1\n      iszero\n      tag_175\n      jumpi\n      dup1\n      dup3\n      sub\n      dup1\n      mload\n      0x01\n      dup4\n      0x20\n      sub\n      0x0100\n      exp\n      sub\n      not\n      and\n      dup2\n      mstore\n      0x20\n      add\n      swap2\n      pop\n    tag_175:\n      pop\n      swap3\n      pop\n      pop\n      pop\n      mload(0x40)\n      dup1\n      swap2\n      sub\n      swap1\n      revert\n    tag_171:\n      pop\n        /* \"Tokenrenacecoin/tokenrenacecoin.sol\":22097:22106  uint256 c */\n      0x00\n        /* \"Tokenrenacecoin/tokenrenacecoin.sol\":22113:22114  b */\n      dup4\n        /* \"Tokenrenacecoin/tokenrenacecoin.sol\":22109:22110  a */\n      dup6\n        /* \"Tokenrenacecoin/tokenrenacecoin.sol\":22109:22114  a - b */\n      sub\n        /* \"Tokenrenacecoin/tokenrenacecoin.sol\":22097:22114  uint256 c = a - b */\n      swap1\n      pop\n        /* \"Tokenrenacecoin/tokenrenacecoin.sol\":22134:22135  c */\n      dup1\n        /* \"Tokenrenacecoin/tokenrenacecoin.sol\":22127:22135  return c */\n      swap2\n      pop\n      pop\n        /* \"Tokenrenacecoin/tokenrenacecoin.sol\":21951:22143  function sub(uint256 a, uint256 b, string memory errorMessage) internal pure returns (uint256) {\r... */\n      swap4\n      swap3\n      pop\n      pop\n      pop\n      jump\t// out\n        /* \"Tokenrenacecoin/tokenrenacecoin.sol\":14818:15188  function _domainSeparatorV4() internal view returns (bytes32) {\r... */\n    tag_102:\n        /* \"Tokenrenacecoin/tokenrenacecoin.sol\":14871:14878  bytes32 */\n      0x00\n        /* \"Tokenrenacecoin/tokenrenacecoin.sol\":14893:14908  uint256 chainID */\n      dup1\n        /* \"Tokenrenacecoin/tokenrenacecoin.sol\":14954:14963  chainid() */\n      chainid\n        /* \"Tokenrenacecoin/tokenrenacecoin.sol\":14943:14963  chainID := chainid() */\n      swap1\n      pop\n        /* \"Tokenrenacecoin/tokenrenacecoin.sol\":15001:15017  _CACHED_CHAIN_ID */\n      immutable(\"0xb94f8c478e7f92fc0cbeb8585a30ff43095dcb640fbbe86337c29b9c95bacdbd\")\n        /* \"Tokenrenacecoin/tokenrenacecoin.sol\":14990:14997  chainID */\n      dup2\n        /* \"Tokenrenacecoin/tokenrenacecoin.sol\":14990:15017  chainID == _CACHED_CHAIN_ID */\n      eq\n        /* \"Tokenrenacecoin/tokenrenacecoin.sol\":14986:15181  if (chainID == _CACHED_CHAIN_ID) {\r... */\n      iszero\n      tag_177\n      jumpi\n        /* \"Tokenrenacecoin/tokenrenacecoin.sol\":15041:15065  _CACHED_DOMAIN_SEPARATOR */\n      immutable(\"0x251437c0092c2b0ae5c27df55e04490f08f4eb0dcb868271fba9915d5c3457ef\")\n        /* \"Tokenrenacecoin/tokenrenacecoin.sol\":15034:15065  return _CACHED_DOMAIN_SEPARATOR */\n      swap2\n      pop\n      pop\n      jump(tag_176)\n        /* \"Tokenrenacecoin/tokenrenacecoin.sol\":14986:15181  if (chainID == _CACHED_CHAIN_ID) {\r... */\n    tag_177:\n        /* \"Tokenrenacecoin/tokenrenacecoin.sol\":15105:15169  _buildDomainSeparator(_TYPE_HASH, _HASHED_NAME, _HASHED_VERSION) */\n      tag_179\n        /* \"Tokenrenacecoin/tokenrenacecoin.sol\":15127:15137  _TYPE_HASH */\n      immutable(\"0x42d683e394a4df18653c7650f8aa08cb69f6a4b0d0acad4653af662538b2a674\")\n        /* \"Tokenrenacecoin/tokenrenacecoin.sol\":15139:15151  _HASHED_NAME */\n      immutable(\"0x47c45d5c96028246b97317e5b08ebf9432401948cd8d066b95926c97155d1ae7\")\n        /* \"Tokenrenacecoin/tokenrenacecoin.sol\":15153:15168  _HASHED_VERSION */\n      immutable(\"0xdd5c87e7d2b0dfec287534406fac02a7bbb933ae982df87d512731e2383f3518\")\n        /* \"Tokenrenacecoin/tokenrenacecoin.sol\":15105:15126  _buildDomainSeparator */\n      tag_180\n        /* \"Tokenrenacecoin/tokenrenacecoin.sol\":15105:15169  _buildDomainSeparator(_TYPE_HASH, _HASHED_NAME, _HASHED_VERSION) */\n      jump\t// in\n    tag_179:\n        /* \"Tokenrenacecoin/tokenrenacecoin.sol\":15098:15169  return _buildDomainSeparator(_TYPE_HASH, _HASHED_NAME, _HASHED_VERSION) */\n      swap2\n      pop\n      pop\n        /* \"Tokenrenacecoin/tokenrenacecoin.sol\":14818:15188  function _domainSeparatorV4() internal view returns (bytes32) {\r... */\n    tag_176:\n      swap1\n      jump\t// out\n        /* \"Tokenrenacecoin/tokenrenacecoin.sol\":27295:27669  function _mint(address account, uint256 amount) internal virtual {\r... */\n    tag_117:\n        /* \"Tokenrenacecoin/tokenrenacecoin.sol\":27398:27399  0 */\n      0x00\n        /* \"Tokenrenacecoin/tokenrenacecoin.sol\":27379:27400  account != address(0) */\n      0xffffffffffffffffffffffffffffffffffffffff\n      and\n        /* \"Tokenrenacecoin/tokenrenacecoin.sol\":27379:27386  account */\n      dup3\n        /* \"Tokenrenacecoin/tokenrenacecoin.sol\":27379:27400  account != address(0) */\n      0xffffffffffffffffffffffffffffffffffffffff\n      and\n      eq\n      iszero\n        /* \"Tokenrenacecoin/tokenrenacecoin.sol\":27371:27436  require(account != address(0), \"ERC20: mint to the zero address\") */\n      tag_182\n      jumpi\n      mload(0x40)\n      0x08c379a000000000000000000000000000000000000000000000000000000000\n      dup2\n      mstore\n      0x04\n      add\n      dup1\n      dup1\n      0x20\n      add\n      dup3\n      dup2\n      sub\n      dup3\n      mstore\n      0x1f\n      dup2\n      mstore\n      0x20\n      add\n      dup1\n      0x45524332303a206d696e7420746f20746865207a65726f206164647265737300\n      dup2\n      mstore\n      pop\n      0x20\n      add\n      swap2\n      pop\n      pop\n      mload(0x40)\n      dup1\n      swap2\n      sub\n      swap1\n      revert\n    tag_182:\n        /* \"Tokenrenacecoin/tokenrenacecoin.sol\":27447:27496  _beforeTokenTransfer(address(0), account, amount) */\n      tag_183\n        /* \"Tokenrenacecoin/tokenrenacecoin.sol\":27476:27477  0 */\n      0x00\n        /* \"Tokenrenacecoin/tokenrenacecoin.sol\":27480:27487  account */\n      dup4\n        /* \"Tokenrenacecoin/tokenrenacecoin.sol\":27489:27495  amount */\n      dup4\n        /* \"Tokenrenacecoin/tokenrenacecoin.sol\":27447:27467  _beforeTokenTransfer */\n      tag_167\n        /* \"Tokenrenacecoin/tokenrenacecoin.sol\":27447:27496  _beforeTokenTransfer(address(0), account, amount) */\n      jump\t// in\n    tag_183:\n        /* \"Tokenrenacecoin/tokenrenacecoin.sol\":27522:27546  _totalSupply.add(amount) */\n      tag_184\n        /* \"Tokenrenacecoin/tokenrenacecoin.sol\":27539:27545  amount */\n      dup2\n        /* \"Tokenrenacecoin/tokenrenacecoin.sol\":27522:27534  _totalSupply */\n      sload(0x02)\n        /* \"Tokenrenacecoin/tokenrenacecoin.sol\":27522:27538  _totalSupply.add */\n      tag_84\n      swap1\n        /* \"Tokenrenacecoin/tokenrenacecoin.sol\":27522:27546  _totalSupply.add(amount) */\n      swap2\n      swap1\n      0xffffffff\n      and\n      jump\t// in\n    tag_184:\n        /* \"Tokenrenacecoin/tokenrenacecoin.sol\":27507:27519  _totalSupply */\n      0x02\n        /* \"Tokenrenacecoin/tokenrenacecoin.sol\":27507:27546  _totalSupply = _totalSupply.add(amount) */\n      dup2\n      swap1\n      sstore\n      pop\n        /* \"Tokenrenacecoin/tokenrenacecoin.sol\":27578:27608  _balances[account].add(amount) */\n      tag_185\n        /* \"Tokenrenacecoin/tokenrenacecoin.sol\":27601:27607  amount */\n      dup2\n        /* \"Tokenrenacecoin/tokenrenacecoin.sol\":27578:27587  _balances */\n      0x00\n        /* \"Tokenrenacecoin/tokenrenacecoin.sol\":27578:27596  _balances[account] */\n      dup1\n        /* \"Tokenrenacecoin/tokenrenacecoin.sol\":27588:27595  account */\n      dup6\n        /* \"Tokenrenacecoin/tokenrenacecoin.sol\":27578:27596  _balances[account] */\n      0xffffffffffffffffffffffffffffffffffffffff\n      and\n      0xffffffffffffffffffffffffffffffffffffffff\n      and\n      dup2\n      mstore\n      0x20\n      add\n      swap1\n      dup2\n      mstore\n      0x20\n      add\n      0x00\n      keccak256\n      sload\n        /* \"Tokenrenacecoin/tokenrenacecoin.sol\":27578:27600  _balances[account].add */\n      tag_84\n      swap1\n        /* \"Tokenrenacecoin/tokenrenacecoin.sol\":27578:27608  _balances[account].add(amount) */\n      swap2\n      swap1\n      0xffffffff\n      and\n      jump\t// in\n    tag_185:\n        /* \"Tokenrenacecoin/tokenrenacecoin.sol\":27557:27566  _balances */\n      0x00\n        /* \"Tokenrenacecoin/tokenrenacecoin.sol\":27557:27575  _balances[account] */\n      dup1\n        /* \"Tokenrenacecoin/tokenrenacecoin.sol\":27567:27574  account */\n      dup5\n        /* \"Tokenrenacecoin/tokenrenacecoin.sol\":27557:27575  _balances[account] */\n      0xffffffffffffffffffffffffffffffffffffffff\n      and\n      0xffffffffffffffffffffffffffffffffffffffff\n      and\n      dup2\n      mstore\n      0x20\n      add\n      swap1\n      dup2\n      mstore\n      0x20\n      add\n      0x00\n      keccak256\n        /* \"Tokenrenacecoin/tokenrenacecoin.sol\":27557:27608  _balances[account] = _balances[account].add(amount) */\n      dup2\n      swap1\n      sstore\n      pop\n        /* \"Tokenrenacecoin/tokenrenacecoin.sol\":27645:27652  account */\n      dup2\n        /* \"Tokenrenacecoin/tokenrenacecoin.sol\":27624:27661  Transfer(address(0), account, amount) */\n      0xffffffffffffffffffffffffffffffffffffffff\n      and\n        /* \"Tokenrenacecoin/tokenrenacecoin.sol\":27641:27642  0 */\n      0x00\n        /* \"Tokenrenacecoin/tokenrenacecoin.sol\":27624:27661  Transfer(address(0), account, amount) */\n      0xffffffffffffffffffffffffffffffffffffffff\n      and\n      0xddf252ad1be2c89b69c2b068fc378daa952ba7f163c4a11628f55a4df523b3ef\n        /* \"Tokenrenacecoin/tokenrenacecoin.sol\":27654:27660  amount */\n      dup4\n        /* \"Tokenrenacecoin/tokenrenacecoin.sol\":27624:27661  Transfer(address(0), account, amount) */\n      mload(0x40)\n      dup1\n      dup3\n      dup2\n      mstore\n      0x20\n      add\n      swap2\n      pop\n      pop\n      mload(0x40)\n      dup1\n      swap2\n      sub\n      swap1\n      log3\n        /* \"Tokenrenacecoin/tokenrenacecoin.sol\":27295:27669  function _mint(address account, uint256 amount) internal virtual {\r... */\n      pop\n      pop\n      jump\t// out\n        /* \"Tokenrenacecoin/tokenrenacecoin.sol\":27677:28095  function _burn(address account, uint256 amount) internal virtual {\r... */\n    tag_120:\n        /* \"Tokenrenacecoin/tokenrenacecoin.sol\":27780:27781  0 */\n      0x00\n        /* \"Tokenrenacecoin/tokenrenacecoin.sol\":27761:27782  account != address(0) */\n      0xffffffffffffffffffffffffffffffffffffffff\n      and\n        /* \"Tokenrenacecoin/tokenrenacecoin.sol\":27761:27768  account */\n      dup3\n        /* \"Tokenrenacecoin/tokenrenacecoin.sol\":27761:27782  account != address(0) */\n      0xffffffffffffffffffffffffffffffffffffffff\n      and\n      eq\n      iszero\n        /* \"Tokenrenacecoin/tokenrenacecoin.sol\":27753:27820  require(account != address(0), \"ERC20: burn from the zero address\") */\n      tag_187\n      jumpi\n      mload(0x40)\n      0x08c379a000000000000000000000000000000000000000000000000000000000\n      dup2\n      mstore\n      0x04\n      add\n      dup1\n      dup1\n      0x20\n      add\n      dup3\n      dup2\n      sub\n      dup3\n      mstore\n      0x21\n      dup2\n      mstore\n      0x20\n      add\n      dup1\n      data_b16788493b576042bb52c50ed56189e0b250db113c7bfb1c3897d25cf9632d7f\n      0x21\n      swap2\n      codecopy\n      0x40\n      add\n      swap2\n      pop\n      pop\n      mload(0x40)\n      dup1\n      swap2\n      sub\n      swap1\n      revert\n    tag_187:\n        /* \"Tokenrenacecoin/tokenrenacecoin.sol\":27833:27882  _beforeTokenTransfer(account, address(0), amount) */\n      tag_188\n        /* \"Tokenrenacecoin/tokenrenacecoin.sol\":27854:27861  account */\n      dup3\n        /* \"Tokenrenacecoin/tokenrenacecoin.sol\":27871:27872  0 */\n      0x00\n        /* \"Tokenrenacecoin/tokenrenacecoin.sol\":27875:27881  amount */\n      dup4\n        /* \"Tokenrenacecoin/tokenrenacecoin.sol\":27833:27853  _beforeTokenTransfer */\n      tag_167\n        /* \"Tokenrenacecoin/tokenrenacecoin.sol\":27833:27882  _beforeTokenTransfer(account, address(0), amount) */\n      jump\t// in\n    tag_188:\n        /* \"Tokenrenacecoin/tokenrenacecoin.sol\":27916:27984  _balances[account].sub(amount, \"ERC20: burn amount exceeds balance\") */\n      tag_189\n        /* \"Tokenrenacecoin/tokenrenacecoin.sol\":27939:27945  amount */\n      dup2\n        /* \"Tokenrenacecoin/tokenrenacecoin.sol\":27916:27984  _balances[account].sub(amount, \"ERC20: burn amount exceeds balance\") */\n      mload(0x40)\n      dup1\n      0x60\n      add\n      0x40\n      mstore\n      dup1\n      0x22\n      dup2\n      mstore\n      0x20\n      add\n      data_149b126e7125232b4200af45303d04fba8b74653b1a295a6a561a528c33fefdd\n      0x22\n      swap2\n      codecopy\n        /* \"Tokenrenacecoin/tokenrenacecoin.sol\":27916:27925  _balances */\n      0x00\n        /* \"Tokenrenacecoin/tokenrenacecoin.sol\":27916:27934  _balances[account] */\n      dup1\n        /* \"Tokenrenacecoin/tokenrenacecoin.sol\":27926:27933  account */\n      dup7\n        /* \"Tokenrenacecoin/tokenrenacecoin.sol\":27916:27934  _balances[account] */\n      0xffffffffffffffffffffffffffffffffffffffff\n      and\n      0xffffffffffffffffffffffffffffffffffffffff\n      and\n      dup2\n      mstore\n      0x20\n      add\n      swap1\n      dup2\n      mstore\n      0x20\n      add\n      0x00\n      keccak256\n      sload\n        /* \"Tokenrenacecoin/tokenrenacecoin.sol\":27916:27938  _balances[account].sub */\n      tag_98\n      swap1\n        /* \"Tokenrenacecoin/tokenrenacecoin.sol\":27916:27984  _balances[account].sub(amount, \"ERC20: burn amount exceeds balance\") */\n      swap3\n      swap2\n      swap1\n      0xffffffff\n      and\n      jump\t// in\n    tag_189:\n        /* \"Tokenrenacecoin/tokenrenacecoin.sol\":27895:27904  _balances */\n      0x00\n        /* \"Tokenrenacecoin/tokenrenacecoin.sol\":27895:27913  _balances[account] */\n      dup1\n        /* \"Tokenrenacecoin/tokenrenacecoin.sol\":27905:27912  account */\n      dup5\n        /* \"Tokenrenacecoin/tokenrenacecoin.sol\":27895:27913  _balances[account] */\n      0xffffffffffffffffffffffffffffffffffffffff\n      and\n      0xffffffffffffffffffffffffffffffffffffffff\n      and\n      dup2\n      mstore\n      0x20\n      add\n      swap1\n      dup2\n      mstore\n      0x20\n      add\n      0x00\n      keccak256\n        /* \"Tokenrenacecoin/tokenrenacecoin.sol\":27895:27984  _balances[account] = _balances[account].sub(amount, \"ERC20: burn amount exceeds balance\") */\n      dup2\n      swap1\n      sstore\n      pop\n        /* \"Tokenrenacecoin/tokenrenacecoin.sol\":28010:28034  _totalSupply.sub(amount) */\n      tag_190\n        /* \"Tokenrenacecoin/tokenrenacecoin.sol\":28027:28033  amount */\n      dup2\n        /* \"Tokenrenacecoin/tokenrenacecoin.sol\":28010:28022  _totalSupply */\n      sload(0x02)\n        /* \"Tokenrenacecoin/tokenrenacecoin.sol\":28010:28026  _totalSupply.sub */\n      tag_191\n      swap1\n        /* \"Tokenrenacecoin/tokenrenacecoin.sol\":28010:28034  _totalSupply.sub(amount) */\n      swap2\n      swap1\n      0xffffffff\n      and\n      jump\t// in\n    tag_190:\n        /* \"Tokenrenacecoin/tokenrenacecoin.sol\":27995:28007  _totalSupply */\n      0x02\n        /* \"Tokenrenacecoin/tokenrenacecoin.sol\":27995:28034  _totalSupply = _totalSupply.sub(amount) */\n      dup2\n      swap1\n      sstore\n      pop\n        /* \"Tokenrenacecoin/tokenrenacecoin.sol\":28076:28077  0 */\n      0x00\n        /* \"Tokenrenacecoin/tokenrenacecoin.sol\":28050:28087  Transfer(account, address(0), amount) */\n      0xffffffffffffffffffffffffffffffffffffffff\n      and\n        /* \"Tokenrenacecoin/tokenrenacecoin.sol\":28059:28066  account */\n      dup3\n        /* \"Tokenrenacecoin/tokenrenacecoin.sol\":28050:28087  Transfer(account, address(0), amount) */\n      0xffffffffffffffffffffffffffffffffffffffff\n      and\n      0xddf252ad1be2c89b69c2b068fc378daa952ba7f163c4a11628f55a4df523b3ef\n        /* \"Tokenrenacecoin/tokenrenacecoin.sol\":28080:28086  amount */\n      dup4\n        /* \"Tokenrenacecoin/tokenrenacecoin.sol\":28050:28087  Transfer(account, address(0), amount) */\n      mload(0x40)\n      dup1\n      dup3\n      dup2\n      mstore\n      0x20\n      add\n      swap2\n      pop\n      pop\n      mload(0x40)\n      dup1\n      swap2\n      sub\n      swap1\n      log3\n        /* \"Tokenrenacecoin/tokenrenacecoin.sol\":27677:28095  function _burn(address account, uint256 amount) internal virtual {\r... */\n      pop\n      pop\n      jump\t// out\n        /* \"Tokenrenacecoin/tokenrenacecoin.sol\":32096:32391  function _burnFrom(address account_, uint256 amount_) internal {\r... */\n    tag_124:\n        /* \"Tokenrenacecoin/tokenrenacecoin.sol\":32170:32197  uint256 decreasedAllowance_ */\n      0x00\n        /* \"Tokenrenacecoin/tokenrenacecoin.sol\":32200:32284  allowance(account_, msg.sender).sub(amount_, \"ERC20: burn amount exceeds allowance\") */\n      tag_193\n        /* \"Tokenrenacecoin/tokenrenacecoin.sol\":32236:32243  amount_ */\n      dup3\n        /* \"Tokenrenacecoin/tokenrenacecoin.sol\":32200:32284  allowance(account_, msg.sender).sub(amount_, \"ERC20: burn amount exceeds allowance\") */\n      mload(0x40)\n      dup1\n      0x60\n      add\n      0x40\n      mstore\n      dup1\n      0x24\n      dup2\n      mstore\n      0x20\n      add\n      data_a287c363786607a1457a2d9d12fa61c0073358e02d76b4035fc2c2d86a19c0db\n      0x24\n      swap2\n      codecopy\n        /* \"Tokenrenacecoin/tokenrenacecoin.sol\":32200:32231  allowance(account_, msg.sender) */\n      tag_194\n        /* \"Tokenrenacecoin/tokenrenacecoin.sol\":32210:32218  account_ */\n      dup7\n        /* \"Tokenrenacecoin/tokenrenacecoin.sol\":32220:32230  msg.sender */\n      caller\n        /* \"Tokenrenacecoin/tokenrenacecoin.sol\":32200:32209  allowance */\n      tag_83\n        /* \"Tokenrenacecoin/tokenrenacecoin.sol\":32200:32231  allowance(account_, msg.sender) */\n      jump\t// in\n    tag_194:\n        /* \"Tokenrenacecoin/tokenrenacecoin.sol\":32200:32235  allowance(account_, msg.sender).sub */\n      tag_98\n      swap1\n        /* \"Tokenrenacecoin/tokenrenacecoin.sol\":32200:32284  allowance(account_, msg.sender).sub(amount_, \"ERC20: burn amount exceeds allowance\") */\n      swap3\n      swap2\n      swap1\n      0xffffffff\n      and\n      jump\t// in\n    tag_193:\n        /* \"Tokenrenacecoin/tokenrenacecoin.sol\":32170:32284  uint256 decreasedAllowance_ = allowance(account_, msg.sender).sub(amount_, \"ERC20: burn amount exceeds allowance\") */\n      swap1\n      pop\n        /* \"Tokenrenacecoin/tokenrenacecoin.sol\":32297:32348  _approve(account_, msg.sender, decreasedAllowance_) */\n      tag_195\n        /* \"Tokenrenacecoin/tokenrenacecoin.sol\":32306:32314  account_ */\n      dup4\n        /* \"Tokenrenacecoin/tokenrenacecoin.sol\":32316:32326  msg.sender */\n      caller\n        /* \"Tokenrenacecoin/tokenrenacecoin.sol\":32328:32347  decreasedAllowance_ */\n      dup4\n        /* \"Tokenrenacecoin/tokenrenacecoin.sol\":32297:32305  _approve */\n      tag_91\n        /* \"Tokenrenacecoin/tokenrenacecoin.sol\":32297:32348  _approve(account_, msg.sender, decreasedAllowance_) */\n      jump\t// in\n    tag_195:\n        /* \"Tokenrenacecoin/tokenrenacecoin.sol\":32359:32383  _burn(account_, amount_) */\n      tag_196\n        /* \"Tokenrenacecoin/tokenrenacecoin.sol\":32365:32373  account_ */\n      dup4\n        /* \"Tokenrenacecoin/tokenrenacecoin.sol\":32375:32382  amount_ */\n      dup4\n        /* \"Tokenrenacecoin/tokenrenacecoin.sol\":32359:32364  _burn */\n      tag_120\n        /* \"Tokenrenacecoin/tokenrenacecoin.sol\":32359:32383  _burn(account_, amount_) */\n      jump\t// in\n    tag_196:\n        /* \"Tokenrenacecoin/tokenrenacecoin.sol\":32096:32391  function _burnFrom(address account_, uint256 amount_) internal {\r... */\n      pop\n      pop\n      pop\n      jump\t// out\n        /* \"Tokenrenacecoin/tokenrenacecoin.sol\":23732:23846  function current(Counter storage counter) internal view returns (uint256) {\r... */\n    tag_137:\n        /* \"Tokenrenacecoin/tokenrenacecoin.sol\":23797:23804  uint256 */\n      0x00\n        /* \"Tokenrenacecoin/tokenrenacecoin.sol\":23824:23831  counter */\n      dup2\n        /* \"Tokenrenacecoin/tokenrenacecoin.sol\":23824:23838  counter._value */\n      0x00\n      add\n      sload\n        /* \"Tokenrenacecoin/tokenrenacecoin.sol\":23817:23838  return counter._value */\n      swap1\n      pop\n        /* \"Tokenrenacecoin/tokenrenacecoin.sol\":23732:23846  function current(Counter storage counter) internal view returns (uint256) {\r... */\n      swap2\n      swap1\n      pop\n      jump\t// out\n        /* \"Tokenrenacecoin/tokenrenacecoin.sol\":31106:31313  function _useNonce(address owner) internal virtual returns (uint256 current) {\r... */\n    tag_150:\n        /* \"Tokenrenacecoin/tokenrenacecoin.sol\":31166:31181  uint256 current */\n      0x00\n        /* \"Tokenrenacecoin/tokenrenacecoin.sol\":31194:31224  Counters.Counter storage nonce */\n      dup1\n        /* \"Tokenrenacecoin/tokenrenacecoin.sol\":31227:31234  _nonces */\n      0x05\n        /* \"Tokenrenacecoin/tokenrenacecoin.sol\":31227:31241  _nonces[owner] */\n      0x00\n        /* \"Tokenrenacecoin/tokenrenacecoin.sol\":31235:31240  owner */\n      dup5\n        /* \"Tokenrenacecoin/tokenrenacecoin.sol\":31227:31241  _nonces[owner] */\n      0xffffffffffffffffffffffffffffffffffffffff\n      and\n      0xffffffffffffffffffffffffffffffffffffffff\n      and\n      dup2\n      mstore\n      0x20\n      add\n      swap1\n      dup2\n      mstore\n      0x20\n      add\n      0x00\n      keccak256\n        /* \"Tokenrenacecoin/tokenrenacecoin.sol\":31194:31241  Counters.Counter storage nonce = _nonces[owner] */\n      swap1\n      pop\n        /* \"Tokenrenacecoin/tokenrenacecoin.sol\":31262:31277  nonce.current() */\n      tag_199\n        /* \"Tokenrenacecoin/tokenrenacecoin.sol\":31262:31267  nonce */\n      dup2\n        /* \"Tokenrenacecoin/tokenrenacecoin.sol\":31262:31275  nonce.current */\n      tag_137\n        /* \"Tokenrenacecoin/tokenrenacecoin.sol\":31262:31277  nonce.current() */\n      jump\t// in\n    tag_199:\n        /* \"Tokenrenacecoin/tokenrenacecoin.sol\":31252:31277  current = nonce.current() */\n      swap2\n      pop\n        /* \"Tokenrenacecoin/tokenrenacecoin.sol\":31288:31305  nonce.increment() */\n      tag_200\n        /* \"Tokenrenacecoin/tokenrenacecoin.sol\":31288:31293  nonce */\n      dup2\n        /* \"Tokenrenacecoin/tokenrenacecoin.sol\":31288:31303  nonce.increment */\n      tag_201\n        /* \"Tokenrenacecoin/tokenrenacecoin.sol\":31288:31305  nonce.increment() */\n      jump\t// in\n    tag_200:\n        /* \"Tokenrenacecoin/tokenrenacecoin.sol\":31106:31313  function _useNonce(address owner) internal virtual returns (uint256 current) {\r... */\n      pop\n      swap2\n      swap1\n      pop\n      jump\t// out\n        /* \"Tokenrenacecoin/tokenrenacecoin.sol\":16188:16355  function _hashTypedDataV4(bytes32 structHash) internal view virtual returns (bytes32) {\r... */\n    tag_152:\n        /* \"Tokenrenacecoin/tokenrenacecoin.sol\":16265:16272  bytes32 */\n      0x00\n        /* \"Tokenrenacecoin/tokenrenacecoin.sol\":16292:16347  ECDSA.toTypedDataHash(_domainSeparatorV4(), structHash) */\n      tag_203\n        /* \"Tokenrenacecoin/tokenrenacecoin.sol\":16314:16334  _domainSeparatorV4() */\n      tag_204\n        /* \"Tokenrenacecoin/tokenrenacecoin.sol\":16314:16332  _domainSeparatorV4 */\n      tag_102\n        /* \"Tokenrenacecoin/tokenrenacecoin.sol\":16314:16334  _domainSeparatorV4() */\n      jump\t// in\n    tag_204:\n        /* \"Tokenrenacecoin/tokenrenacecoin.sol\":16336:16346  structHash */\n      dup4\n        /* \"Tokenrenacecoin/tokenrenacecoin.sol\":16292:16313  ECDSA.toTypedDataHash */\n      tag_205\n        /* \"Tokenrenacecoin/tokenrenacecoin.sol\":16292:16347  ECDSA.toTypedDataHash(_domainSeparatorV4(), structHash) */\n      jump\t// in\n    tag_203:\n        /* \"Tokenrenacecoin/tokenrenacecoin.sol\":16285:16347  return ECDSA.toTypedDataHash(_domainSeparatorV4(), structHash) */\n      swap1\n      pop\n        /* \"Tokenrenacecoin/tokenrenacecoin.sol\":16188:16355  function _hashTypedDataV4(bytes32 structHash) internal view virtual returns (bytes32) {\r... */\n      swap2\n      swap1\n      pop\n      jump\t// out\n        /* \"Tokenrenacecoin/tokenrenacecoin.sol\":10292:10571  function recover(\r... */\n    tag_154:\n        /* \"Tokenrenacecoin/tokenrenacecoin.sol\":10420:10427  address */\n      0x00\n        /* \"Tokenrenacecoin/tokenrenacecoin.sol\":10441:10458  address recovered */\n      dup1\n        /* \"Tokenrenacecoin/tokenrenacecoin.sol\":10460:10478  RecoverError error */\n      0x00\n        /* \"Tokenrenacecoin/tokenrenacecoin.sol\":10482:10507  tryRecover(hash, v, r, s) */\n      tag_207\n        /* \"Tokenrenacecoin/tokenrenacecoin.sol\":10493:10497  hash */\n      dup8\n        /* \"Tokenrenacecoin/tokenrenacecoin.sol\":10499:10500  v */\n      dup8\n        /* \"Tokenrenacecoin/tokenrenacecoin.sol\":10502:10503  r */\n      dup8\n        /* \"Tokenrenacecoin/tokenrenacecoin.sol\":10505:10506  s */\n      dup8\n        /* \"Tokenrenacecoin/tokenrenacecoin.sol\":10482:10492  tryRecover */\n      tag_208\n        /* \"Tokenrenacecoin/tokenrenacecoin.sol\":10482:10507  tryRecover(hash, v, r, s) */\n      jump\t// in\n    tag_207:\n        /* \"Tokenrenacecoin/tokenrenacecoin.sol\":10440:10507  (address recovered, RecoverError error) = tryRecover(hash, v, r, s) */\n      swap2\n      pop\n      swap2\n      pop\n        /* \"Tokenrenacecoin/tokenrenacecoin.sol\":10518:10536  _throwError(error) */\n      tag_209\n        /* \"Tokenrenacecoin/tokenrenacecoin.sol\":10530:10535  error */\n      dup2\n        /* \"Tokenrenacecoin/tokenrenacecoin.sol\":10518:10529  _throwError */\n      tag_210\n        /* \"Tokenrenacecoin/tokenrenacecoin.sol\":10518:10536  _throwError(error) */\n      jump\t// in\n    tag_209:\n        /* \"Tokenrenacecoin/tokenrenacecoin.sol\":10554:10563  recovered */\n      dup2\n        /* \"Tokenrenacecoin/tokenrenacecoin.sol\":10547:10563  return recovered */\n      swap3\n      pop\n      pop\n      pop\n        /* \"Tokenrenacecoin/tokenrenacecoin.sol\":10292:10571  function recover(\r... */\n      swap5\n      swap4\n      pop\n      pop\n      pop\n      pop\n      jump\t// out\n        /* \"Tokenrenacecoin/tokenrenacecoin.sol\":28455:28552  function _beforeTokenTransfer( address from_, address to_, uint256 amount_ ) internal virtual { } */\n    tag_167:\n      pop\n      pop\n      pop\n      jump\t// out\n        /* \"Tokenrenacecoin/tokenrenacecoin.sol\":15196:15546  function _buildDomainSeparator(\r... */\n    tag_180:\n        /* \"Tokenrenacecoin/tokenrenacecoin.sol\":15340:15347  bytes32 */\n      0x00\n        /* \"Tokenrenacecoin/tokenrenacecoin.sol\":15360:15375  uint256 chainID */\n      dup1\n        /* \"Tokenrenacecoin/tokenrenacecoin.sol\":15421:15430  chainid() */\n      chainid\n        /* \"Tokenrenacecoin/tokenrenacecoin.sol\":15410:15430  chainID := chainid() */\n      swap1\n      pop\n        /* \"Tokenrenacecoin/tokenrenacecoin.sol\":15481:15489  typeHash */\n      dup5\n        /* \"Tokenrenacecoin/tokenrenacecoin.sol\":15491:15499  nameHash */\n      dup5\n        /* \"Tokenrenacecoin/tokenrenacecoin.sol\":15501:15512  versionHash */\n      dup5\n        /* \"Tokenrenacecoin/tokenrenacecoin.sol\":15514:15521  chainID */\n      dup4\n        /* \"Tokenrenacecoin/tokenrenacecoin.sol\":15531:15535  this */\n      address\n        /* \"Tokenrenacecoin/tokenrenacecoin.sol\":15470:15537  abi.encode(typeHash, nameHash, versionHash, chainID, address(this)) */\n      add(0x20, mload(0x40))\n      dup1\n      dup7\n      dup2\n      mstore\n      0x20\n      add\n      dup6\n      dup2\n      mstore\n      0x20\n      add\n      dup5\n      dup2\n      mstore\n      0x20\n      add\n      dup4\n      dup2\n      mstore\n      0x20\n      add\n      dup3\n      0xffffffffffffffffffffffffffffffffffffffff\n      and\n      dup2\n      mstore\n      0x20\n      add\n      swap6\n      pop\n      pop\n      pop\n      pop\n      pop\n      pop\n      mload(0x40)\n      0x20\n      dup2\n      dup4\n      sub\n      sub\n      dup2\n      mstore\n      swap1\n      0x40\n      mstore\n        /* \"Tokenrenacecoin/tokenrenacecoin.sol\":15460:15538  keccak256(abi.encode(typeHash, nameHash, versionHash, chainID, address(this))) */\n      dup1\n      mload\n      swap1\n      0x20\n      add\n      keccak256\n        /* \"Tokenrenacecoin/tokenrenacecoin.sol\":15453:15538  return keccak256(abi.encode(typeHash, nameHash, versionHash, chainID, address(this))) */\n      swap2\n      pop\n      pop\n        /* \"Tokenrenacecoin/tokenrenacecoin.sol\":15196:15546  function _buildDomainSeparator(\r... */\n      swap4\n      swap3\n      pop\n      pop\n      pop\n      jump\t// out\n        /* \"Tokenrenacecoin/tokenrenacecoin.sol\":21807:21943  function sub(uint256 a, uint256 b) internal pure returns (uint256) {\r... */\n    tag_191:\n        /* \"Tokenrenacecoin/tokenrenacecoin.sol\":21865:21872  uint256 */\n      0x00\n        /* \"Tokenrenacecoin/tokenrenacecoin.sol\":21892:21935  sub(a, b, \"SafeMath: subtraction overflow\") */\n      tag_214\n        /* \"Tokenrenacecoin/tokenrenacecoin.sol\":21896:21897  a */\n      dup4\n        /* \"Tokenrenacecoin/tokenrenacecoin.sol\":21899:21900  b */\n      dup4\n        /* \"Tokenrenacecoin/tokenrenacecoin.sol\":21892:21935  sub(a, b, \"SafeMath: subtraction overflow\") */\n      mload(0x40)\n      dup1\n      0x40\n      add\n      0x40\n      mstore\n      dup1\n      0x1e\n      dup2\n      mstore\n      0x20\n      add\n      0x536166654d6174683a207375627472616374696f6e206f766572666c6f770000\n      dup2\n      mstore\n      pop\n        /* \"Tokenrenacecoin/tokenrenacecoin.sol\":21892:21895  sub */\n      tag_98\n        /* \"Tokenrenacecoin/tokenrenacecoin.sol\":21892:21935  sub(a, b, \"SafeMath: subtraction overflow\") */\n      jump\t// in\n    tag_214:\n        /* \"Tokenrenacecoin/tokenrenacecoin.sol\":21885:21935  return sub(a, b, \"SafeMath: subtraction overflow\") */\n      swap1\n      pop\n        /* \"Tokenrenacecoin/tokenrenacecoin.sol\":21807:21943  function sub(uint256 a, uint256 b) internal pure returns (uint256) {\r... */\n      swap3\n      swap2\n      pop\n      pop\n      jump\t// out\n        /* \"Tokenrenacecoin/tokenrenacecoin.sol\":23854:24035  function increment(Counter storage counter) internal {\r... */\n    tag_201:\n        /* \"Tokenrenacecoin/tokenrenacecoin.sol\":24026:24027  1 */\n      0x01\n        /* \"Tokenrenacecoin/tokenrenacecoin.sol\":24008:24015  counter */\n      dup2\n        /* \"Tokenrenacecoin/tokenrenacecoin.sol\":24008:24022  counter._value */\n      0x00\n      add\n      0x00\n        /* \"Tokenrenacecoin/tokenrenacecoin.sol\":24008:24027  counter._value += 1 */\n      dup3\n      dup3\n      sload\n      add\n      swap3\n      pop\n      pop\n      dup2\n      swap1\n      sstore\n      pop\n        /* \"Tokenrenacecoin/tokenrenacecoin.sol\":23854:24035  function increment(Counter storage counter) internal {\r... */\n      pop\n      jump\t// out\n        /* \"Tokenrenacecoin/tokenrenacecoin.sol\":11490:11686  function toTypedDataHash(bytes32 domainSeparator, bytes32 structHash) internal pure returns (bytes32) {\r... */\n    tag_205:\n        /* \"Tokenrenacecoin/tokenrenacecoin.sol\":11583:11590  bytes32 */\n      0x00\n        /* \"Tokenrenacecoin/tokenrenacecoin.sol\":11649:11664  domainSeparator */\n      dup3\n        /* \"Tokenrenacecoin/tokenrenacecoin.sol\":11666:11676  structHash */\n      dup3\n        /* \"Tokenrenacecoin/tokenrenacecoin.sol\":11620:11677  abi.encodePacked(\"\\x19\\x01\", domainSeparator, structHash) */\n      add(0x20, mload(0x40))\n      dup1\n      dup1\n      0x1901000000000000000000000000000000000000000000000000000000000000\n      dup2\n      mstore\n      pop\n      0x02\n      add\n      dup4\n      dup2\n      mstore\n      0x20\n      add\n      dup3\n      dup2\n      mstore\n      0x20\n      add\n      swap3\n      pop\n      pop\n      pop\n      mload(0x40)\n      0x20\n      dup2\n      dup4\n      sub\n      sub\n      dup2\n      mstore\n      swap1\n      0x40\n      mstore\n        /* \"Tokenrenacecoin/tokenrenacecoin.sol\":11610:11678  keccak256(abi.encodePacked(\"\\x19\\x01\", domainSeparator, structHash)) */\n      dup1\n      mload\n      swap1\n      0x20\n      add\n      keccak256\n        /* \"Tokenrenacecoin/tokenrenacecoin.sol\":11603:11678  return keccak256(abi.encodePacked(\"\\x19\\x01\", domainSeparator, structHash)) */\n      swap1\n      pop\n        /* \"Tokenrenacecoin/tokenrenacecoin.sol\":11490:11686  function toTypedDataHash(bytes32 domainSeparator, bytes32 structHash) internal pure returns (bytes32) {\r... */\n      swap3\n      swap2\n      pop\n      pop\n      jump\t// out\n        /* \"Tokenrenacecoin/tokenrenacecoin.sol\":8521:10153  function tryRecover(\r... */\n    tag_208:\n        /* \"Tokenrenacecoin/tokenrenacecoin.sol\":8652:8659  address */\n      0x00\n        /* \"Tokenrenacecoin/tokenrenacecoin.sol\":8661:8673  RecoverError */\n      dup1\n        /* \"Tokenrenacecoin/tokenrenacecoin.sol\":9586:9652  0x7FFFFFFFFFFFFFFFFFFFFFFFFFFFFFFF5D576E7357A4501DDFE92F46681B20A0 */\n      0x7fffffffffffffffffffffffffffffff5d576e7357a4501ddfe92f46681b20a0\n        /* \"Tokenrenacecoin/tokenrenacecoin.sol\":9581:9582  s */\n      dup4\n        /* \"Tokenrenacecoin/tokenrenacecoin.sol\":9573:9583  uint256(s) */\n      0x00\n      shr\n        /* \"Tokenrenacecoin/tokenrenacecoin.sol\":9573:9652  uint256(s) > 0x7FFFFFFFFFFFFFFFFFFFFFFFFFFFFFFF5D576E7357A4501DDFE92F46681B20A0 */\n      gt\n        /* \"Tokenrenacecoin/tokenrenacecoin.sol\":9569:9732  if (uint256(s) > 0x7FFFFFFFFFFFFFFFFFFFFFFFFFFFFFFF5D576E7357A4501DDFE92F46681B20A0) {\r... */\n      iszero\n      tag_218\n      jumpi\n        /* \"Tokenrenacecoin/tokenrenacecoin.sol\":9685:9686  0 */\n      0x00\n        /* \"Tokenrenacecoin/tokenrenacecoin.sol\":9689:9719  RecoverError.InvalidSignatureS */\n      0x03\n        /* \"Tokenrenacecoin/tokenrenacecoin.sol\":9669:9720  return (address(0), RecoverError.InvalidSignatureS) */\n      swap2\n      pop\n      swap2\n      pop\n      jump(tag_217)\n        /* \"Tokenrenacecoin/tokenrenacecoin.sol\":9569:9732  if (uint256(s) > 0x7FFFFFFFFFFFFFFFFFFFFFFFFFFFFFFF5D576E7357A4501DDFE92F46681B20A0) {\r... */\n    tag_218:\n        /* \"Tokenrenacecoin/tokenrenacecoin.sol\":9751:9753  27 */\n      0x1b\n        /* \"Tokenrenacecoin/tokenrenacecoin.sol\":9746:9747  v */\n      dup6\n        /* \"Tokenrenacecoin/tokenrenacecoin.sol\":9746:9753  v != 27 */\n      0xff\n      and\n      eq\n      iszero\n        /* \"Tokenrenacecoin/tokenrenacecoin.sol\":9746:9764  v != 27 && v != 28 */\n      dup1\n      iszero\n      tag_219\n      jumpi\n      pop\n        /* \"Tokenrenacecoin/tokenrenacecoin.sol\":9762:9764  28 */\n      0x1c\n        /* \"Tokenrenacecoin/tokenrenacecoin.sol\":9757:9758  v */\n      dup6\n        /* \"Tokenrenacecoin/tokenrenacecoin.sol\":9757:9764  v != 28 */\n      0xff\n      and\n      eq\n      iszero\n        /* \"Tokenrenacecoin/tokenrenacecoin.sol\":9746:9764  v != 27 && v != 28 */\n    tag_219:\n        /* \"Tokenrenacecoin/tokenrenacecoin.sol\":9742:9844  if (v != 27 && v != 28) {\r... */\n      iszero\n      tag_220\n      jumpi\n        /* \"Tokenrenacecoin/tokenrenacecoin.sol\":9797:9798  0 */\n      0x00\n        /* \"Tokenrenacecoin/tokenrenacecoin.sol\":9801:9831  RecoverError.InvalidSignatureV */\n      0x04\n        /* \"Tokenrenacecoin/tokenrenacecoin.sol\":9781:9832  return (address(0), RecoverError.InvalidSignatureV) */\n      swap2\n      pop\n      swap2\n      pop\n      jump(tag_217)\n        /* \"Tokenrenacecoin/tokenrenacecoin.sol\":9742:9844  if (v != 27 && v != 28) {\r... */\n    tag_220:\n        /* \"Tokenrenacecoin/tokenrenacecoin.sol\":9941:9955  address signer */\n      0x00\n        /* \"Tokenrenacecoin/tokenrenacecoin.sol\":9958:9982  ecrecover(hash, v, r, s) */\n      0x01\n        /* \"Tokenrenacecoin/tokenrenacecoin.sol\":9968:9972  hash */\n      dup8\n        /* \"Tokenrenacecoin/tokenrenacecoin.sol\":9974:9975  v */\n      dup8\n        /* \"Tokenrenacecoin/tokenrenacecoin.sol\":9977:9978  r */\n      dup8\n        /* \"Tokenrenacecoin/tokenrenacecoin.sol\":9980:9981  s */\n      dup8\n        /* \"Tokenrenacecoin/tokenrenacecoin.sol\":9958:9982  ecrecover(hash, v, r, s) */\n      mload(0x40)\n      0x00\n      dup2\n      mstore\n      0x20\n      add\n      0x40\n      mstore\n      mload(0x40)\n      dup1\n      dup6\n      dup2\n      mstore\n      0x20\n      add\n      dup5\n      0xff\n      and\n      dup2\n      mstore\n      0x20\n      add\n      dup4\n      dup2\n      mstore\n      0x20\n      add\n      dup3\n      dup2\n      mstore\n      0x20\n      add\n      swap5\n      pop\n      pop\n      pop\n      pop\n      pop\n      0x20\n      mload(0x40)\n      0x20\n      dup2\n      sub\n      swap1\n      dup1\n      dup5\n      sub\n      swap1\n      dup6\n      gas\n      staticcall\n      iszero\n      dup1\n      iszero\n      tag_222\n      jumpi\n      returndatasize\n      0x00\n      dup1\n      returndatacopy\n      revert(0x00, returndatasize)\n    tag_222:\n      pop\n      pop\n      pop\n      mload(sub(mload(0x40), 0x20))\n        /* \"Tokenrenacecoin/tokenrenacecoin.sol\":9941:9982  address signer = ecrecover(hash, v, r, s) */\n      swap1\n      pop\n        /* \"Tokenrenacecoin/tokenrenacecoin.sol\":10015:10016  0 */\n      0x00\n        /* \"Tokenrenacecoin/tokenrenacecoin.sol\":9997:10017  signer == address(0) */\n      0xffffffffffffffffffffffffffffffffffffffff\n      and\n        /* \"Tokenrenacecoin/tokenrenacecoin.sol\":9997:10003  signer */\n      dup2\n        /* \"Tokenrenacecoin/tokenrenacecoin.sol\":9997:10017  signer == address(0) */\n      0xffffffffffffffffffffffffffffffffffffffff\n      and\n      eq\n        /* \"Tokenrenacecoin/tokenrenacecoin.sol\":9993:10096  if (signer == address(0)) {\r... */\n      iszero\n      tag_223\n      jumpi\n        /* \"Tokenrenacecoin/tokenrenacecoin.sol\":10050:10051  0 */\n      0x00\n        /* \"Tokenrenacecoin/tokenrenacecoin.sol\":10054:10083  RecoverError.InvalidSignature */\n      0x01\n        /* \"Tokenrenacecoin/tokenrenacecoin.sol\":10034:10084  return (address(0), RecoverError.InvalidSignature) */\n      swap3\n      pop\n      swap3\n      pop\n      pop\n      jump(tag_217)\n        /* \"Tokenrenacecoin/tokenrenacecoin.sol\":9993:10096  if (signer == address(0)) {\r... */\n    tag_223:\n        /* \"Tokenrenacecoin/tokenrenacecoin.sol\":10116:10122  signer */\n      dup1\n        /* \"Tokenrenacecoin/tokenrenacecoin.sol\":10124:10144  RecoverError.NoError */\n      0x00\n        /* \"Tokenrenacecoin/tokenrenacecoin.sol\":10108:10145  return (signer, RecoverError.NoError) */\n      swap3\n      pop\n      swap3\n      pop\n      pop\n        /* \"Tokenrenacecoin/tokenrenacecoin.sol\":8521:10153  function tryRecover(\r... */\n    tag_217:\n      swap5\n      pop\n      swap5\n      swap3\n      pop\n      pop\n      pop\n      jump\t// out\n        /* \"Tokenrenacecoin/tokenrenacecoin.sol\":3183:3826  function _throwError(RecoverError error) private pure {\r... */\n    tag_210:\n        /* \"Tokenrenacecoin/tokenrenacecoin.sol\":3261:3281  RecoverError.NoError */\n      0x00\n        /* \"Tokenrenacecoin/tokenrenacecoin.sol\":3252:3281  error == RecoverError.NoError */\n      0x04\n      dup2\n      gt\n      iszero\n      tag_225\n      jumpi\n      invalid\n    tag_225:\n        /* \"Tokenrenacecoin/tokenrenacecoin.sol\":3252:3257  error */\n      dup2\n        /* \"Tokenrenacecoin/tokenrenacecoin.sol\":3252:3281  error == RecoverError.NoError */\n      0x04\n      dup2\n      gt\n      iszero\n      tag_226\n      jumpi\n      invalid\n    tag_226:\n      eq\n        /* \"Tokenrenacecoin/tokenrenacecoin.sol\":3248:3819  if (error == RecoverError.NoError) {\r... */\n      iszero\n      tag_227\n      jumpi\n        /* \"Tokenrenacecoin/tokenrenacecoin.sol\":3298:3305  return; */\n      jump(tag_224)\n        /* \"Tokenrenacecoin/tokenrenacecoin.sol\":3248:3819  if (error == RecoverError.NoError) {\r... */\n    tag_227:\n        /* \"Tokenrenacecoin/tokenrenacecoin.sol\":3359:3388  RecoverError.InvalidSignature */\n      0x01\n        /* \"Tokenrenacecoin/tokenrenacecoin.sol\":3350:3388  error == RecoverError.InvalidSignature */\n      0x04\n      dup2\n      gt\n      iszero\n      tag_229\n      jumpi\n      invalid\n    tag_229:\n        /* \"Tokenrenacecoin/tokenrenacecoin.sol\":3350:3355  error */\n      dup2\n        /* \"Tokenrenacecoin/tokenrenacecoin.sol\":3350:3388  error == RecoverError.InvalidSignature */\n      0x04\n      dup2\n      gt\n      iszero\n      tag_230\n      jumpi\n      invalid\n    tag_230:\n      eq\n        /* \"Tokenrenacecoin/tokenrenacecoin.sol\":3346:3819  if (error == RecoverError.InvalidSignature) {\r... */\n      iszero\n      tag_231\n      jumpi\n        /* \"Tokenrenacecoin/tokenrenacecoin.sol\":3405:3439  revert(\"ECDSA: invalid signature\") */\n      mload(0x40)\n      0x08c379a000000000000000000000000000000000000000000000000000000000\n      dup2\n      mstore\n      0x04\n      add\n      dup1\n      dup1\n      0x20\n      add\n      dup3\n      dup2\n      sub\n      dup3\n      mstore\n      0x18\n      dup2\n      mstore\n      0x20\n      add\n      dup1\n      0x45434453413a20696e76616c6964207369676e61747572650000000000000000\n      dup2\n      mstore\n      pop\n      0x20\n      add\n      swap2\n      pop\n      pop\n      mload(0x40)\n      dup1\n      swap2\n      sub\n      swap1\n      revert\n        /* \"Tokenrenacecoin/tokenrenacecoin.sol\":3346:3819  if (error == RecoverError.InvalidSignature) {\r... */\n    tag_231:\n        /* \"Tokenrenacecoin/tokenrenacecoin.sol\":3470:3505  RecoverError.InvalidSignatureLength */\n      0x02\n        /* \"Tokenrenacecoin/tokenrenacecoin.sol\":3461:3505  error == RecoverError.InvalidSignatureLength */\n      0x04\n      dup2\n      gt\n      iszero\n      tag_233\n      jumpi\n      invalid\n    tag_233:\n        /* \"Tokenrenacecoin/tokenrenacecoin.sol\":3461:3466  error */\n      dup2\n        /* \"Tokenrenacecoin/tokenrenacecoin.sol\":3461:3505  error == RecoverError.InvalidSignatureLength */\n      0x04\n      dup2\n      gt\n      iszero\n      tag_234\n      jumpi\n      invalid\n    tag_234:\n      eq\n        /* \"Tokenrenacecoin/tokenrenacecoin.sol\":3457:3819  if (error == RecoverError.InvalidSignatureLength) {\r... */\n      iszero\n      tag_235\n      jumpi\n        /* \"Tokenrenacecoin/tokenrenacecoin.sol\":3522:3563  revert(\"ECDSA: invalid signature length\") */\n      mload(0x40)\n      0x08c379a000000000000000000000000000000000000000000000000000000000\n      dup2\n      mstore\n      0x04\n      add\n      dup1\n      dup1\n      0x20\n      add\n      dup3\n      dup2\n      sub\n      dup3\n      mstore\n      0x1f\n      dup2\n      mstore\n      0x20\n      add\n      dup1\n      0x45434453413a20696e76616c6964207369676e6174757265206c656e67746800\n      dup2\n      mstore\n      pop\n      0x20\n      add\n      swap2\n      pop\n      pop\n      mload(0x40)\n      dup1\n      swap2\n      sub\n      swap1\n      revert\n        /* \"Tokenrenacecoin/tokenrenacecoin.sol\":3457:3819  if (error == RecoverError.InvalidSignatureLength) {\r... */\n    tag_235:\n        /* \"Tokenrenacecoin/tokenrenacecoin.sol\":3594:3624  RecoverError.InvalidSignatureS */\n      0x03\n        /* \"Tokenrenacecoin/tokenrenacecoin.sol\":3585:3624  error == RecoverError.InvalidSignatureS */\n      0x04\n      dup2\n      gt\n      iszero\n      tag_237\n      jumpi\n      invalid\n    tag_237:\n        /* \"Tokenrenacecoin/tokenrenacecoin.sol\":3585:3590  error */\n      dup2\n        /* \"Tokenrenacecoin/tokenrenacecoin.sol\":3585:3624  error == RecoverError.InvalidSignatureS */\n      0x04\n      dup2\n      gt\n      iszero\n      tag_238\n      jumpi\n      invalid\n    tag_238:\n      eq\n        /* \"Tokenrenacecoin/tokenrenacecoin.sol\":3581:3819  if (error == RecoverError.InvalidSignatureS) {\r... */\n      iszero\n      tag_239\n      jumpi\n        /* \"Tokenrenacecoin/tokenrenacecoin.sol\":3641:3685  revert(\"ECDSA: invalid signature 's' value\") */\n      mload(0x40)\n      0x08c379a000000000000000000000000000000000000000000000000000000000\n      dup2\n      mstore\n      0x04\n      add\n      dup1\n      dup1\n      0x20\n      add\n      dup3\n      dup2\n      sub\n      dup3\n      mstore\n      0x22\n      dup2\n      mstore\n      0x20\n      add\n      dup1\n      data_520d1f787dbcafbbfc007fd2c4ecf3d2711ec587f3ee9a1215c0b646c3e530bd\n      0x22\n      swap2\n      codecopy\n      0x40\n      add\n      swap2\n      pop\n      pop\n      mload(0x40)\n      dup1\n      swap2\n      sub\n      swap1\n      revert\n        /* \"Tokenrenacecoin/tokenrenacecoin.sol\":3581:3819  if (error == RecoverError.InvalidSignatureS) {\r... */\n    tag_239:\n        /* \"Tokenrenacecoin/tokenrenacecoin.sol\":3716:3746  RecoverError.InvalidSignatureV */\n      0x04\n        /* \"Tokenrenacecoin/tokenrenacecoin.sol\":3707:3746  error == RecoverError.InvalidSignatureV */\n      dup1\n      dup2\n      gt\n      iszero\n      tag_241\n      jumpi\n      invalid\n    tag_241:\n        /* \"Tokenrenacecoin/tokenrenacecoin.sol\":3707:3712  error */\n      dup2\n        /* \"Tokenrenacecoin/tokenrenacecoin.sol\":3707:3746  error == RecoverError.InvalidSignatureV */\n      0x04\n      dup2\n      gt\n      iszero\n      tag_242\n      jumpi\n      invalid\n    tag_242:\n      eq\n        /* \"Tokenrenacecoin/tokenrenacecoin.sol\":3703:3819  if (error == RecoverError.InvalidSignatureV) {\r... */\n      iszero\n      tag_243\n      jumpi\n        /* \"Tokenrenacecoin/tokenrenacecoin.sol\":3763:3807  revert(\"ECDSA: invalid signature 'v' value\") */\n      mload(0x40)\n      0x08c379a000000000000000000000000000000000000000000000000000000000\n      dup2\n      mstore\n      0x04\n      add\n      dup1\n      dup1\n      0x20\n      add\n      dup3\n      dup2\n      sub\n      dup3\n      mstore\n      0x22\n      dup2\n      mstore\n      0x20\n      add\n      dup1\n      data_8522ee1b53216f595394db8e80a64d9e7d9bd512c0811c18debe9f40858597e4\n      0x22\n      swap2\n      codecopy\n      0x40\n      add\n      swap2\n      pop\n      pop\n      mload(0x40)\n      dup1\n      swap2\n      sub\n      swap1\n      revert\n        /* \"Tokenrenacecoin/tokenrenacecoin.sol\":3703:3819  if (error == RecoverError.InvalidSignatureV) {\r... */\n    tag_243:\n        /* \"Tokenrenacecoin/tokenrenacecoin.sol\":3183:3826  function _throwError(RecoverError error) private pure {\r... */\n    tag_224:\n      pop\n      jump\t// out\n    stop\n    data_0557e210f7a69a685100a7e4e3d0a7024c546085cee28910fd17d0b081d9516f 45524332303a207472616e7366657220746f20746865207a65726f2061646472657373\n    data_149b126e7125232b4200af45303d04fba8b74653b1a295a6a561a528c33fefdd 45524332303a206275726e20616d6f756e7420657863656564732062616c616e6365\n    data_24883cc5fe64ace9d0df1893501ecb93c77180f0ff69cca79affb3c316dc8029 45524332303a20617070726f766520746f20746865207a65726f2061646472657373\n    data_4107e8a8b9e94bf8ff83080ddec1c0bffe897ebc2241b89d44f66b3d274088b6 45524332303a207472616e7366657220616d6f756e7420657863656564732062616c616e6365\n    data_520d1f787dbcafbbfc007fd2c4ecf3d2711ec587f3ee9a1215c0b646c3e530bd 45434453413a20696e76616c6964207369676e6174757265202773272076616c7565\n    data_8522ee1b53216f595394db8e80a64d9e7d9bd512c0811c18debe9f40858597e4 45434453413a20696e76616c6964207369676e6174757265202776272076616c7565\n    data_974d1b4421da69cc60b481194f0dad36a5bb4e23da810da7a7fb30cdba178330 45524332303a207472616e7366657220616d6f756e74206578636565647320616c6c6f77616e6365\n    data_a287c363786607a1457a2d9d12fa61c0073358e02d76b4035fc2c2d86a19c0db 45524332303a206275726e20616d6f756e74206578636565647320616c6c6f77616e6365\n    data_b16788493b576042bb52c50ed56189e0b250db113c7bfb1c3897d25cf9632d7f 45524332303a206275726e2066726f6d20746865207a65726f2061646472657373\n    data_baecc556b46f4ed0f2b4cb599d60785ac8563dd2dc0a5bf12edea1c39e5e1fea 45524332303a207472616e736665722066726f6d20746865207a65726f2061646472657373\n    data_c953f4879035ed60e766b34720f656aab5c697b141d924c283124ecedb91c208 45524332303a20617070726f76652066726f6d20746865207a65726f2061646472657373\n    data_f8b476f7d28209d77d4a4ac1fe36b9f8259aa1bb6bddfa6e89de7e51615cf8a8 45524332303a2064656372656173656420616c6c6f77616e63652062656c6f77207a65726f\n\n    auxdata: 0xa26469706673582212208cb6e5cab6baf46a345afd455b4770fb09db814a2add6e04a30ae1041e4cc70164736f6c63430007050033\n}\n",
				"bytecode": {
					"linkReferences": {},
					"object": "6101606040527f6e71edae12b1b97f4d1f60370fef10105fa2faae0126114a169c64845d6126c9610140908152506040518060400160405280600c81526020017f554e415554484f52495a45440000000000000000000000000000000000000000815250600690805190602001906200007a929190620005e8565b503480156200008857600080fd5b5060405162002b3d38038062002b3d83398181016040526020811015620000ae57600080fd5b8101908080519060200190929190505050806040518060400160405280600a81526020017f52454e414345434f494e00000000000000000000000000000000000000000000815250806040518060400160405280600181526020017f31000000000000000000000000000000000000000000000000000000000000008152506040518060400160405280600a81526020017f52454e414345434f494e000000000000000000000000000000000000000000008152506040518060400160405280600381526020017f524e43000000000000000000000000000000000000000000000000000000000081525060128260039080519060200190620001b3929190620005e8565b508160049080519060200190620001cc929190620005e8565b508060ff1660808160ff1660f81b81525050505050600046905060008380519060200120905060008380519060200120905060007f8b73c3c69bb8fe3d512ecc4cf759cc79239f7b179b0ffacaa9a75d522b39400f90508260e081815250508161010081815250508360c081815250506200024f8184846200030f60201b60201c565b60a081815250508061012081815250505050505050505080600760006101000a81548173ffffffffffffffffffffffffffffffffffffffff021916908373ffffffffffffffffffffffffffffffffffffffff1602179055508073ffffffffffffffffffffffffffffffffffffffff167f2f658b440c35314f52658ea8a740e05b284cdc84dc9ae01e891f21b8933e7cad60405160405180910390a25062000308816aa56fa5b99019a5c80000006200037c60201b60201c565b506200069e565b6000804690508484848330604051602001808681526020018581526020018481526020018381526020018273ffffffffffffffffffffffffffffffffffffffff16815260200195505050505050604051602081830303815290604052805190602001209150509392505050565b600073ffffffffffffffffffffffffffffffffffffffff168273ffffffffffffffffffffffffffffffffffffffff16141562000420576040517f08c379a000000000000000000000000000000000000000000000000000000000815260040180806020018281038252601f8152602001807f45524332303a206d696e7420746f20746865207a65726f20616464726573730081525060200191505060405180910390fd5b62000434600083836200055a60201b60201c565b62000450816002546200055f60201b620012971790919060201c565b600281905550620004ae816000808573ffffffffffffffffffffffffffffffffffffffff1673ffffffffffffffffffffffffffffffffffffffff168152602001908152602001600020546200055f60201b620012971790919060201c565b6000808473ffffffffffffffffffffffffffffffffffffffff1673ffffffffffffffffffffffffffffffffffffffff168152602001908152602001600020819055508173ffffffffffffffffffffffffffffffffffffffff16600073ffffffffffffffffffffffffffffffffffffffff167fddf252ad1be2c89b69c2b068fc378daa952ba7f163c4a11628f55a4df523b3ef836040518082815260200191505060405180910390a35050565b505050565b600080828401905083811015620005de576040517f08c379a000000000000000000000000000000000000000000000000000000000815260040180806020018281038252601b8152602001807f536166654d6174683a206164646974696f6e206f766572666c6f77000000000081525060200191505060405180910390fd5b8091505092915050565b828054600181600116156101000203166002900490600052602060002090601f0160209004810192826200062057600085556200066c565b82601f106200063b57805160ff19168380011785556200066c565b828001600101855582156200066c579182015b828111156200066b5782518255916020019190600101906200064e565b5b5090506200067b91906200067f565b5090565b5b808211156200069a57600081600090555060010162000680565b5090565b60805160f81c60a05160c05160e051610100516101205161014051612448620006f5600039806110985250806118f352508061193552508061191452508061189f5250806118c752508061093252506124486000f3fe608060405234801561001057600080fd5b50600436106101215760003560e01c806370a08231116100ad578063a457c2d711610071578063a457c2d714610593578063a9059cbb146105f7578063bf7e214f1461065b578063d505accf1461068f578063dd62ed3e1461072857610121565b806370a08231146103ce57806379cc6790146104265780637a9e5e4b146104745780637ecebe00146104b857806395d89b411461051057610121565b8063313ce567116100f4578063313ce567146102af5780633644e515146102d057806339509351146102ee57806340c10f191461035257806342966c68146103a057610121565b806306fdde0314610126578063095ea7b3146101a957806318160ddd1461020d57806323b872dd1461022b575b600080fd5b61012e6107a0565b6040518080602001828103825283818151815260200191508051906020019080838360005b8381101561016e578082015181840152602081019050610153565b50505050905090810190601f16801561019b5780820380516001836020036101000a031916815260200191505b509250505060405180910390f35b6101f5600480360360408110156101bf57600080fd5b81019080803573ffffffffffffffffffffffffffffffffffffffff16906020019092919080359060200190929190505050610842565b60405180821515815260200191505060405180910390f35b610215610859565b6040518082815260200191505060405180910390f35b6102976004803603606081101561024157600080fd5b81019080803573ffffffffffffffffffffffffffffffffffffffff169060200190929190803573ffffffffffffffffffffffffffffffffffffffff16906020019092919080359060200190929190505050610863565b60405180821515815260200191505060405180910390f35b6102b761092e565b604051808260ff16815260200191505060405180910390f35b6102d8610956565b6040518082815260200191505060405180910390f35b61033a6004803603604081101561030457600080fd5b81019080803573ffffffffffffffffffffffffffffffffffffffff16906020019092919080359060200190929190505050610965565b60405180821515815260200191505060405180910390f35b61039e6004803603604081101561036857600080fd5b81019080803573ffffffffffffffffffffffffffffffffffffffff16906020019092919080359060200190929190505050610a0a565b005b6103cc600480360360208110156103b657600080fd5b8101908080359060200190929190505050610baf565b005b610410600480360360208110156103e457600080fd5b81019080803573ffffffffffffffffffffffffffffffffffffffff169060200190929190505050610bbc565b6040518082815260200191505060405180910390f35b6104726004803603604081101561043c57600080fd5b81019080803573ffffffffffffffffffffffffffffffffffffffff16906020019092919080359060200190929190505050610c04565b005b6104b66004803603602081101561048a57600080fd5b81019080803573ffffffffffffffffffffffffffffffffffffffff169060200190929190505050610c12565b005b6104fa600480360360208110156104ce57600080fd5b81019080803573ffffffffffffffffffffffffffffffffffffffff169060200190929190505050610e30565b6040518082815260200191505060405180910390f35b610518610e80565b6040518080602001828103825283818151815260200191508051906020019080838360005b8381101561055857808201518184015260208101905061053d565b50505050905090810190601f1680156105855780820380516001836020036101000a031916815260200191505b509250505060405180910390f35b6105df600480360360408110156105a957600080fd5b81019080803573ffffffffffffffffffffffffffffffffffffffff16906020019092919080359060200190929190505050610f22565b60405180821515815260200191505060405180910390f35b6106436004803603604081101561060d57600080fd5b81019080803573ffffffffffffffffffffffffffffffffffffffff16906020019092919080359060200190929190505050610fe1565b60405180821515815260200191505060405180910390f35b610663610ff8565b604051808273ffffffffffffffffffffffffffffffffffffffff16815260200191505060405180910390f35b610726600480360360e08110156106a557600080fd5b81019080803573ffffffffffffffffffffffffffffffffffffffff169060200190929190803573ffffffffffffffffffffffffffffffffffffffff1690602001909291908035906020019092919080359060200190929190803560ff169060200190929190803590602001909291908035906020019092919050505061101e565b005b61078a6004803603604081101561073e57600080fd5b81019080803573ffffffffffffffffffffffffffffffffffffffff169060200190929190803573ffffffffffffffffffffffffffffffffffffffff169060200190929190505050611210565b6040518082815260200191505060405180910390f35b606060038054600181600116156101000203166002900480601f0160208091040260200160405190810160405280929190818152602001828054600181600116156101000203166002900480156108385780601f1061080d57610100808354040283529160200191610838565b820191906000526020600020905b81548152906001019060200180831161081b57829003601f168201915b5050505050905090565b600061084f33848461131f565b6001905092915050565b6000600254905090565b6000610870848484611516565b610923843361091e8560405180606001604052806028815260200161233860289139600160008b73ffffffffffffffffffffffffffffffffffffffff1673ffffffffffffffffffffffffffffffffffffffff16815260200190815260200160002060003373ffffffffffffffffffffffffffffffffffffffff1673ffffffffffffffffffffffffffffffffffffffff168152602001908152602001600020546117d79092919063ffffffff16565b61131f565b600190509392505050565b60007f0000000000000000000000000000000000000000000000000000000000000000905090565b6000610960611897565b905090565b6000610a0033846109fb85600160003373ffffffffffffffffffffffffffffffffffffffff1673ffffffffffffffffffffffffffffffffffffffff16815260200190815260200160002060008973ffffffffffffffffffffffffffffffffffffffff1673ffffffffffffffffffffffffffffffffffffffff1681526020019081526020016000205461129790919063ffffffff16565b61131f565b6001905092915050565b600760009054906101000a900473ffffffffffffffffffffffffffffffffffffffff1673ffffffffffffffffffffffffffffffffffffffff1663fbfa77cf6040518163ffffffff1660e01b815260040160206040518083038186803b158015610a7257600080fd5b505afa158015610a86573d6000803e3d6000fd5b505050506040513d6020811015610a9c57600080fd5b810190808051906020019092919050505073ffffffffffffffffffffffffffffffffffffffff163373ffffffffffffffffffffffffffffffffffffffff1614600690610ba0576040517f08c379a00000000000000000000000000000000000000000000000000000000081526004018080602001828103825283818154600181600116156101000203166002900481526020019150805460018160011615610100020316600290048015610b915780601f10610b6657610100808354040283529160200191610b91565b820191906000526020600020905b815481529060010190602001808311610b7457829003601f168201915b50509250505060405180910390fd5b50610bab8282611960565b5050565b610bb93382611b27565b50565b60008060008373ffffffffffffffffffffffffffffffffffffffff1673ffffffffffffffffffffffffffffffffffffffff168152602001908152602001600020549050919050565b610c0e8282611ceb565b5050565b600760009054906101000a900473ffffffffffffffffffffffffffffffffffffffff1673ffffffffffffffffffffffffffffffffffffffff16630c340a246040518163ffffffff1660e01b815260040160206040518083038186803b158015610c7a57600080fd5b505afa158015610c8e573d6000803e3d6000fd5b505050506040513d6020811015610ca457600080fd5b810190808051906020019092919050505073ffffffffffffffffffffffffffffffffffffffff163373ffffffffffffffffffffffffffffffffffffffff1614600690610da8576040517f08c379a00000000000000000000000000000000000000000000000000000000081526004018080602001828103825283818154600181600116156101000203166002900481526020019150805460018160011615610100020316600290048015610d995780601f10610d6e57610100808354040283529160200191610d99565b820191906000526020600020905b815481529060010190602001808311610d7c57829003601f168201915b50509250505060405180910390fd5b5080600760006101000a81548173ffffffffffffffffffffffffffffffffffffffff021916908373ffffffffffffffffffffffffffffffffffffffff1602179055508073ffffffffffffffffffffffffffffffffffffffff167f2f658b440c35314f52658ea8a740e05b284cdc84dc9ae01e891f21b8933e7cad60405160405180910390a250565b6000610e79600560008473ffffffffffffffffffffffffffffffffffffffff1673ffffffffffffffffffffffffffffffffffffffff168152602001908152602001600020611d3f565b9050919050565b606060048054600181600116156101000203166002900480601f016020809104026020016040519081016040528092919081815260200182805460018160011615610100020316600290048015610f185780601f10610eed57610100808354040283529160200191610f18565b820191906000526020600020905b815481529060010190602001808311610efb57829003601f168201915b5050505050905090565b6000610fd73384610fd2856040518060600160405280602581526020016123ee60259139600160003373ffffffffffffffffffffffffffffffffffffffff1673ffffffffffffffffffffffffffffffffffffffff16815260200190815260200160002060008a73ffffffffffffffffffffffffffffffffffffffff1673ffffffffffffffffffffffffffffffffffffffff168152602001908152602001600020546117d79092919063ffffffff16565b61131f565b6001905092915050565b6000610fee338484611516565b6001905092915050565b600760009054906101000a900473ffffffffffffffffffffffffffffffffffffffff1681565b83421115611094576040517f08c379a000000000000000000000000000000000000000000000000000000000815260040180806020018281038252601d8152602001807f45524332305065726d69743a206578706972656420646561646c696e6500000081525060200191505060405180910390fd5b60007f00000000000000000000000000000000000000000000000000000000000000008888886110c38c611d4d565b89604051602001808781526020018673ffffffffffffffffffffffffffffffffffffffff1681526020018573ffffffffffffffffffffffffffffffffffffffff1681526020018481526020018381526020018281526020019650505050505050604051602081830303815290604052805190602001209050600061114682611dab565b9050600061115682878787611dc5565b90508973ffffffffffffffffffffffffffffffffffffffff168173ffffffffffffffffffffffffffffffffffffffff16146111f9576040517f08c379a000000000000000000000000000000000000000000000000000000000815260040180806020018281038252601e8152602001807f45524332305065726d69743a20696e76616c6964207369676e6174757265000081525060200191505060405180910390fd5b6112048a8a8a61131f565b50505050505050505050565b6000600160008473ffffffffffffffffffffffffffffffffffffffff1673ffffffffffffffffffffffffffffffffffffffff16815260200190815260200160002060008373ffffffffffffffffffffffffffffffffffffffff1673ffffffffffffffffffffffffffffffffffffffff16815260200190815260200160002054905092915050565b600080828401905083811015611315576040517f08c379a000000000000000000000000000000000000000000000000000000000815260040180806020018281038252601b8152602001807f536166654d6174683a206164646974696f6e206f766572666c6f77000000000081525060200191505060405180910390fd5b8091505092915050565b600073ffffffffffffffffffffffffffffffffffffffff168373ffffffffffffffffffffffffffffffffffffffff1614156113a5576040517f08c379a00000000000000000000000000000000000000000000000000000000081526004018080602001828103825260248152602001806123ca6024913960400191505060405180910390fd5b600073ffffffffffffffffffffffffffffffffffffffff168273ffffffffffffffffffffffffffffffffffffffff16141561142b576040517f08c379a00000000000000000000000000000000000000000000000000000000081526004018080602001828103825260228152602001806122ac6022913960400191505060405180910390fd5b80600160008573ffffffffffffffffffffffffffffffffffffffff1673ffffffffffffffffffffffffffffffffffffffff16815260200190815260200160002060008473ffffffffffffffffffffffffffffffffffffffff1673ffffffffffffffffffffffffffffffffffffffff168152602001908152602001600020819055508173ffffffffffffffffffffffffffffffffffffffff168373ffffffffffffffffffffffffffffffffffffffff167f8c5be1e5ebec7d5bd14f71427d1e84f3dd0314c0f7b2291e5b200ac8c7c3b925836040518082815260200191505060405180910390a3505050565b600073ffffffffffffffffffffffffffffffffffffffff168373ffffffffffffffffffffffffffffffffffffffff16141561159c576040517f08c379a00000000000000000000000000000000000000000000000000000000081526004018080602001828103825260258152602001806123a56025913960400191505060405180910390fd5b600073ffffffffffffffffffffffffffffffffffffffff168273ffffffffffffffffffffffffffffffffffffffff161415611622576040517f08c379a00000000000000000000000000000000000000000000000000000000081526004018080602001828103825260238152602001806122676023913960400191505060405180910390fd5b61162d838383611df0565b611698816040518060600160405280602681526020016122ce602691396000808773ffffffffffffffffffffffffffffffffffffffff1673ffffffffffffffffffffffffffffffffffffffff168152602001908152602001600020546117d79092919063ffffffff16565b6000808573ffffffffffffffffffffffffffffffffffffffff1673ffffffffffffffffffffffffffffffffffffffff1681526020019081526020016000208190555061172b816000808573ffffffffffffffffffffffffffffffffffffffff1673ffffffffffffffffffffffffffffffffffffffff1681526020019081526020016000205461129790919063ffffffff16565b6000808473ffffffffffffffffffffffffffffffffffffffff1673ffffffffffffffffffffffffffffffffffffffff168152602001908152602001600020819055508173ffffffffffffffffffffffffffffffffffffffff168373ffffffffffffffffffffffffffffffffffffffff167fddf252ad1be2c89b69c2b068fc378daa952ba7f163c4a11628f55a4df523b3ef836040518082815260200191505060405180910390a3505050565b6000838311158290611884576040517f08c379a00000000000000000000000000000000000000000000000000000000081526004018080602001828103825283818151815260200191508051906020019080838360005b8381101561184957808201518184015260208101905061182e565b50505050905090810190601f1680156118765780820380516001836020036101000a031916815260200191505b509250505060405180910390fd5b5060008385039050809150509392505050565b6000804690507f00000000000000000000000000000000000000000000000000000000000000008114156118ee577f000000000000000000000000000000000000000000000000000000000000000091505061195d565b6119597f00000000000000000000000000000000000000000000000000000000000000007f00000000000000000000000000000000000000000000000000000000000000007f0000000000000000000000000000000000000000000000000000000000000000611df5565b9150505b90565b600073ffffffffffffffffffffffffffffffffffffffff168273ffffffffffffffffffffffffffffffffffffffff161415611a03576040517f08c379a000000000000000000000000000000000000000000000000000000000815260040180806020018281038252601f8152602001807f45524332303a206d696e7420746f20746865207a65726f20616464726573730081525060200191505060405180910390fd5b611a0f60008383611df0565b611a248160025461129790919063ffffffff16565b600281905550611a7b816000808573ffffffffffffffffffffffffffffffffffffffff1673ffffffffffffffffffffffffffffffffffffffff1681526020019081526020016000205461129790919063ffffffff16565b6000808473ffffffffffffffffffffffffffffffffffffffff1673ffffffffffffffffffffffffffffffffffffffff168152602001908152602001600020819055508173ffffffffffffffffffffffffffffffffffffffff16600073ffffffffffffffffffffffffffffffffffffffff167fddf252ad1be2c89b69c2b068fc378daa952ba7f163c4a11628f55a4df523b3ef836040518082815260200191505060405180910390a35050565b600073ffffffffffffffffffffffffffffffffffffffff168273ffffffffffffffffffffffffffffffffffffffff161415611bad576040517f08c379a00000000000000000000000000000000000000000000000000000000081526004018080602001828103825260218152602001806123846021913960400191505060405180910390fd5b611bb982600083611df0565b611c248160405180606001604052806022815260200161228a602291396000808673ffffffffffffffffffffffffffffffffffffffff1673ffffffffffffffffffffffffffffffffffffffff168152602001908152602001600020546117d79092919063ffffffff16565b6000808473ffffffffffffffffffffffffffffffffffffffff1673ffffffffffffffffffffffffffffffffffffffff16815260200190815260200160002081905550611c7b81600254611e6290919063ffffffff16565b600281905550600073ffffffffffffffffffffffffffffffffffffffff168273ffffffffffffffffffffffffffffffffffffffff167fddf252ad1be2c89b69c2b068fc378daa952ba7f163c4a11628f55a4df523b3ef836040518082815260200191505060405180910390a35050565b6000611d238260405180606001604052806024815260200161236060249139611d148633611210565b6117d79092919063ffffffff16565b9050611d3083338361131f565b611d3a8383611b27565b505050565b600081600001549050919050565b600080600560008473ffffffffffffffffffffffffffffffffffffffff1673ffffffffffffffffffffffffffffffffffffffff1681526020019081526020016000209050611d9a81611d3f565b9150611da581611eac565b50919050565b6000611dbe611db8611897565b83611ec2565b9050919050565b6000806000611dd687878787611f23565b91509150611de381612045565b8192505050949350505050565b505050565b6000804690508484848330604051602001808681526020018581526020018481526020018381526020018273ffffffffffffffffffffffffffffffffffffffff16815260200195505050505050604051602081830303815290604052805190602001209150509392505050565b6000611ea483836040518060400160405280601e81526020017f536166654d6174683a207375627472616374696f6e206f766572666c6f7700008152506117d7565b905092915050565b6001816000016000828254019250508190555050565b6000828260405160200180807f19010000000000000000000000000000000000000000000000000000000000008152506002018381526020018281526020019250505060405160208183030381529060405280519060200120905092915050565b6000807f7fffffffffffffffffffffffffffffff5d576e7357a4501ddfe92f46681b20a08360001c1115611f5e57600060039150915061203c565b601b8560ff1614158015611f765750601c8560ff1614155b15611f8857600060049150915061203c565b600060018787878760405160008152602001604052604051808581526020018460ff1681526020018381526020018281526020019450505050506020604051602081039080840390855afa158015611fe4573d6000803e3d6000fd5b505050602060405103519050600073ffffffffffffffffffffffffffffffffffffffff168173ffffffffffffffffffffffffffffffffffffffff1614156120335760006001925092505061203c565b80600092509250505b94509492505050565b6000600481111561205257fe5b81600481111561205e57fe5b141561206957612263565b6001600481111561207657fe5b81600481111561208257fe5b14156120f6576040517f08c379a00000000000000000000000000000000000000000000000000000000081526004018080602001828103825260188152602001807f45434453413a20696e76616c6964207369676e6174757265000000000000000081525060200191505060405180910390fd5b6002600481111561210357fe5b81600481111561210f57fe5b1415612183576040517f08c379a000000000000000000000000000000000000000000000000000000000815260040180806020018281038252601f8152602001807f45434453413a20696e76616c6964207369676e6174757265206c656e6774680081525060200191505060405180910390fd5b6003600481111561219057fe5b81600481111561219c57fe5b14156121f3576040517f08c379a00000000000000000000000000000000000000000000000000000000081526004018080602001828103825260228152602001806122f46022913960400191505060405180910390fd5b6004808111156121ff57fe5b81600481111561220b57fe5b1415612262576040517f08c379a00000000000000000000000000000000000000000000000000000000081526004018080602001828103825260228152602001806123166022913960400191505060405180910390fd5b5b5056fe45524332303a207472616e7366657220746f20746865207a65726f206164647265737345524332303a206275726e20616d6f756e7420657863656564732062616c616e636545524332303a20617070726f766520746f20746865207a65726f206164647265737345524332303a207472616e7366657220616d6f756e7420657863656564732062616c616e636545434453413a20696e76616c6964207369676e6174757265202773272076616c756545434453413a20696e76616c6964207369676e6174757265202776272076616c756545524332303a207472616e7366657220616d6f756e74206578636565647320616c6c6f77616e636545524332303a206275726e20616d6f756e74206578636565647320616c6c6f77616e636545524332303a206275726e2066726f6d20746865207a65726f206164647265737345524332303a207472616e736665722066726f6d20746865207a65726f206164647265737345524332303a20617070726f76652066726f6d20746865207a65726f206164647265737345524332303a2064656372656173656420616c6c6f77616e63652062656c6f77207a65726fa26469706673582212208cb6e5cab6baf46a345afd455b4770fb09db814a2add6e04a30ae1041e4cc70164736f6c63430007050033",
					"opcodes": "PUSH2 0x160 PUSH1 0x40 MSTORE PUSH32 0x6E71EDAE12B1B97F4D1F60370FEF10105FA2FAAE0126114A169C64845D6126C9 PUSH2 0x140 SWAP1 DUP2 MSTORE POP PUSH1 0x40 MLOAD DUP1 PUSH1 0x40 ADD PUSH1 0x40 MSTORE DUP1 PUSH1 0xC DUP2 MSTORE PUSH1 0x20 ADD PUSH32 0x554E415554484F52495A45440000000000000000000000000000000000000000 DUP2 MSTORE POP PUSH1 0x6 SWAP1 DUP1 MLOAD SWAP1 PUSH1 0x20 ADD SWAP1 PUSH3 0x7A SWAP3 SWAP2 SWAP1 PUSH3 0x5E8 JUMP JUMPDEST POP CALLVALUE DUP1 ISZERO PUSH3 0x88 JUMPI PUSH1 0x0 DUP1 REVERT JUMPDEST POP PUSH1 0x40 MLOAD PUSH3 0x2B3D CODESIZE SUB DUP1 PUSH3 0x2B3D DUP4 CODECOPY DUP2 DUP2 ADD PUSH1 0x40 MSTORE PUSH1 0x20 DUP2 LT ISZERO PUSH3 0xAE JUMPI PUSH1 0x0 DUP1 REVERT JUMPDEST DUP2 ADD SWAP1 DUP1 DUP1 MLOAD SWAP1 PUSH1 0x20 ADD SWAP1 SWAP3 SWAP2 SWAP1 POP POP POP DUP1 PUSH1 0x40 MLOAD DUP1 PUSH1 0x40 ADD PUSH1 0x40 MSTORE DUP1 PUSH1 0xA DUP2 MSTORE PUSH1 0x20 ADD PUSH32 0x52454E414345434F494E00000000000000000000000000000000000000000000 DUP2 MSTORE POP DUP1 PUSH1 0x40 MLOAD DUP1 PUSH1 0x40 ADD PUSH1 0x40 MSTORE DUP1 PUSH1 0x1 DUP2 MSTORE PUSH1 0x20 ADD PUSH32 0x3100000000000000000000000000000000000000000000000000000000000000 DUP2 MSTORE POP PUSH1 0x40 MLOAD DUP1 PUSH1 0x40 ADD PUSH1 0x40 MSTORE DUP1 PUSH1 0xA DUP2 MSTORE PUSH1 0x20 ADD PUSH32 0x52454E414345434F494E00000000000000000000000000000000000000000000 DUP2 MSTORE POP PUSH1 0x40 MLOAD DUP1 PUSH1 0x40 ADD PUSH1 0x40 MSTORE DUP1 PUSH1 0x3 DUP2 MSTORE PUSH1 0x20 ADD PUSH32 0x524E430000000000000000000000000000000000000000000000000000000000 DUP2 MSTORE POP PUSH1 0x12 DUP3 PUSH1 0x3 SWAP1 DUP1 MLOAD SWAP1 PUSH1 0x20 ADD SWAP1 PUSH3 0x1B3 SWAP3 SWAP2 SWAP1 PUSH3 0x5E8 JUMP JUMPDEST POP DUP2 PUSH1 0x4 SWAP1 DUP1 MLOAD SWAP1 PUSH1 0x20 ADD SWAP1 PUSH3 0x1CC SWAP3 SWAP2 SWAP1 PUSH3 0x5E8 JUMP JUMPDEST POP DUP1 PUSH1 0xFF AND PUSH1 0x80 DUP2 PUSH1 0xFF AND PUSH1 0xF8 SHL DUP2 MSTORE POP POP POP POP POP PUSH1 0x0 CHAINID SWAP1 POP PUSH1 0x0 DUP4 DUP1 MLOAD SWAP1 PUSH1 0x20 ADD KECCAK256 SWAP1 POP PUSH1 0x0 DUP4 DUP1 MLOAD SWAP1 PUSH1 0x20 ADD KECCAK256 SWAP1 POP PUSH1 0x0 PUSH32 0x8B73C3C69BB8FE3D512ECC4CF759CC79239F7B179B0FFACAA9A75D522B39400F SWAP1 POP DUP3 PUSH1 0xE0 DUP2 DUP2 MSTORE POP POP DUP2 PUSH2 0x100 DUP2 DUP2 MSTORE POP POP DUP4 PUSH1 0xC0 DUP2 DUP2 MSTORE POP POP PUSH3 0x24F DUP2 DUP5 DUP5 PUSH3 0x30F PUSH1 0x20 SHL PUSH1 0x20 SHR JUMP JUMPDEST PUSH1 0xA0 DUP2 DUP2 MSTORE POP POP DUP1 PUSH2 0x120 DUP2 DUP2 MSTORE POP POP POP POP POP POP POP POP POP DUP1 PUSH1 0x7 PUSH1 0x0 PUSH2 0x100 EXP DUP2 SLOAD DUP2 PUSH20 0xFFFFFFFFFFFFFFFFFFFFFFFFFFFFFFFFFFFFFFFF MUL NOT AND SWAP1 DUP4 PUSH20 0xFFFFFFFFFFFFFFFFFFFFFFFFFFFFFFFFFFFFFFFF AND MUL OR SWAP1 SSTORE POP DUP1 PUSH20 0xFFFFFFFFFFFFFFFFFFFFFFFFFFFFFFFFFFFFFFFF AND PUSH32 0x2F658B440C35314F52658EA8A740E05B284CDC84DC9AE01E891F21B8933E7CAD PUSH1 0x40 MLOAD PUSH1 0x40 MLOAD DUP1 SWAP2 SUB SWAP1 LOG2 POP PUSH3 0x308 DUP2 PUSH11 0xA56FA5B99019A5C8000000 PUSH3 0x37C PUSH1 0x20 SHL PUSH1 0x20 SHR JUMP JUMPDEST POP PUSH3 0x69E JUMP JUMPDEST PUSH1 0x0 DUP1 CHAINID SWAP1 POP DUP5 DUP5 DUP5 DUP4 ADDRESS PUSH1 0x40 MLOAD PUSH1 0x20 ADD DUP1 DUP7 DUP2 MSTORE PUSH1 0x20 ADD DUP6 DUP2 MSTORE PUSH1 0x20 ADD DUP5 DUP2 MSTORE PUSH1 0x20 ADD DUP4 DUP2 MSTORE PUSH1 0x20 ADD DUP3 PUSH20 0xFFFFFFFFFFFFFFFFFFFFFFFFFFFFFFFFFFFFFFFF AND DUP2 MSTORE PUSH1 0x20 ADD SWAP6 POP POP POP POP POP POP PUSH1 0x40 MLOAD PUSH1 0x20 DUP2 DUP4 SUB SUB DUP2 MSTORE SWAP1 PUSH1 0x40 MSTORE DUP1 MLOAD SWAP1 PUSH1 0x20 ADD KECCAK256 SWAP2 POP POP SWAP4 SWAP3 POP POP POP JUMP JUMPDEST PUSH1 0x0 PUSH20 0xFFFFFFFFFFFFFFFFFFFFFFFFFFFFFFFFFFFFFFFF AND DUP3 PUSH20 0xFFFFFFFFFFFFFFFFFFFFFFFFFFFFFFFFFFFFFFFF AND EQ ISZERO PUSH3 0x420 JUMPI PUSH1 0x40 MLOAD PUSH32 0x8C379A000000000000000000000000000000000000000000000000000000000 DUP2 MSTORE PUSH1 0x4 ADD DUP1 DUP1 PUSH1 0x20 ADD DUP3 DUP2 SUB DUP3 MSTORE PUSH1 0x1F DUP2 MSTORE PUSH1 0x20 ADD DUP1 PUSH32 0x45524332303A206D696E7420746F20746865207A65726F206164647265737300 DUP2 MSTORE POP PUSH1 0x20 ADD SWAP2 POP POP PUSH1 0x40 MLOAD DUP1 SWAP2 SUB SWAP1 REVERT JUMPDEST PUSH3 0x434 PUSH1 0x0 DUP4 DUP4 PUSH3 0x55A PUSH1 0x20 SHL PUSH1 0x20 SHR JUMP JUMPDEST PUSH3 0x450 DUP2 PUSH1 0x2 SLOAD PUSH3 0x55F PUSH1 0x20 SHL PUSH3 0x1297 OR SWAP1 SWAP2 SWAP1 PUSH1 0x20 SHR JUMP JUMPDEST PUSH1 0x2 DUP2 SWAP1 SSTORE POP PUSH3 0x4AE DUP2 PUSH1 0x0 DUP1 DUP6 PUSH20 0xFFFFFFFFFFFFFFFFFFFFFFFFFFFFFFFFFFFFFFFF AND PUSH20 0xFFFFFFFFFFFFFFFFFFFFFFFFFFFFFFFFFFFFFFFF AND DUP2 MSTORE PUSH1 0x20 ADD SWAP1 DUP2 MSTORE PUSH1 0x20 ADD PUSH1 0x0 KECCAK256 SLOAD PUSH3 0x55F PUSH1 0x20 SHL PUSH3 0x1297 OR SWAP1 SWAP2 SWAP1 PUSH1 0x20 SHR JUMP JUMPDEST PUSH1 0x0 DUP1 DUP5 PUSH20 0xFFFFFFFFFFFFFFFFFFFFFFFFFFFFFFFFFFFFFFFF AND PUSH20 0xFFFFFFFFFFFFFFFFFFFFFFFFFFFFFFFFFFFFFFFF AND DUP2 MSTORE PUSH1 0x20 ADD SWAP1 DUP2 MSTORE PUSH1 0x20 ADD PUSH1 0x0 KECCAK256 DUP2 SWAP1 SSTORE POP DUP2 PUSH20 0xFFFFFFFFFFFFFFFFFFFFFFFFFFFFFFFFFFFFFFFF AND PUSH1 0x0 PUSH20 0xFFFFFFFFFFFFFFFFFFFFFFFFFFFFFFFFFFFFFFFF AND PUSH32 0xDDF252AD1BE2C89B69C2B068FC378DAA952BA7F163C4A11628F55A4DF523B3EF DUP4 PUSH1 0x40 MLOAD DUP1 DUP3 DUP2 MSTORE PUSH1 0x20 ADD SWAP2 POP POP PUSH1 0x40 MLOAD DUP1 SWAP2 SUB SWAP1 LOG3 POP POP JUMP JUMPDEST POP POP POP JUMP JUMPDEST PUSH1 0x0 DUP1 DUP3 DUP5 ADD SWAP1 POP DUP4 DUP2 LT ISZERO PUSH3 0x5DE JUMPI PUSH1 0x40 MLOAD PUSH32 0x8C379A000000000000000000000000000000000000000000000000000000000 DUP2 MSTORE PUSH1 0x4 ADD DUP1 DUP1 PUSH1 0x20 ADD DUP3 DUP2 SUB DUP3 MSTORE PUSH1 0x1B DUP2 MSTORE PUSH1 0x20 ADD DUP1 PUSH32 0x536166654D6174683A206164646974696F6E206F766572666C6F770000000000 DUP2 MSTORE POP PUSH1 0x20 ADD SWAP2 POP POP PUSH1 0x40 MLOAD DUP1 SWAP2 SUB SWAP1 REVERT JUMPDEST DUP1 SWAP2 POP POP SWAP3 SWAP2 POP POP JUMP JUMPDEST DUP3 DUP1 SLOAD PUSH1 0x1 DUP2 PUSH1 0x1 AND ISZERO PUSH2 0x100 MUL SUB AND PUSH1 0x2 SWAP1 DIV SWAP1 PUSH1 0x0 MSTORE PUSH1 0x20 PUSH1 0x0 KECCAK256 SWAP1 PUSH1 0x1F ADD PUSH1 0x20 SWAP1 DIV DUP2 ADD SWAP3 DUP3 PUSH3 0x620 JUMPI PUSH1 0x0 DUP6 SSTORE PUSH3 0x66C JUMP JUMPDEST DUP3 PUSH1 0x1F LT PUSH3 0x63B JUMPI DUP1 MLOAD PUSH1 0xFF NOT AND DUP4 DUP1 ADD OR DUP6 SSTORE PUSH3 0x66C JUMP JUMPDEST DUP3 DUP1 ADD PUSH1 0x1 ADD DUP6 SSTORE DUP3 ISZERO PUSH3 0x66C JUMPI SWAP2 DUP3 ADD JUMPDEST DUP3 DUP2 GT ISZERO PUSH3 0x66B JUMPI DUP3 MLOAD DUP3 SSTORE SWAP2 PUSH1 0x20 ADD SWAP2 SWAP1 PUSH1 0x1 ADD SWAP1 PUSH3 0x64E JUMP JUMPDEST JUMPDEST POP SWAP1 POP PUSH3 0x67B SWAP2 SWAP1 PUSH3 0x67F JUMP JUMPDEST POP SWAP1 JUMP JUMPDEST JUMPDEST DUP1 DUP3 GT ISZERO PUSH3 0x69A JUMPI PUSH1 0x0 DUP2 PUSH1 0x0 SWAP1 SSTORE POP PUSH1 0x1 ADD PUSH3 0x680 JUMP JUMPDEST POP SWAP1 JUMP JUMPDEST PUSH1 0x80 MLOAD PUSH1 0xF8 SHR PUSH1 0xA0 MLOAD PUSH1 0xC0 MLOAD PUSH1 0xE0 MLOAD PUSH2 0x100 MLOAD PUSH2 0x120 MLOAD PUSH2 0x140 MLOAD PUSH2 0x2448 PUSH3 0x6F5 PUSH1 0x0 CODECOPY DUP1 PUSH2 0x1098 MSTORE POP DUP1 PUSH2 0x18F3 MSTORE POP DUP1 PUSH2 0x1935 MSTORE POP DUP1 PUSH2 0x1914 MSTORE POP DUP1 PUSH2 0x189F MSTORE POP DUP1 PUSH2 0x18C7 MSTORE POP DUP1 PUSH2 0x932 MSTORE POP PUSH2 0x2448 PUSH1 0x0 RETURN INVALID PUSH1 0x80 PUSH1 0x40 MSTORE CALLVALUE DUP1 ISZERO PUSH2 0x10 JUMPI PUSH1 0x0 DUP1 REVERT JUMPDEST POP PUSH1 0x4 CALLDATASIZE LT PUSH2 0x121 JUMPI PUSH1 0x0 CALLDATALOAD PUSH1 0xE0 SHR DUP1 PUSH4 0x70A08231 GT PUSH2 0xAD JUMPI DUP1 PUSH4 0xA457C2D7 GT PUSH2 0x71 JUMPI DUP1 PUSH4 0xA457C2D7 EQ PUSH2 0x593 JUMPI DUP1 PUSH4 0xA9059CBB EQ PUSH2 0x5F7 JUMPI DUP1 PUSH4 0xBF7E214F EQ PUSH2 0x65B JUMPI DUP1 PUSH4 0xD505ACCF EQ PUSH2 0x68F JUMPI DUP1 PUSH4 0xDD62ED3E EQ PUSH2 0x728 JUMPI PUSH2 0x121 JUMP JUMPDEST DUP1 PUSH4 0x70A08231 EQ PUSH2 0x3CE JUMPI DUP1 PUSH4 0x79CC6790 EQ PUSH2 0x426 JUMPI DUP1 PUSH4 0x7A9E5E4B EQ PUSH2 0x474 JUMPI DUP1 PUSH4 0x7ECEBE00 EQ PUSH2 0x4B8 JUMPI DUP1 PUSH4 0x95D89B41 EQ PUSH2 0x510 JUMPI PUSH2 0x121 JUMP JUMPDEST DUP1 PUSH4 0x313CE567 GT PUSH2 0xF4 JUMPI DUP1 PUSH4 0x313CE567 EQ PUSH2 0x2AF JUMPI DUP1 PUSH4 0x3644E515 EQ PUSH2 0x2D0 JUMPI DUP1 PUSH4 0x39509351 EQ PUSH2 0x2EE JUMPI DUP1 PUSH4 0x40C10F19 EQ PUSH2 0x352 JUMPI DUP1 PUSH4 0x42966C68 EQ PUSH2 0x3A0 JUMPI PUSH2 0x121 JUMP JUMPDEST DUP1 PUSH4 0x6FDDE03 EQ PUSH2 0x126 JUMPI DUP1 PUSH4 0x95EA7B3 EQ PUSH2 0x1A9 JUMPI DUP1 PUSH4 0x18160DDD EQ PUSH2 0x20D JUMPI DUP1 PUSH4 0x23B872DD EQ PUSH2 0x22B JUMPI JUMPDEST PUSH1 0x0 DUP1 REVERT JUMPDEST PUSH2 0x12E PUSH2 0x7A0 JUMP JUMPDEST PUSH1 0x40 MLOAD DUP1 DUP1 PUSH1 0x20 ADD DUP3 DUP2 SUB DUP3 MSTORE DUP4 DUP2 DUP2 MLOAD DUP2 MSTORE PUSH1 0x20 ADD SWAP2 POP DUP1 MLOAD SWAP1 PUSH1 0x20 ADD SWAP1 DUP1 DUP4 DUP4 PUSH1 0x0 JUMPDEST DUP4 DUP2 LT ISZERO PUSH2 0x16E JUMPI DUP1 DUP3 ADD MLOAD DUP2 DUP5 ADD MSTORE PUSH1 0x20 DUP2 ADD SWAP1 POP PUSH2 0x153 JUMP JUMPDEST POP POP POP POP SWAP1 POP SWAP1 DUP2 ADD SWAP1 PUSH1 0x1F AND DUP1 ISZERO PUSH2 0x19B JUMPI DUP1 DUP3 SUB DUP1 MLOAD PUSH1 0x1 DUP4 PUSH1 0x20 SUB PUSH2 0x100 EXP SUB NOT AND DUP2 MSTORE PUSH1 0x20 ADD SWAP2 POP JUMPDEST POP SWAP3 POP POP POP PUSH1 0x40 MLOAD DUP1 SWAP2 SUB SWAP1 RETURN JUMPDEST PUSH2 0x1F5 PUSH1 0x4 DUP1 CALLDATASIZE SUB PUSH1 0x40 DUP2 LT ISZERO PUSH2 0x1BF JUMPI PUSH1 0x0 DUP1 REVERT JUMPDEST DUP2 ADD SWAP1 DUP1 DUP1 CALLDATALOAD PUSH20 0xFFFFFFFFFFFFFFFFFFFFFFFFFFFFFFFFFFFFFFFF AND SWAP1 PUSH1 0x20 ADD SWAP1 SWAP3 SWAP2 SWAP1 DUP1 CALLDATALOAD SWAP1 PUSH1 0x20 ADD SWAP1 SWAP3 SWAP2 SWAP1 POP POP POP PUSH2 0x842 JUMP JUMPDEST PUSH1 0x40 MLOAD DUP1 DUP3 ISZERO ISZERO DUP2 MSTORE PUSH1 0x20 ADD SWAP2 POP POP PUSH1 0x40 MLOAD DUP1 SWAP2 SUB SWAP1 RETURN JUMPDEST PUSH2 0x215 PUSH2 0x859 JUMP JUMPDEST PUSH1 0x40 MLOAD DUP1 DUP3 DUP2 MSTORE PUSH1 0x20 ADD SWAP2 POP POP PUSH1 0x40 MLOAD DUP1 SWAP2 SUB SWAP1 RETURN JUMPDEST PUSH2 0x297 PUSH1 0x4 DUP1 CALLDATASIZE SUB PUSH1 0x60 DUP2 LT ISZERO PUSH2 0x241 JUMPI PUSH1 0x0 DUP1 REVERT JUMPDEST DUP2 ADD SWAP1 DUP1 DUP1 CALLDATALOAD PUSH20 0xFFFFFFFFFFFFFFFFFFFFFFFFFFFFFFFFFFFFFFFF AND SWAP1 PUSH1 0x20 ADD SWAP1 SWAP3 SWAP2 SWAP1 DUP1 CALLDATALOAD PUSH20 0xFFFFFFFFFFFFFFFFFFFFFFFFFFFFFFFFFFFFFFFF AND SWAP1 PUSH1 0x20 ADD SWAP1 SWAP3 SWAP2 SWAP1 DUP1 CALLDATALOAD SWAP1 PUSH1 0x20 ADD SWAP1 SWAP3 SWAP2 SWAP1 POP POP POP PUSH2 0x863 JUMP JUMPDEST PUSH1 0x40 MLOAD DUP1 DUP3 ISZERO ISZERO DUP2 MSTORE PUSH1 0x20 ADD SWAP2 POP POP PUSH1 0x40 MLOAD DUP1 SWAP2 SUB SWAP1 RETURN JUMPDEST PUSH2 0x2B7 PUSH2 0x92E JUMP JUMPDEST PUSH1 0x40 MLOAD DUP1 DUP3 PUSH1 0xFF AND DUP2 MSTORE PUSH1 0x20 ADD SWAP2 POP POP PUSH1 0x40 MLOAD DUP1 SWAP2 SUB SWAP1 RETURN JUMPDEST PUSH2 0x2D8 PUSH2 0x956 JUMP JUMPDEST PUSH1 0x40 MLOAD DUP1 DUP3 DUP2 MSTORE PUSH1 0x20 ADD SWAP2 POP POP PUSH1 0x40 MLOAD DUP1 SWAP2 SUB SWAP1 RETURN JUMPDEST PUSH2 0x33A PUSH1 0x4 DUP1 CALLDATASIZE SUB PUSH1 0x40 DUP2 LT ISZERO PUSH2 0x304 JUMPI PUSH1 0x0 DUP1 REVERT JUMPDEST DUP2 ADD SWAP1 DUP1 DUP1 CALLDATALOAD PUSH20 0xFFFFFFFFFFFFFFFFFFFFFFFFFFFFFFFFFFFFFFFF AND SWAP1 PUSH1 0x20 ADD SWAP1 SWAP3 SWAP2 SWAP1 DUP1 CALLDATALOAD SWAP1 PUSH1 0x20 ADD SWAP1 SWAP3 SWAP2 SWAP1 POP POP POP PUSH2 0x965 JUMP JUMPDEST PUSH1 0x40 MLOAD DUP1 DUP3 ISZERO ISZERO DUP2 MSTORE PUSH1 0x20 ADD SWAP2 POP POP PUSH1 0x40 MLOAD DUP1 SWAP2 SUB SWAP1 RETURN JUMPDEST PUSH2 0x39E PUSH1 0x4 DUP1 CALLDATASIZE SUB PUSH1 0x40 DUP2 LT ISZERO PUSH2 0x368 JUMPI PUSH1 0x0 DUP1 REVERT JUMPDEST DUP2 ADD SWAP1 DUP1 DUP1 CALLDATALOAD PUSH20 0xFFFFFFFFFFFFFFFFFFFFFFFFFFFFFFFFFFFFFFFF AND SWAP1 PUSH1 0x20 ADD SWAP1 SWAP3 SWAP2 SWAP1 DUP1 CALLDATALOAD SWAP1 PUSH1 0x20 ADD SWAP1 SWAP3 SWAP2 SWAP1 POP POP POP PUSH2 0xA0A JUMP JUMPDEST STOP JUMPDEST PUSH2 0x3CC PUSH1 0x4 DUP1 CALLDATASIZE SUB PUSH1 0x20 DUP2 LT ISZERO PUSH2 0x3B6 JUMPI PUSH1 0x0 DUP1 REVERT JUMPDEST DUP2 ADD SWAP1 DUP1 DUP1 CALLDATALOAD SWAP1 PUSH1 0x20 ADD SWAP1 SWAP3 SWAP2 SWAP1 POP POP POP PUSH2 0xBAF JUMP JUMPDEST STOP JUMPDEST PUSH2 0x410 PUSH1 0x4 DUP1 CALLDATASIZE SUB PUSH1 0x20 DUP2 LT ISZERO PUSH2 0x3E4 JUMPI PUSH1 0x0 DUP1 REVERT JUMPDEST DUP2 ADD SWAP1 DUP1 DUP1 CALLDATALOAD PUSH20 0xFFFFFFFFFFFFFFFFFFFFFFFFFFFFFFFFFFFFFFFF AND SWAP1 PUSH1 0x20 ADD SWAP1 SWAP3 SWAP2 SWAP1 POP POP POP PUSH2 0xBBC JUMP JUMPDEST PUSH1 0x40 MLOAD DUP1 DUP3 DUP2 MSTORE PUSH1 0x20 ADD SWAP2 POP POP PUSH1 0x40 MLOAD DUP1 SWAP2 SUB SWAP1 RETURN JUMPDEST PUSH2 0x472 PUSH1 0x4 DUP1 CALLDATASIZE SUB PUSH1 0x40 DUP2 LT ISZERO PUSH2 0x43C JUMPI PUSH1 0x0 DUP1 REVERT JUMPDEST DUP2 ADD SWAP1 DUP1 DUP1 CALLDATALOAD PUSH20 0xFFFFFFFFFFFFFFFFFFFFFFFFFFFFFFFFFFFFFFFF AND SWAP1 PUSH1 0x20 ADD SWAP1 SWAP3 SWAP2 SWAP1 DUP1 CALLDATALOAD SWAP1 PUSH1 0x20 ADD SWAP1 SWAP3 SWAP2 SWAP1 POP POP POP PUSH2 0xC04 JUMP JUMPDEST STOP JUMPDEST PUSH2 0x4B6 PUSH1 0x4 DUP1 CALLDATASIZE SUB PUSH1 0x20 DUP2 LT ISZERO PUSH2 0x48A JUMPI PUSH1 0x0 DUP1 REVERT JUMPDEST DUP2 ADD SWAP1 DUP1 DUP1 CALLDATALOAD PUSH20 0xFFFFFFFFFFFFFFFFFFFFFFFFFFFFFFFFFFFFFFFF AND SWAP1 PUSH1 0x20 ADD SWAP1 SWAP3 SWAP2 SWAP1 POP POP POP PUSH2 0xC12 JUMP JUMPDEST STOP JUMPDEST PUSH2 0x4FA PUSH1 0x4 DUP1 CALLDATASIZE SUB PUSH1 0x20 DUP2 LT ISZERO PUSH2 0x4CE JUMPI PUSH1 0x0 DUP1 REVERT JUMPDEST DUP2 ADD SWAP1 DUP1 DUP1 CALLDATALOAD PUSH20 0xFFFFFFFFFFFFFFFFFFFFFFFFFFFFFFFFFFFFFFFF AND SWAP1 PUSH1 0x20 ADD SWAP1 SWAP3 SWAP2 SWAP1 POP POP POP PUSH2 0xE30 JUMP JUMPDEST PUSH1 0x40 MLOAD DUP1 DUP3 DUP2 MSTORE PUSH1 0x20 ADD SWAP2 POP POP PUSH1 0x40 MLOAD DUP1 SWAP2 SUB SWAP1 RETURN JUMPDEST PUSH2 0x518 PUSH2 0xE80 JUMP JUMPDEST PUSH1 0x40 MLOAD DUP1 DUP1 PUSH1 0x20 ADD DUP3 DUP2 SUB DUP3 MSTORE DUP4 DUP2 DUP2 MLOAD DUP2 MSTORE PUSH1 0x20 ADD SWAP2 POP DUP1 MLOAD SWAP1 PUSH1 0x20 ADD SWAP1 DUP1 DUP4 DUP4 PUSH1 0x0 JUMPDEST DUP4 DUP2 LT ISZERO PUSH2 0x558 JUMPI DUP1 DUP3 ADD MLOAD DUP2 DUP5 ADD MSTORE PUSH1 0x20 DUP2 ADD SWAP1 POP PUSH2 0x53D JUMP JUMPDEST POP POP POP POP SWAP1 POP SWAP1 DUP2 ADD SWAP1 PUSH1 0x1F AND DUP1 ISZERO PUSH2 0x585 JUMPI DUP1 DUP3 SUB DUP1 MLOAD PUSH1 0x1 DUP4 PUSH1 0x20 SUB PUSH2 0x100 EXP SUB NOT AND DUP2 MSTORE PUSH1 0x20 ADD SWAP2 POP JUMPDEST POP SWAP3 POP POP POP PUSH1 0x40 MLOAD DUP1 SWAP2 SUB SWAP1 RETURN JUMPDEST PUSH2 0x5DF PUSH1 0x4 DUP1 CALLDATASIZE SUB PUSH1 0x40 DUP2 LT ISZERO PUSH2 0x5A9 JUMPI PUSH1 0x0 DUP1 REVERT JUMPDEST DUP2 ADD SWAP1 DUP1 DUP1 CALLDATALOAD PUSH20 0xFFFFFFFFFFFFFFFFFFFFFFFFFFFFFFFFFFFFFFFF AND SWAP1 PUSH1 0x20 ADD SWAP1 SWAP3 SWAP2 SWAP1 DUP1 CALLDATALOAD SWAP1 PUSH1 0x20 ADD SWAP1 SWAP3 SWAP2 SWAP1 POP POP POP PUSH2 0xF22 JUMP JUMPDEST PUSH1 0x40 MLOAD DUP1 DUP3 ISZERO ISZERO DUP2 MSTORE PUSH1 0x20 ADD SWAP2 POP POP PUSH1 0x40 MLOAD DUP1 SWAP2 SUB SWAP1 RETURN JUMPDEST PUSH2 0x643 PUSH1 0x4 DUP1 CALLDATASIZE SUB PUSH1 0x40 DUP2 LT ISZERO PUSH2 0x60D JUMPI PUSH1 0x0 DUP1 REVERT JUMPDEST DUP2 ADD SWAP1 DUP1 DUP1 CALLDATALOAD PUSH20 0xFFFFFFFFFFFFFFFFFFFFFFFFFFFFFFFFFFFFFFFF AND SWAP1 PUSH1 0x20 ADD SWAP1 SWAP3 SWAP2 SWAP1 DUP1 CALLDATALOAD SWAP1 PUSH1 0x20 ADD SWAP1 SWAP3 SWAP2 SWAP1 POP POP POP PUSH2 0xFE1 JUMP JUMPDEST PUSH1 0x40 MLOAD DUP1 DUP3 ISZERO ISZERO DUP2 MSTORE PUSH1 0x20 ADD SWAP2 POP POP PUSH1 0x40 MLOAD DUP1 SWAP2 SUB SWAP1 RETURN JUMPDEST PUSH2 0x663 PUSH2 0xFF8 JUMP JUMPDEST PUSH1 0x40 MLOAD DUP1 DUP3 PUSH20 0xFFFFFFFFFFFFFFFFFFFFFFFFFFFFFFFFFFFFFFFF AND DUP2 MSTORE PUSH1 0x20 ADD SWAP2 POP POP PUSH1 0x40 MLOAD DUP1 SWAP2 SUB SWAP1 RETURN JUMPDEST PUSH2 0x726 PUSH1 0x4 DUP1 CALLDATASIZE SUB PUSH1 0xE0 DUP2 LT ISZERO PUSH2 0x6A5 JUMPI PUSH1 0x0 DUP1 REVERT JUMPDEST DUP2 ADD SWAP1 DUP1 DUP1 CALLDATALOAD PUSH20 0xFFFFFFFFFFFFFFFFFFFFFFFFFFFFFFFFFFFFFFFF AND SWAP1 PUSH1 0x20 ADD SWAP1 SWAP3 SWAP2 SWAP1 DUP1 CALLDATALOAD PUSH20 0xFFFFFFFFFFFFFFFFFFFFFFFFFFFFFFFFFFFFFFFF AND SWAP1 PUSH1 0x20 ADD SWAP1 SWAP3 SWAP2 SWAP1 DUP1 CALLDATALOAD SWAP1 PUSH1 0x20 ADD SWAP1 SWAP3 SWAP2 SWAP1 DUP1 CALLDATALOAD SWAP1 PUSH1 0x20 ADD SWAP1 SWAP3 SWAP2 SWAP1 DUP1 CALLDATALOAD PUSH1 0xFF AND SWAP1 PUSH1 0x20 ADD SWAP1 SWAP3 SWAP2 SWAP1 DUP1 CALLDATALOAD SWAP1 PUSH1 0x20 ADD SWAP1 SWAP3 SWAP2 SWAP1 DUP1 CALLDATALOAD SWAP1 PUSH1 0x20 ADD SWAP1 SWAP3 SWAP2 SWAP1 POP POP POP PUSH2 0x101E JUMP JUMPDEST STOP JUMPDEST PUSH2 0x78A PUSH1 0x4 DUP1 CALLDATASIZE SUB PUSH1 0x40 DUP2 LT ISZERO PUSH2 0x73E JUMPI PUSH1 0x0 DUP1 REVERT JUMPDEST DUP2 ADD SWAP1 DUP1 DUP1 CALLDATALOAD PUSH20 0xFFFFFFFFFFFFFFFFFFFFFFFFFFFFFFFFFFFFFFFF AND SWAP1 PUSH1 0x20 ADD SWAP1 SWAP3 SWAP2 SWAP1 DUP1 CALLDATALOAD PUSH20 0xFFFFFFFFFFFFFFFFFFFFFFFFFFFFFFFFFFFFFFFF AND SWAP1 PUSH1 0x20 ADD SWAP1 SWAP3 SWAP2 SWAP1 POP POP POP PUSH2 0x1210 JUMP JUMPDEST PUSH1 0x40 MLOAD DUP1 DUP3 DUP2 MSTORE PUSH1 0x20 ADD SWAP2 POP POP PUSH1 0x40 MLOAD DUP1 SWAP2 SUB SWAP1 RETURN JUMPDEST PUSH1 0x60 PUSH1 0x3 DUP1 SLOAD PUSH1 0x1 DUP2 PUSH1 0x1 AND ISZERO PUSH2 0x100 MUL SUB AND PUSH1 0x2 SWAP1 DIV DUP1 PUSH1 0x1F ADD PUSH1 0x20 DUP1 SWAP2 DIV MUL PUSH1 0x20 ADD PUSH1 0x40 MLOAD SWAP1 DUP2 ADD PUSH1 0x40 MSTORE DUP1 SWAP3 SWAP2 SWAP1 DUP2 DUP2 MSTORE PUSH1 0x20 ADD DUP3 DUP1 SLOAD PUSH1 0x1 DUP2 PUSH1 0x1 AND ISZERO PUSH2 0x100 MUL SUB AND PUSH1 0x2 SWAP1 DIV DUP1 ISZERO PUSH2 0x838 JUMPI DUP1 PUSH1 0x1F LT PUSH2 0x80D JUMPI PUSH2 0x100 DUP1 DUP4 SLOAD DIV MUL DUP4 MSTORE SWAP2 PUSH1 0x20 ADD SWAP2 PUSH2 0x838 JUMP JUMPDEST DUP3 ADD SWAP2 SWAP1 PUSH1 0x0 MSTORE PUSH1 0x20 PUSH1 0x0 KECCAK256 SWAP1 JUMPDEST DUP2 SLOAD DUP2 MSTORE SWAP1 PUSH1 0x1 ADD SWAP1 PUSH1 0x20 ADD DUP1 DUP4 GT PUSH2 0x81B JUMPI DUP3 SWAP1 SUB PUSH1 0x1F AND DUP3 ADD SWAP2 JUMPDEST POP POP POP POP POP SWAP1 POP SWAP1 JUMP JUMPDEST PUSH1 0x0 PUSH2 0x84F CALLER DUP5 DUP5 PUSH2 0x131F JUMP JUMPDEST PUSH1 0x1 SWAP1 POP SWAP3 SWAP2 POP POP JUMP JUMPDEST PUSH1 0x0 PUSH1 0x2 SLOAD SWAP1 POP SWAP1 JUMP JUMPDEST PUSH1 0x0 PUSH2 0x870 DUP5 DUP5 DUP5 PUSH2 0x1516 JUMP JUMPDEST PUSH2 0x923 DUP5 CALLER PUSH2 0x91E DUP6 PUSH1 0x40 MLOAD DUP1 PUSH1 0x60 ADD PUSH1 0x40 MSTORE DUP1 PUSH1 0x28 DUP2 MSTORE PUSH1 0x20 ADD PUSH2 0x2338 PUSH1 0x28 SWAP2 CODECOPY PUSH1 0x1 PUSH1 0x0 DUP12 PUSH20 0xFFFFFFFFFFFFFFFFFFFFFFFFFFFFFFFFFFFFFFFF AND PUSH20 0xFFFFFFFFFFFFFFFFFFFFFFFFFFFFFFFFFFFFFFFF AND DUP2 MSTORE PUSH1 0x20 ADD SWAP1 DUP2 MSTORE PUSH1 0x20 ADD PUSH1 0x0 KECCAK256 PUSH1 0x0 CALLER PUSH20 0xFFFFFFFFFFFFFFFFFFFFFFFFFFFFFFFFFFFFFFFF AND PUSH20 0xFFFFFFFFFFFFFFFFFFFFFFFFFFFFFFFFFFFFFFFF AND DUP2 MSTORE PUSH1 0x20 ADD SWAP1 DUP2 MSTORE PUSH1 0x20 ADD PUSH1 0x0 KECCAK256 SLOAD PUSH2 0x17D7 SWAP1 SWAP3 SWAP2 SWAP1 PUSH4 0xFFFFFFFF AND JUMP JUMPDEST PUSH2 0x131F JUMP JUMPDEST PUSH1 0x1 SWAP1 POP SWAP4 SWAP3 POP POP POP JUMP JUMPDEST PUSH1 0x0 PUSH32 0x0 SWAP1 POP SWAP1 JUMP JUMPDEST PUSH1 0x0 PUSH2 0x960 PUSH2 0x1897 JUMP JUMPDEST SWAP1 POP SWAP1 JUMP JUMPDEST PUSH1 0x0 PUSH2 0xA00 CALLER DUP5 PUSH2 0x9FB DUP6 PUSH1 0x1 PUSH1 0x0 CALLER PUSH20 0xFFFFFFFFFFFFFFFFFFFFFFFFFFFFFFFFFFFFFFFF AND PUSH20 0xFFFFFFFFFFFFFFFFFFFFFFFFFFFFFFFFFFFFFFFF AND DUP2 MSTORE PUSH1 0x20 ADD SWAP1 DUP2 MSTORE PUSH1 0x20 ADD PUSH1 0x0 KECCAK256 PUSH1 0x0 DUP10 PUSH20 0xFFFFFFFFFFFFFFFFFFFFFFFFFFFFFFFFFFFFFFFF AND PUSH20 0xFFFFFFFFFFFFFFFFFFFFFFFFFFFFFFFFFFFFFFFF AND DUP2 MSTORE PUSH1 0x20 ADD SWAP1 DUP2 MSTORE PUSH1 0x20 ADD PUSH1 0x0 KECCAK256 SLOAD PUSH2 0x1297 SWAP1 SWAP2 SWAP1 PUSH4 0xFFFFFFFF AND JUMP JUMPDEST PUSH2 0x131F JUMP JUMPDEST PUSH1 0x1 SWAP1 POP SWAP3 SWAP2 POP POP JUMP JUMPDEST PUSH1 0x7 PUSH1 0x0 SWAP1 SLOAD SWAP1 PUSH2 0x100 EXP SWAP1 DIV PUSH20 0xFFFFFFFFFFFFFFFFFFFFFFFFFFFFFFFFFFFFFFFF AND PUSH20 0xFFFFFFFFFFFFFFFFFFFFFFFFFFFFFFFFFFFFFFFF AND PUSH4 0xFBFA77CF PUSH1 0x40 MLOAD DUP2 PUSH4 0xFFFFFFFF AND PUSH1 0xE0 SHL DUP2 MSTORE PUSH1 0x4 ADD PUSH1 0x20 PUSH1 0x40 MLOAD DUP1 DUP4 SUB DUP2 DUP7 DUP1 EXTCODESIZE ISZERO DUP1 ISZERO PUSH2 0xA72 JUMPI PUSH1 0x0 DUP1 REVERT JUMPDEST POP GAS STATICCALL ISZERO DUP1 ISZERO PUSH2 0xA86 JUMPI RETURNDATASIZE PUSH1 0x0 DUP1 RETURNDATACOPY RETURNDATASIZE PUSH1 0x0 REVERT JUMPDEST POP POP POP POP PUSH1 0x40 MLOAD RETURNDATASIZE PUSH1 0x20 DUP2 LT ISZERO PUSH2 0xA9C JUMPI PUSH1 0x0 DUP1 REVERT JUMPDEST DUP2 ADD SWAP1 DUP1 DUP1 MLOAD SWAP1 PUSH1 0x20 ADD SWAP1 SWAP3 SWAP2 SWAP1 POP POP POP PUSH20 0xFFFFFFFFFFFFFFFFFFFFFFFFFFFFFFFFFFFFFFFF AND CALLER PUSH20 0xFFFFFFFFFFFFFFFFFFFFFFFFFFFFFFFFFFFFFFFF AND EQ PUSH1 0x6 SWAP1 PUSH2 0xBA0 JUMPI PUSH1 0x40 MLOAD PUSH32 0x8C379A000000000000000000000000000000000000000000000000000000000 DUP2 MSTORE PUSH1 0x4 ADD DUP1 DUP1 PUSH1 0x20 ADD DUP3 DUP2 SUB DUP3 MSTORE DUP4 DUP2 DUP2 SLOAD PUSH1 0x1 DUP2 PUSH1 0x1 AND ISZERO PUSH2 0x100 MUL SUB AND PUSH1 0x2 SWAP1 DIV DUP2 MSTORE PUSH1 0x20 ADD SWAP2 POP DUP1 SLOAD PUSH1 0x1 DUP2 PUSH1 0x1 AND ISZERO PUSH2 0x100 MUL SUB AND PUSH1 0x2 SWAP1 DIV DUP1 ISZERO PUSH2 0xB91 JUMPI DUP1 PUSH1 0x1F LT PUSH2 0xB66 JUMPI PUSH2 0x100 DUP1 DUP4 SLOAD DIV MUL DUP4 MSTORE SWAP2 PUSH1 0x20 ADD SWAP2 PUSH2 0xB91 JUMP JUMPDEST DUP3 ADD SWAP2 SWAP1 PUSH1 0x0 MSTORE PUSH1 0x20 PUSH1 0x0 KECCAK256 SWAP1 JUMPDEST DUP2 SLOAD DUP2 MSTORE SWAP1 PUSH1 0x1 ADD SWAP1 PUSH1 0x20 ADD DUP1 DUP4 GT PUSH2 0xB74 JUMPI DUP3 SWAP1 SUB PUSH1 0x1F AND DUP3 ADD SWAP2 JUMPDEST POP POP SWAP3 POP POP POP PUSH1 0x40 MLOAD DUP1 SWAP2 SUB SWAP1 REVERT JUMPDEST POP PUSH2 0xBAB DUP3 DUP3 PUSH2 0x1960 JUMP JUMPDEST POP POP JUMP JUMPDEST PUSH2 0xBB9 CALLER DUP3 PUSH2 0x1B27 JUMP JUMPDEST POP JUMP JUMPDEST PUSH1 0x0 DUP1 PUSH1 0x0 DUP4 PUSH20 0xFFFFFFFFFFFFFFFFFFFFFFFFFFFFFFFFFFFFFFFF AND PUSH20 0xFFFFFFFFFFFFFFFFFFFFFFFFFFFFFFFFFFFFFFFF AND DUP2 MSTORE PUSH1 0x20 ADD SWAP1 DUP2 MSTORE PUSH1 0x20 ADD PUSH1 0x0 KECCAK256 SLOAD SWAP1 POP SWAP2 SWAP1 POP JUMP JUMPDEST PUSH2 0xC0E DUP3 DUP3 PUSH2 0x1CEB JUMP JUMPDEST POP POP JUMP JUMPDEST PUSH1 0x7 PUSH1 0x0 SWAP1 SLOAD SWAP1 PUSH2 0x100 EXP SWAP1 DIV PUSH20 0xFFFFFFFFFFFFFFFFFFFFFFFFFFFFFFFFFFFFFFFF AND PUSH20 0xFFFFFFFFFFFFFFFFFFFFFFFFFFFFFFFFFFFFFFFF AND PUSH4 0xC340A24 PUSH1 0x40 MLOAD DUP2 PUSH4 0xFFFFFFFF AND PUSH1 0xE0 SHL DUP2 MSTORE PUSH1 0x4 ADD PUSH1 0x20 PUSH1 0x40 MLOAD DUP1 DUP4 SUB DUP2 DUP7 DUP1 EXTCODESIZE ISZERO DUP1 ISZERO PUSH2 0xC7A JUMPI PUSH1 0x0 DUP1 REVERT JUMPDEST POP GAS STATICCALL ISZERO DUP1 ISZERO PUSH2 0xC8E JUMPI RETURNDATASIZE PUSH1 0x0 DUP1 RETURNDATACOPY RETURNDATASIZE PUSH1 0x0 REVERT JUMPDEST POP POP POP POP PUSH1 0x40 MLOAD RETURNDATASIZE PUSH1 0x20 DUP2 LT ISZERO PUSH2 0xCA4 JUMPI PUSH1 0x0 DUP1 REVERT JUMPDEST DUP2 ADD SWAP1 DUP1 DUP1 MLOAD SWAP1 PUSH1 0x20 ADD SWAP1 SWAP3 SWAP2 SWAP1 POP POP POP PUSH20 0xFFFFFFFFFFFFFFFFFFFFFFFFFFFFFFFFFFFFFFFF AND CALLER PUSH20 0xFFFFFFFFFFFFFFFFFFFFFFFFFFFFFFFFFFFFFFFF AND EQ PUSH1 0x6 SWAP1 PUSH2 0xDA8 JUMPI PUSH1 0x40 MLOAD PUSH32 0x8C379A000000000000000000000000000000000000000000000000000000000 DUP2 MSTORE PUSH1 0x4 ADD DUP1 DUP1 PUSH1 0x20 ADD DUP3 DUP2 SUB DUP3 MSTORE DUP4 DUP2 DUP2 SLOAD PUSH1 0x1 DUP2 PUSH1 0x1 AND ISZERO PUSH2 0x100 MUL SUB AND PUSH1 0x2 SWAP1 DIV DUP2 MSTORE PUSH1 0x20 ADD SWAP2 POP DUP1 SLOAD PUSH1 0x1 DUP2 PUSH1 0x1 AND ISZERO PUSH2 0x100 MUL SUB AND PUSH1 0x2 SWAP1 DIV DUP1 ISZERO PUSH2 0xD99 JUMPI DUP1 PUSH1 0x1F LT PUSH2 0xD6E JUMPI PUSH2 0x100 DUP1 DUP4 SLOAD DIV MUL DUP4 MSTORE SWAP2 PUSH1 0x20 ADD SWAP2 PUSH2 0xD99 JUMP JUMPDEST DUP3 ADD SWAP2 SWAP1 PUSH1 0x0 MSTORE PUSH1 0x20 PUSH1 0x0 KECCAK256 SWAP1 JUMPDEST DUP2 SLOAD DUP2 MSTORE SWAP1 PUSH1 0x1 ADD SWAP1 PUSH1 0x20 ADD DUP1 DUP4 GT PUSH2 0xD7C JUMPI DUP3 SWAP1 SUB PUSH1 0x1F AND DUP3 ADD SWAP2 JUMPDEST POP POP SWAP3 POP POP POP PUSH1 0x40 MLOAD DUP1 SWAP2 SUB SWAP1 REVERT JUMPDEST POP DUP1 PUSH1 0x7 PUSH1 0x0 PUSH2 0x100 EXP DUP2 SLOAD DUP2 PUSH20 0xFFFFFFFFFFFFFFFFFFFFFFFFFFFFFFFFFFFFFFFF MUL NOT AND SWAP1 DUP4 PUSH20 0xFFFFFFFFFFFFFFFFFFFFFFFFFFFFFFFFFFFFFFFF AND MUL OR SWAP1 SSTORE POP DUP1 PUSH20 0xFFFFFFFFFFFFFFFFFFFFFFFFFFFFFFFFFFFFFFFF AND PUSH32 0x2F658B440C35314F52658EA8A740E05B284CDC84DC9AE01E891F21B8933E7CAD PUSH1 0x40 MLOAD PUSH1 0x40 MLOAD DUP1 SWAP2 SUB SWAP1 LOG2 POP JUMP JUMPDEST PUSH1 0x0 PUSH2 0xE79 PUSH1 0x5 PUSH1 0x0 DUP5 PUSH20 0xFFFFFFFFFFFFFFFFFFFFFFFFFFFFFFFFFFFFFFFF AND PUSH20 0xFFFFFFFFFFFFFFFFFFFFFFFFFFFFFFFFFFFFFFFF AND DUP2 MSTORE PUSH1 0x20 ADD SWAP1 DUP2 MSTORE PUSH1 0x20 ADD PUSH1 0x0 KECCAK256 PUSH2 0x1D3F JUMP JUMPDEST SWAP1 POP SWAP2 SWAP1 POP JUMP JUMPDEST PUSH1 0x60 PUSH1 0x4 DUP1 SLOAD PUSH1 0x1 DUP2 PUSH1 0x1 AND ISZERO PUSH2 0x100 MUL SUB AND PUSH1 0x2 SWAP1 DIV DUP1 PUSH1 0x1F ADD PUSH1 0x20 DUP1 SWAP2 DIV MUL PUSH1 0x20 ADD PUSH1 0x40 MLOAD SWAP1 DUP2 ADD PUSH1 0x40 MSTORE DUP1 SWAP3 SWAP2 SWAP1 DUP2 DUP2 MSTORE PUSH1 0x20 ADD DUP3 DUP1 SLOAD PUSH1 0x1 DUP2 PUSH1 0x1 AND ISZERO PUSH2 0x100 MUL SUB AND PUSH1 0x2 SWAP1 DIV DUP1 ISZERO PUSH2 0xF18 JUMPI DUP1 PUSH1 0x1F LT PUSH2 0xEED JUMPI PUSH2 0x100 DUP1 DUP4 SLOAD DIV MUL DUP4 MSTORE SWAP2 PUSH1 0x20 ADD SWAP2 PUSH2 0xF18 JUMP JUMPDEST DUP3 ADD SWAP2 SWAP1 PUSH1 0x0 MSTORE PUSH1 0x20 PUSH1 0x0 KECCAK256 SWAP1 JUMPDEST DUP2 SLOAD DUP2 MSTORE SWAP1 PUSH1 0x1 ADD SWAP1 PUSH1 0x20 ADD DUP1 DUP4 GT PUSH2 0xEFB JUMPI DUP3 SWAP1 SUB PUSH1 0x1F AND DUP3 ADD SWAP2 JUMPDEST POP POP POP POP POP SWAP1 POP SWAP1 JUMP JUMPDEST PUSH1 0x0 PUSH2 0xFD7 CALLER DUP5 PUSH2 0xFD2 DUP6 PUSH1 0x40 MLOAD DUP1 PUSH1 0x60 ADD PUSH1 0x40 MSTORE DUP1 PUSH1 0x25 DUP2 MSTORE PUSH1 0x20 ADD PUSH2 0x23EE PUSH1 0x25 SWAP2 CODECOPY PUSH1 0x1 PUSH1 0x0 CALLER PUSH20 0xFFFFFFFFFFFFFFFFFFFFFFFFFFFFFFFFFFFFFFFF AND PUSH20 0xFFFFFFFFFFFFFFFFFFFFFFFFFFFFFFFFFFFFFFFF AND DUP2 MSTORE PUSH1 0x20 ADD SWAP1 DUP2 MSTORE PUSH1 0x20 ADD PUSH1 0x0 KECCAK256 PUSH1 0x0 DUP11 PUSH20 0xFFFFFFFFFFFFFFFFFFFFFFFFFFFFFFFFFFFFFFFF AND PUSH20 0xFFFFFFFFFFFFFFFFFFFFFFFFFFFFFFFFFFFFFFFF AND DUP2 MSTORE PUSH1 0x20 ADD SWAP1 DUP2 MSTORE PUSH1 0x20 ADD PUSH1 0x0 KECCAK256 SLOAD PUSH2 0x17D7 SWAP1 SWAP3 SWAP2 SWAP1 PUSH4 0xFFFFFFFF AND JUMP JUMPDEST PUSH2 0x131F JUMP JUMPDEST PUSH1 0x1 SWAP1 POP SWAP3 SWAP2 POP POP JUMP JUMPDEST PUSH1 0x0 PUSH2 0xFEE CALLER DUP5 DUP5 PUSH2 0x1516 JUMP JUMPDEST PUSH1 0x1 SWAP1 POP SWAP3 SWAP2 POP POP JUMP JUMPDEST PUSH1 0x7 PUSH1 0x0 SWAP1 SLOAD SWAP1 PUSH2 0x100 EXP SWAP1 DIV PUSH20 0xFFFFFFFFFFFFFFFFFFFFFFFFFFFFFFFFFFFFFFFF AND DUP2 JUMP JUMPDEST DUP4 TIMESTAMP GT ISZERO PUSH2 0x1094 JUMPI PUSH1 0x40 MLOAD PUSH32 0x8C379A000000000000000000000000000000000000000000000000000000000 DUP2 MSTORE PUSH1 0x4 ADD DUP1 DUP1 PUSH1 0x20 ADD DUP3 DUP2 SUB DUP3 MSTORE PUSH1 0x1D DUP2 MSTORE PUSH1 0x20 ADD DUP1 PUSH32 0x45524332305065726D69743A206578706972656420646561646C696E65000000 DUP2 MSTORE POP PUSH1 0x20 ADD SWAP2 POP POP PUSH1 0x40 MLOAD DUP1 SWAP2 SUB SWAP1 REVERT JUMPDEST PUSH1 0x0 PUSH32 0x0 DUP9 DUP9 DUP9 PUSH2 0x10C3 DUP13 PUSH2 0x1D4D JUMP JUMPDEST DUP10 PUSH1 0x40 MLOAD PUSH1 0x20 ADD DUP1 DUP8 DUP2 MSTORE PUSH1 0x20 ADD DUP7 PUSH20 0xFFFFFFFFFFFFFFFFFFFFFFFFFFFFFFFFFFFFFFFF AND DUP2 MSTORE PUSH1 0x20 ADD DUP6 PUSH20 0xFFFFFFFFFFFFFFFFFFFFFFFFFFFFFFFFFFFFFFFF AND DUP2 MSTORE PUSH1 0x20 ADD DUP5 DUP2 MSTORE PUSH1 0x20 ADD DUP4 DUP2 MSTORE PUSH1 0x20 ADD DUP3 DUP2 MSTORE PUSH1 0x20 ADD SWAP7 POP POP POP POP POP POP POP PUSH1 0x40 MLOAD PUSH1 0x20 DUP2 DUP4 SUB SUB DUP2 MSTORE SWAP1 PUSH1 0x40 MSTORE DUP1 MLOAD SWAP1 PUSH1 0x20 ADD KECCAK256 SWAP1 POP PUSH1 0x0 PUSH2 0x1146 DUP3 PUSH2 0x1DAB JUMP JUMPDEST SWAP1 POP PUSH1 0x0 PUSH2 0x1156 DUP3 DUP8 DUP8 DUP8 PUSH2 0x1DC5 JUMP JUMPDEST SWAP1 POP DUP10 PUSH20 0xFFFFFFFFFFFFFFFFFFFFFFFFFFFFFFFFFFFFFFFF AND DUP2 PUSH20 0xFFFFFFFFFFFFFFFFFFFFFFFFFFFFFFFFFFFFFFFF AND EQ PUSH2 0x11F9 JUMPI PUSH1 0x40 MLOAD PUSH32 0x8C379A000000000000000000000000000000000000000000000000000000000 DUP2 MSTORE PUSH1 0x4 ADD DUP1 DUP1 PUSH1 0x20 ADD DUP3 DUP2 SUB DUP3 MSTORE PUSH1 0x1E DUP2 MSTORE PUSH1 0x20 ADD DUP1 PUSH32 0x45524332305065726D69743A20696E76616C6964207369676E61747572650000 DUP2 MSTORE POP PUSH1 0x20 ADD SWAP2 POP POP PUSH1 0x40 MLOAD DUP1 SWAP2 SUB SWAP1 REVERT JUMPDEST PUSH2 0x1204 DUP11 DUP11 DUP11 PUSH2 0x131F JUMP JUMPDEST POP POP POP POP POP POP POP POP POP POP JUMP JUMPDEST PUSH1 0x0 PUSH1 0x1 PUSH1 0x0 DUP5 PUSH20 0xFFFFFFFFFFFFFFFFFFFFFFFFFFFFFFFFFFFFFFFF AND PUSH20 0xFFFFFFFFFFFFFFFFFFFFFFFFFFFFFFFFFFFFFFFF AND DUP2 MSTORE PUSH1 0x20 ADD SWAP1 DUP2 MSTORE PUSH1 0x20 ADD PUSH1 0x0 KECCAK256 PUSH1 0x0 DUP4 PUSH20 0xFFFFFFFFFFFFFFFFFFFFFFFFFFFFFFFFFFFFFFFF AND PUSH20 0xFFFFFFFFFFFFFFFFFFFFFFFFFFFFFFFFFFFFFFFF AND DUP2 MSTORE PUSH1 0x20 ADD SWAP1 DUP2 MSTORE PUSH1 0x20 ADD PUSH1 0x0 KECCAK256 SLOAD SWAP1 POP SWAP3 SWAP2 POP POP JUMP JUMPDEST PUSH1 0x0 DUP1 DUP3 DUP5 ADD SWAP1 POP DUP4 DUP2 LT ISZERO PUSH2 0x1315 JUMPI PUSH1 0x40 MLOAD PUSH32 0x8C379A000000000000000000000000000000000000000000000000000000000 DUP2 MSTORE PUSH1 0x4 ADD DUP1 DUP1 PUSH1 0x20 ADD DUP3 DUP2 SUB DUP3 MSTORE PUSH1 0x1B DUP2 MSTORE PUSH1 0x20 ADD DUP1 PUSH32 0x536166654D6174683A206164646974696F6E206F766572666C6F770000000000 DUP2 MSTORE POP PUSH1 0x20 ADD SWAP2 POP POP PUSH1 0x40 MLOAD DUP1 SWAP2 SUB SWAP1 REVERT JUMPDEST DUP1 SWAP2 POP POP SWAP3 SWAP2 POP POP JUMP JUMPDEST PUSH1 0x0 PUSH20 0xFFFFFFFFFFFFFFFFFFFFFFFFFFFFFFFFFFFFFFFF AND DUP4 PUSH20 0xFFFFFFFFFFFFFFFFFFFFFFFFFFFFFFFFFFFFFFFF AND EQ ISZERO PUSH2 0x13A5 JUMPI PUSH1 0x40 MLOAD PUSH32 0x8C379A000000000000000000000000000000000000000000000000000000000 DUP2 MSTORE PUSH1 0x4 ADD DUP1 DUP1 PUSH1 0x20 ADD DUP3 DUP2 SUB DUP3 MSTORE PUSH1 0x24 DUP2 MSTORE PUSH1 0x20 ADD DUP1 PUSH2 0x23CA PUSH1 0x24 SWAP2 CODECOPY PUSH1 0x40 ADD SWAP2 POP POP PUSH1 0x40 MLOAD DUP1 SWAP2 SUB SWAP1 REVERT JUMPDEST PUSH1 0x0 PUSH20 0xFFFFFFFFFFFFFFFFFFFFFFFFFFFFFFFFFFFFFFFF AND DUP3 PUSH20 0xFFFFFFFFFFFFFFFFFFFFFFFFFFFFFFFFFFFFFFFF AND EQ ISZERO PUSH2 0x142B JUMPI PUSH1 0x40 MLOAD PUSH32 0x8C379A000000000000000000000000000000000000000000000000000000000 DUP2 MSTORE PUSH1 0x4 ADD DUP1 DUP1 PUSH1 0x20 ADD DUP3 DUP2 SUB DUP3 MSTORE PUSH1 0x22 DUP2 MSTORE PUSH1 0x20 ADD DUP1 PUSH2 0x22AC PUSH1 0x22 SWAP2 CODECOPY PUSH1 0x40 ADD SWAP2 POP POP PUSH1 0x40 MLOAD DUP1 SWAP2 SUB SWAP1 REVERT JUMPDEST DUP1 PUSH1 0x1 PUSH1 0x0 DUP6 PUSH20 0xFFFFFFFFFFFFFFFFFFFFFFFFFFFFFFFFFFFFFFFF AND PUSH20 0xFFFFFFFFFFFFFFFFFFFFFFFFFFFFFFFFFFFFFFFF AND DUP2 MSTORE PUSH1 0x20 ADD SWAP1 DUP2 MSTORE PUSH1 0x20 ADD PUSH1 0x0 KECCAK256 PUSH1 0x0 DUP5 PUSH20 0xFFFFFFFFFFFFFFFFFFFFFFFFFFFFFFFFFFFFFFFF AND PUSH20 0xFFFFFFFFFFFFFFFFFFFFFFFFFFFFFFFFFFFFFFFF AND DUP2 MSTORE PUSH1 0x20 ADD SWAP1 DUP2 MSTORE PUSH1 0x20 ADD PUSH1 0x0 KECCAK256 DUP2 SWAP1 SSTORE POP DUP2 PUSH20 0xFFFFFFFFFFFFFFFFFFFFFFFFFFFFFFFFFFFFFFFF AND DUP4 PUSH20 0xFFFFFFFFFFFFFFFFFFFFFFFFFFFFFFFFFFFFFFFF AND PUSH32 0x8C5BE1E5EBEC7D5BD14F71427D1E84F3DD0314C0F7B2291E5B200AC8C7C3B925 DUP4 PUSH1 0x40 MLOAD DUP1 DUP3 DUP2 MSTORE PUSH1 0x20 ADD SWAP2 POP POP PUSH1 0x40 MLOAD DUP1 SWAP2 SUB SWAP1 LOG3 POP POP POP JUMP JUMPDEST PUSH1 0x0 PUSH20 0xFFFFFFFFFFFFFFFFFFFFFFFFFFFFFFFFFFFFFFFF AND DUP4 PUSH20 0xFFFFFFFFFFFFFFFFFFFFFFFFFFFFFFFFFFFFFFFF AND EQ ISZERO PUSH2 0x159C JUMPI PUSH1 0x40 MLOAD PUSH32 0x8C379A000000000000000000000000000000000000000000000000000000000 DUP2 MSTORE PUSH1 0x4 ADD DUP1 DUP1 PUSH1 0x20 ADD DUP3 DUP2 SUB DUP3 MSTORE PUSH1 0x25 DUP2 MSTORE PUSH1 0x20 ADD DUP1 PUSH2 0x23A5 PUSH1 0x25 SWAP2 CODECOPY PUSH1 0x40 ADD SWAP2 POP POP PUSH1 0x40 MLOAD DUP1 SWAP2 SUB SWAP1 REVERT JUMPDEST PUSH1 0x0 PUSH20 0xFFFFFFFFFFFFFFFFFFFFFFFFFFFFFFFFFFFFFFFF AND DUP3 PUSH20 0xFFFFFFFFFFFFFFFFFFFFFFFFFFFFFFFFFFFFFFFF AND EQ ISZERO PUSH2 0x1622 JUMPI PUSH1 0x40 MLOAD PUSH32 0x8C379A000000000000000000000000000000000000000000000000000000000 DUP2 MSTORE PUSH1 0x4 ADD DUP1 DUP1 PUSH1 0x20 ADD DUP3 DUP2 SUB DUP3 MSTORE PUSH1 0x23 DUP2 MSTORE PUSH1 0x20 ADD DUP1 PUSH2 0x2267 PUSH1 0x23 SWAP2 CODECOPY PUSH1 0x40 ADD SWAP2 POP POP PUSH1 0x40 MLOAD DUP1 SWAP2 SUB SWAP1 REVERT JUMPDEST PUSH2 0x162D DUP4 DUP4 DUP4 PUSH2 0x1DF0 JUMP JUMPDEST PUSH2 0x1698 DUP2 PUSH1 0x40 MLOAD DUP1 PUSH1 0x60 ADD PUSH1 0x40 MSTORE DUP1 PUSH1 0x26 DUP2 MSTORE PUSH1 0x20 ADD PUSH2 0x22CE PUSH1 0x26 SWAP2 CODECOPY PUSH1 0x0 DUP1 DUP8 PUSH20 0xFFFFFFFFFFFFFFFFFFFFFFFFFFFFFFFFFFFFFFFF AND PUSH20 0xFFFFFFFFFFFFFFFFFFFFFFFFFFFFFFFFFFFFFFFF AND DUP2 MSTORE PUSH1 0x20 ADD SWAP1 DUP2 MSTORE PUSH1 0x20 ADD PUSH1 0x0 KECCAK256 SLOAD PUSH2 0x17D7 SWAP1 SWAP3 SWAP2 SWAP1 PUSH4 0xFFFFFFFF AND JUMP JUMPDEST PUSH1 0x0 DUP1 DUP6 PUSH20 0xFFFFFFFFFFFFFFFFFFFFFFFFFFFFFFFFFFFFFFFF AND PUSH20 0xFFFFFFFFFFFFFFFFFFFFFFFFFFFFFFFFFFFFFFFF AND DUP2 MSTORE PUSH1 0x20 ADD SWAP1 DUP2 MSTORE PUSH1 0x20 ADD PUSH1 0x0 KECCAK256 DUP2 SWAP1 SSTORE POP PUSH2 0x172B DUP2 PUSH1 0x0 DUP1 DUP6 PUSH20 0xFFFFFFFFFFFFFFFFFFFFFFFFFFFFFFFFFFFFFFFF AND PUSH20 0xFFFFFFFFFFFFFFFFFFFFFFFFFFFFFFFFFFFFFFFF AND DUP2 MSTORE PUSH1 0x20 ADD SWAP1 DUP2 MSTORE PUSH1 0x20 ADD PUSH1 0x0 KECCAK256 SLOAD PUSH2 0x1297 SWAP1 SWAP2 SWAP1 PUSH4 0xFFFFFFFF AND JUMP JUMPDEST PUSH1 0x0 DUP1 DUP5 PUSH20 0xFFFFFFFFFFFFFFFFFFFFFFFFFFFFFFFFFFFFFFFF AND PUSH20 0xFFFFFFFFFFFFFFFFFFFFFFFFFFFFFFFFFFFFFFFF AND DUP2 MSTORE PUSH1 0x20 ADD SWAP1 DUP2 MSTORE PUSH1 0x20 ADD PUSH1 0x0 KECCAK256 DUP2 SWAP1 SSTORE POP DUP2 PUSH20 0xFFFFFFFFFFFFFFFFFFFFFFFFFFFFFFFFFFFFFFFF AND DUP4 PUSH20 0xFFFFFFFFFFFFFFFFFFFFFFFFFFFFFFFFFFFFFFFF AND PUSH32 0xDDF252AD1BE2C89B69C2B068FC378DAA952BA7F163C4A11628F55A4DF523B3EF DUP4 PUSH1 0x40 MLOAD DUP1 DUP3 DUP2 MSTORE PUSH1 0x20 ADD SWAP2 POP POP PUSH1 0x40 MLOAD DUP1 SWAP2 SUB SWAP1 LOG3 POP POP POP JUMP JUMPDEST PUSH1 0x0 DUP4 DUP4 GT ISZERO DUP3 SWAP1 PUSH2 0x1884 JUMPI PUSH1 0x40 MLOAD PUSH32 0x8C379A000000000000000000000000000000000000000000000000000000000 DUP2 MSTORE PUSH1 0x4 ADD DUP1 DUP1 PUSH1 0x20 ADD DUP3 DUP2 SUB DUP3 MSTORE DUP4 DUP2 DUP2 MLOAD DUP2 MSTORE PUSH1 0x20 ADD SWAP2 POP DUP1 MLOAD SWAP1 PUSH1 0x20 ADD SWAP1 DUP1 DUP4 DUP4 PUSH1 0x0 JUMPDEST DUP4 DUP2 LT ISZERO PUSH2 0x1849 JUMPI DUP1 DUP3 ADD MLOAD DUP2 DUP5 ADD MSTORE PUSH1 0x20 DUP2 ADD SWAP1 POP PUSH2 0x182E JUMP JUMPDEST POP POP POP POP SWAP1 POP SWAP1 DUP2 ADD SWAP1 PUSH1 0x1F AND DUP1 ISZERO PUSH2 0x1876 JUMPI DUP1 DUP3 SUB DUP1 MLOAD PUSH1 0x1 DUP4 PUSH1 0x20 SUB PUSH2 0x100 EXP SUB NOT AND DUP2 MSTORE PUSH1 0x20 ADD SWAP2 POP JUMPDEST POP SWAP3 POP POP POP PUSH1 0x40 MLOAD DUP1 SWAP2 SUB SWAP1 REVERT JUMPDEST POP PUSH1 0x0 DUP4 DUP6 SUB SWAP1 POP DUP1 SWAP2 POP POP SWAP4 SWAP3 POP POP POP JUMP JUMPDEST PUSH1 0x0 DUP1 CHAINID SWAP1 POP PUSH32 0x0 DUP2 EQ ISZERO PUSH2 0x18EE JUMPI PUSH32 0x0 SWAP2 POP POP PUSH2 0x195D JUMP JUMPDEST PUSH2 0x1959 PUSH32 0x0 PUSH32 0x0 PUSH32 0x0 PUSH2 0x1DF5 JUMP JUMPDEST SWAP2 POP POP JUMPDEST SWAP1 JUMP JUMPDEST PUSH1 0x0 PUSH20 0xFFFFFFFFFFFFFFFFFFFFFFFFFFFFFFFFFFFFFFFF AND DUP3 PUSH20 0xFFFFFFFFFFFFFFFFFFFFFFFFFFFFFFFFFFFFFFFF AND EQ ISZERO PUSH2 0x1A03 JUMPI PUSH1 0x40 MLOAD PUSH32 0x8C379A000000000000000000000000000000000000000000000000000000000 DUP2 MSTORE PUSH1 0x4 ADD DUP1 DUP1 PUSH1 0x20 ADD DUP3 DUP2 SUB DUP3 MSTORE PUSH1 0x1F DUP2 MSTORE PUSH1 0x20 ADD DUP1 PUSH32 0x45524332303A206D696E7420746F20746865207A65726F206164647265737300 DUP2 MSTORE POP PUSH1 0x20 ADD SWAP2 POP POP PUSH1 0x40 MLOAD DUP1 SWAP2 SUB SWAP1 REVERT JUMPDEST PUSH2 0x1A0F PUSH1 0x0 DUP4 DUP4 PUSH2 0x1DF0 JUMP JUMPDEST PUSH2 0x1A24 DUP2 PUSH1 0x2 SLOAD PUSH2 0x1297 SWAP1 SWAP2 SWAP1 PUSH4 0xFFFFFFFF AND JUMP JUMPDEST PUSH1 0x2 DUP2 SWAP1 SSTORE POP PUSH2 0x1A7B DUP2 PUSH1 0x0 DUP1 DUP6 PUSH20 0xFFFFFFFFFFFFFFFFFFFFFFFFFFFFFFFFFFFFFFFF AND PUSH20 0xFFFFFFFFFFFFFFFFFFFFFFFFFFFFFFFFFFFFFFFF AND DUP2 MSTORE PUSH1 0x20 ADD SWAP1 DUP2 MSTORE PUSH1 0x20 ADD PUSH1 0x0 KECCAK256 SLOAD PUSH2 0x1297 SWAP1 SWAP2 SWAP1 PUSH4 0xFFFFFFFF AND JUMP JUMPDEST PUSH1 0x0 DUP1 DUP5 PUSH20 0xFFFFFFFFFFFFFFFFFFFFFFFFFFFFFFFFFFFFFFFF AND PUSH20 0xFFFFFFFFFFFFFFFFFFFFFFFFFFFFFFFFFFFFFFFF AND DUP2 MSTORE PUSH1 0x20 ADD SWAP1 DUP2 MSTORE PUSH1 0x20 ADD PUSH1 0x0 KECCAK256 DUP2 SWAP1 SSTORE POP DUP2 PUSH20 0xFFFFFFFFFFFFFFFFFFFFFFFFFFFFFFFFFFFFFFFF AND PUSH1 0x0 PUSH20 0xFFFFFFFFFFFFFFFFFFFFFFFFFFFFFFFFFFFFFFFF AND PUSH32 0xDDF252AD1BE2C89B69C2B068FC378DAA952BA7F163C4A11628F55A4DF523B3EF DUP4 PUSH1 0x40 MLOAD DUP1 DUP3 DUP2 MSTORE PUSH1 0x20 ADD SWAP2 POP POP PUSH1 0x40 MLOAD DUP1 SWAP2 SUB SWAP1 LOG3 POP POP JUMP JUMPDEST PUSH1 0x0 PUSH20 0xFFFFFFFFFFFFFFFFFFFFFFFFFFFFFFFFFFFFFFFF AND DUP3 PUSH20 0xFFFFFFFFFFFFFFFFFFFFFFFFFFFFFFFFFFFFFFFF AND EQ ISZERO PUSH2 0x1BAD JUMPI PUSH1 0x40 MLOAD PUSH32 0x8C379A000000000000000000000000000000000000000000000000000000000 DUP2 MSTORE PUSH1 0x4 ADD DUP1 DUP1 PUSH1 0x20 ADD DUP3 DUP2 SUB DUP3 MSTORE PUSH1 0x21 DUP2 MSTORE PUSH1 0x20 ADD DUP1 PUSH2 0x2384 PUSH1 0x21 SWAP2 CODECOPY PUSH1 0x40 ADD SWAP2 POP POP PUSH1 0x40 MLOAD DUP1 SWAP2 SUB SWAP1 REVERT JUMPDEST PUSH2 0x1BB9 DUP3 PUSH1 0x0 DUP4 PUSH2 0x1DF0 JUMP JUMPDEST PUSH2 0x1C24 DUP2 PUSH1 0x40 MLOAD DUP1 PUSH1 0x60 ADD PUSH1 0x40 MSTORE DUP1 PUSH1 0x22 DUP2 MSTORE PUSH1 0x20 ADD PUSH2 0x228A PUSH1 0x22 SWAP2 CODECOPY PUSH1 0x0 DUP1 DUP7 PUSH20 0xFFFFFFFFFFFFFFFFFFFFFFFFFFFFFFFFFFFFFFFF AND PUSH20 0xFFFFFFFFFFFFFFFFFFFFFFFFFFFFFFFFFFFFFFFF AND DUP2 MSTORE PUSH1 0x20 ADD SWAP1 DUP2 MSTORE PUSH1 0x20 ADD PUSH1 0x0 KECCAK256 SLOAD PUSH2 0x17D7 SWAP1 SWAP3 SWAP2 SWAP1 PUSH4 0xFFFFFFFF AND JUMP JUMPDEST PUSH1 0x0 DUP1 DUP5 PUSH20 0xFFFFFFFFFFFFFFFFFFFFFFFFFFFFFFFFFFFFFFFF AND PUSH20 0xFFFFFFFFFFFFFFFFFFFFFFFFFFFFFFFFFFFFFFFF AND DUP2 MSTORE PUSH1 0x20 ADD SWAP1 DUP2 MSTORE PUSH1 0x20 ADD PUSH1 0x0 KECCAK256 DUP2 SWAP1 SSTORE POP PUSH2 0x1C7B DUP2 PUSH1 0x2 SLOAD PUSH2 0x1E62 SWAP1 SWAP2 SWAP1 PUSH4 0xFFFFFFFF AND JUMP JUMPDEST PUSH1 0x2 DUP2 SWAP1 SSTORE POP PUSH1 0x0 PUSH20 0xFFFFFFFFFFFFFFFFFFFFFFFFFFFFFFFFFFFFFFFF AND DUP3 PUSH20 0xFFFFFFFFFFFFFFFFFFFFFFFFFFFFFFFFFFFFFFFF AND PUSH32 0xDDF252AD1BE2C89B69C2B068FC378DAA952BA7F163C4A11628F55A4DF523B3EF DUP4 PUSH1 0x40 MLOAD DUP1 DUP3 DUP2 MSTORE PUSH1 0x20 ADD SWAP2 POP POP PUSH1 0x40 MLOAD DUP1 SWAP2 SUB SWAP1 LOG3 POP POP JUMP JUMPDEST PUSH1 0x0 PUSH2 0x1D23 DUP3 PUSH1 0x40 MLOAD DUP1 PUSH1 0x60 ADD PUSH1 0x40 MSTORE DUP1 PUSH1 0x24 DUP2 MSTORE PUSH1 0x20 ADD PUSH2 0x2360 PUSH1 0x24 SWAP2 CODECOPY PUSH2 0x1D14 DUP7 CALLER PUSH2 0x1210 JUMP JUMPDEST PUSH2 0x17D7 SWAP1 SWAP3 SWAP2 SWAP1 PUSH4 0xFFFFFFFF AND JUMP JUMPDEST SWAP1 POP PUSH2 0x1D30 DUP4 CALLER DUP4 PUSH2 0x131F JUMP JUMPDEST PUSH2 0x1D3A DUP4 DUP4 PUSH2 0x1B27 JUMP JUMPDEST POP POP POP JUMP JUMPDEST PUSH1 0x0 DUP2 PUSH1 0x0 ADD SLOAD SWAP1 POP SWAP2 SWAP1 POP JUMP JUMPDEST PUSH1 0x0 DUP1 PUSH1 0x5 PUSH1 0x0 DUP5 PUSH20 0xFFFFFFFFFFFFFFFFFFFFFFFFFFFFFFFFFFFFFFFF AND PUSH20 0xFFFFFFFFFFFFFFFFFFFFFFFFFFFFFFFFFFFFFFFF AND DUP2 MSTORE PUSH1 0x20 ADD SWAP1 DUP2 MSTORE PUSH1 0x20 ADD PUSH1 0x0 KECCAK256 SWAP1 POP PUSH2 0x1D9A DUP2 PUSH2 0x1D3F JUMP JUMPDEST SWAP2 POP PUSH2 0x1DA5 DUP2 PUSH2 0x1EAC JUMP JUMPDEST POP SWAP2 SWAP1 POP JUMP JUMPDEST PUSH1 0x0 PUSH2 0x1DBE PUSH2 0x1DB8 PUSH2 0x1897 JUMP JUMPDEST DUP4 PUSH2 0x1EC2 JUMP JUMPDEST SWAP1 POP SWAP2 SWAP1 POP JUMP JUMPDEST PUSH1 0x0 DUP1 PUSH1 0x0 PUSH2 0x1DD6 DUP8 DUP8 DUP8 DUP8 PUSH2 0x1F23 JUMP JUMPDEST SWAP2 POP SWAP2 POP PUSH2 0x1DE3 DUP2 PUSH2 0x2045 JUMP JUMPDEST DUP2 SWAP3 POP POP POP SWAP5 SWAP4 POP POP POP POP JUMP JUMPDEST POP POP POP JUMP JUMPDEST PUSH1 0x0 DUP1 CHAINID SWAP1 POP DUP5 DUP5 DUP5 DUP4 ADDRESS PUSH1 0x40 MLOAD PUSH1 0x20 ADD DUP1 DUP7 DUP2 MSTORE PUSH1 0x20 ADD DUP6 DUP2 MSTORE PUSH1 0x20 ADD DUP5 DUP2 MSTORE PUSH1 0x20 ADD DUP4 DUP2 MSTORE PUSH1 0x20 ADD DUP3 PUSH20 0xFFFFFFFFFFFFFFFFFFFFFFFFFFFFFFFFFFFFFFFF AND DUP2 MSTORE PUSH1 0x20 ADD SWAP6 POP POP POP POP POP POP PUSH1 0x40 MLOAD PUSH1 0x20 DUP2 DUP4 SUB SUB DUP2 MSTORE SWAP1 PUSH1 0x40 MSTORE DUP1 MLOAD SWAP1 PUSH1 0x20 ADD KECCAK256 SWAP2 POP POP SWAP4 SWAP3 POP POP POP JUMP JUMPDEST PUSH1 0x0 PUSH2 0x1EA4 DUP4 DUP4 PUSH1 0x40 MLOAD DUP1 PUSH1 0x40 ADD PUSH1 0x40 MSTORE DUP1 PUSH1 0x1E DUP2 MSTORE PUSH1 0x20 ADD PUSH32 0x536166654D6174683A207375627472616374696F6E206F766572666C6F770000 DUP2 MSTORE POP PUSH2 0x17D7 JUMP JUMPDEST SWAP1 POP SWAP3 SWAP2 POP POP JUMP JUMPDEST PUSH1 0x1 DUP2 PUSH1 0x0 ADD PUSH1 0x0 DUP3 DUP3 SLOAD ADD SWAP3 POP POP DUP2 SWAP1 SSTORE POP POP JUMP JUMPDEST PUSH1 0x0 DUP3 DUP3 PUSH1 0x40 MLOAD PUSH1 0x20 ADD DUP1 DUP1 PUSH32 0x1901000000000000000000000000000000000000000000000000000000000000 DUP2 MSTORE POP PUSH1 0x2 ADD DUP4 DUP2 MSTORE PUSH1 0x20 ADD DUP3 DUP2 MSTORE PUSH1 0x20 ADD SWAP3 POP POP POP PUSH1 0x40 MLOAD PUSH1 0x20 DUP2 DUP4 SUB SUB DUP2 MSTORE SWAP1 PUSH1 0x40 MSTORE DUP1 MLOAD SWAP1 PUSH1 0x20 ADD KECCAK256 SWAP1 POP SWAP3 SWAP2 POP POP JUMP JUMPDEST PUSH1 0x0 DUP1 PUSH32 0x7FFFFFFFFFFFFFFFFFFFFFFFFFFFFFFF5D576E7357A4501DDFE92F46681B20A0 DUP4 PUSH1 0x0 SHR GT ISZERO PUSH2 0x1F5E JUMPI PUSH1 0x0 PUSH1 0x3 SWAP2 POP SWAP2 POP PUSH2 0x203C JUMP JUMPDEST PUSH1 0x1B DUP6 PUSH1 0xFF AND EQ ISZERO DUP1 ISZERO PUSH2 0x1F76 JUMPI POP PUSH1 0x1C DUP6 PUSH1 0xFF AND EQ ISZERO JUMPDEST ISZERO PUSH2 0x1F88 JUMPI PUSH1 0x0 PUSH1 0x4 SWAP2 POP SWAP2 POP PUSH2 0x203C JUMP JUMPDEST PUSH1 0x0 PUSH1 0x1 DUP8 DUP8 DUP8 DUP8 PUSH1 0x40 MLOAD PUSH1 0x0 DUP2 MSTORE PUSH1 0x20 ADD PUSH1 0x40 MSTORE PUSH1 0x40 MLOAD DUP1 DUP6 DUP2 MSTORE PUSH1 0x20 ADD DUP5 PUSH1 0xFF AND DUP2 MSTORE PUSH1 0x20 ADD DUP4 DUP2 MSTORE PUSH1 0x20 ADD DUP3 DUP2 MSTORE PUSH1 0x20 ADD SWAP5 POP POP POP POP POP PUSH1 0x20 PUSH1 0x40 MLOAD PUSH1 0x20 DUP2 SUB SWAP1 DUP1 DUP5 SUB SWAP1 DUP6 GAS STATICCALL ISZERO DUP1 ISZERO PUSH2 0x1FE4 JUMPI RETURNDATASIZE PUSH1 0x0 DUP1 RETURNDATACOPY RETURNDATASIZE PUSH1 0x0 REVERT JUMPDEST POP POP POP PUSH1 0x20 PUSH1 0x40 MLOAD SUB MLOAD SWAP1 POP PUSH1 0x0 PUSH20 0xFFFFFFFFFFFFFFFFFFFFFFFFFFFFFFFFFFFFFFFF AND DUP2 PUSH20 0xFFFFFFFFFFFFFFFFFFFFFFFFFFFFFFFFFFFFFFFF AND EQ ISZERO PUSH2 0x2033 JUMPI PUSH1 0x0 PUSH1 0x1 SWAP3 POP SWAP3 POP POP PUSH2 0x203C JUMP JUMPDEST DUP1 PUSH1 0x0 SWAP3 POP SWAP3 POP POP JUMPDEST SWAP5 POP SWAP5 SWAP3 POP POP POP JUMP JUMPDEST PUSH1 0x0 PUSH1 0x4 DUP2 GT ISZERO PUSH2 0x2052 JUMPI INVALID JUMPDEST DUP2 PUSH1 0x4 DUP2 GT ISZERO PUSH2 0x205E JUMPI INVALID JUMPDEST EQ ISZERO PUSH2 0x2069 JUMPI PUSH2 0x2263 JUMP JUMPDEST PUSH1 0x1 PUSH1 0x4 DUP2 GT ISZERO PUSH2 0x2076 JUMPI INVALID JUMPDEST DUP2 PUSH1 0x4 DUP2 GT ISZERO PUSH2 0x2082 JUMPI INVALID JUMPDEST EQ ISZERO PUSH2 0x20F6 JUMPI PUSH1 0x40 MLOAD PUSH32 0x8C379A000000000000000000000000000000000000000000000000000000000 DUP2 MSTORE PUSH1 0x4 ADD DUP1 DUP1 PUSH1 0x20 ADD DUP3 DUP2 SUB DUP3 MSTORE PUSH1 0x18 DUP2 MSTORE PUSH1 0x20 ADD DUP1 PUSH32 0x45434453413A20696E76616C6964207369676E61747572650000000000000000 DUP2 MSTORE POP PUSH1 0x20 ADD SWAP2 POP POP PUSH1 0x40 MLOAD DUP1 SWAP2 SUB SWAP1 REVERT JUMPDEST PUSH1 0x2 PUSH1 0x4 DUP2 GT ISZERO PUSH2 0x2103 JUMPI INVALID JUMPDEST DUP2 PUSH1 0x4 DUP2 GT ISZERO PUSH2 0x210F JUMPI INVALID JUMPDEST EQ ISZERO PUSH2 0x2183 JUMPI PUSH1 0x40 MLOAD PUSH32 0x8C379A000000000000000000000000000000000000000000000000000000000 DUP2 MSTORE PUSH1 0x4 ADD DUP1 DUP1 PUSH1 0x20 ADD DUP3 DUP2 SUB DUP3 MSTORE PUSH1 0x1F DUP2 MSTORE PUSH1 0x20 ADD DUP1 PUSH32 0x45434453413A20696E76616C6964207369676E6174757265206C656E67746800 DUP2 MSTORE POP PUSH1 0x20 ADD SWAP2 POP POP PUSH1 0x40 MLOAD DUP1 SWAP2 SUB SWAP1 REVERT JUMPDEST PUSH1 0x3 PUSH1 0x4 DUP2 GT ISZERO PUSH2 0x2190 JUMPI INVALID JUMPDEST DUP2 PUSH1 0x4 DUP2 GT ISZERO PUSH2 0x219C JUMPI INVALID JUMPDEST EQ ISZERO PUSH2 0x21F3 JUMPI PUSH1 0x40 MLOAD PUSH32 0x8C379A000000000000000000000000000000000000000000000000000000000 DUP2 MSTORE PUSH1 0x4 ADD DUP1 DUP1 PUSH1 0x20 ADD DUP3 DUP2 SUB DUP3 MSTORE PUSH1 0x22 DUP2 MSTORE PUSH1 0x20 ADD DUP1 PUSH2 0x22F4 PUSH1 0x22 SWAP2 CODECOPY PUSH1 0x40 ADD SWAP2 POP POP PUSH1 0x40 MLOAD DUP1 SWAP2 SUB SWAP1 REVERT JUMPDEST PUSH1 0x4 DUP1 DUP2 GT ISZERO PUSH2 0x21FF JUMPI INVALID JUMPDEST DUP2 PUSH1 0x4 DUP2 GT ISZERO PUSH2 0x220B JUMPI INVALID JUMPDEST EQ ISZERO PUSH2 0x2262 JUMPI PUSH1 0x40 MLOAD PUSH32 0x8C379A000000000000000000000000000000000000000000000000000000000 DUP2 MSTORE PUSH1 0x4 ADD DUP1 DUP1 PUSH1 0x20 ADD DUP3 DUP2 SUB DUP3 MSTORE PUSH1 0x22 DUP2 MSTORE PUSH1 0x20 ADD DUP1 PUSH2 0x2316 PUSH1 0x22 SWAP2 CODECOPY PUSH1 0x40 ADD SWAP2 POP POP PUSH1 0x40 MLOAD DUP1 SWAP2 SUB SWAP1 REVERT JUMPDEST JUMPDEST POP JUMP INVALID GASLIMIT MSTORE NUMBER ORIGIN ADDRESS GASPRICE KECCAK256 PUSH21 0x72616E7366657220746F20746865207A65726F2061 PUSH5 0x6472657373 GASLIMIT MSTORE NUMBER ORIGIN ADDRESS GASPRICE KECCAK256 PUSH3 0x75726E KECCAK256 PUSH2 0x6D6F PUSH22 0x6E7420657863656564732062616C616E636545524332 ADDRESS GASPRICE KECCAK256 PUSH2 0x7070 PUSH19 0x6F766520746F20746865207A65726F20616464 PUSH19 0x65737345524332303A207472616E7366657220 PUSH2 0x6D6F PUSH22 0x6E7420657863656564732062616C616E636545434453 COINBASE GASPRICE KECCAK256 PUSH10 0x6E76616C696420736967 PUSH15 0x6174757265202773272076616C7565 GASLIMIT NUMBER DIFFICULTY MSTORE8 COINBASE GASPRICE KECCAK256 PUSH10 0x6E76616C696420736967 PUSH15 0x6174757265202776272076616C7565 GASLIMIT MSTORE NUMBER ORIGIN ADDRESS GASPRICE KECCAK256 PUSH21 0x72616E7366657220616D6F756E7420657863656564 PUSH20 0x20616C6C6F77616E636545524332303A20627572 PUSH15 0x20616D6F756E742065786365656473 KECCAK256 PUSH2 0x6C6C PUSH16 0x77616E636545524332303A206275726E KECCAK256 PUSH7 0x726F6D20746865 KECCAK256 PUSH27 0x65726F206164647265737345524332303A207472616E7366657220 PUSH7 0x726F6D20746865 KECCAK256 PUSH27 0x65726F206164647265737345524332303A20617070726F76652066 PUSH19 0x6F6D20746865207A65726F2061646472657373 GASLIMIT MSTORE NUMBER ORIGIN ADDRESS GASPRICE KECCAK256 PUSH5 0x6563726561 PUSH20 0x656420616C6C6F77616E63652062656C6F77207A PUSH6 0x726FA2646970 PUSH7 0x73582212208CB6 0xE5 0xCA 0xB6 0xBA DELEGATECALL PUSH11 0x345AFD455B4770FB09DB81 0x4A 0x2A 0xDD PUSH15 0x4A30AE1041E4CC70164736F6C6343 STOP SMOD SDIV STOP CALLER "
				},
				"gasEstimates": {
					"creation": {
						"codeDepositCost": "1857600",
						"executionCost": "infinite",
						"totalCost": "infinite"
					},
					"external": {
						"DOMAIN_SEPARATOR()": "infinite",
						"allowance(address,address)": "1431",
						"approve(address,uint256)": "infinite",
						"authority()": "1113",
						"balanceOf(address)": "1219",
						"burn(uint256)": "infinite",
						"burnFrom(address,uint256)": "infinite",
						"decimals()": "infinite",
						"decreaseAllowance(address,uint256)": "infinite",
						"increaseAllowance(address,uint256)": "infinite",
						"mint(address,uint256)": "infinite",
						"name()": "infinite",
						"nonces(address)": "1334",
						"permit(address,address,uint256,uint256,uint8,bytes32,bytes32)": "infinite",
						"setAuthority(address)": "infinite",
						"symbol()": "infinite",
						"totalSupply()": "1081",
						"transfer(address,uint256)": "infinite",
						"transferFrom(address,address,uint256)": "infinite"
					},
					"internal": {
						"_burnFrom(address,uint256)": "infinite"
					}
				},
				"methodIdentifiers": {
					"DOMAIN_SEPARATOR()": "3644e515",
					"allowance(address,address)": "dd62ed3e",
					"approve(address,uint256)": "095ea7b3",
					"authority()": "bf7e214f",
					"balanceOf(address)": "70a08231",
					"burn(uint256)": "42966c68",
					"burnFrom(address,uint256)": "79cc6790",
					"decimals()": "313ce567",
					"decreaseAllowance(address,uint256)": "a457c2d7",
					"increaseAllowance(address,uint256)": "39509351",
					"mint(address,uint256)": "40c10f19",
					"name()": "06fdde03",
					"nonces(address)": "7ecebe00",
					"permit(address,address,uint256,uint256,uint8,bytes32,bytes32)": "d505accf",
					"setAuthority(address)": "7a9e5e4b",
					"symbol()": "95d89b41",
					"totalSupply()": "18160ddd",
					"transfer(address,uint256)": "a9059cbb",
					"transferFrom(address,address,uint256)": "23b872dd"
				}
			},
			"storageLayout": {
				"storage": [
					{
						"astId": 1092,
						"contract": "Tokenrenacecoin/tokenrenacecoin.sol:RENACECOIN",
						"label": "_balances",
						"offset": 0,
						"slot": "0",
						"type": "t_mapping(t_address,t_uint256)"
					},
					{
						"astId": 1098,
						"contract": "Tokenrenacecoin/tokenrenacecoin.sol:RENACECOIN",
						"label": "_allowances",
						"offset": 0,
						"slot": "1",
						"type": "t_mapping(t_address,t_mapping(t_address,t_uint256))"
					},
					{
						"astId": 1100,
						"contract": "Tokenrenacecoin/tokenrenacecoin.sol:RENACECOIN",
						"label": "_totalSupply",
						"offset": 0,
						"slot": "2",
						"type": "t_uint256"
					},
					{
						"astId": 1102,
						"contract": "Tokenrenacecoin/tokenrenacecoin.sol:RENACECOIN",
						"label": "_name",
						"offset": 0,
						"slot": "3",
						"type": "t_string_storage"
					},
					{
						"astId": 1104,
						"contract": "Tokenrenacecoin/tokenrenacecoin.sol:RENACECOIN",
						"label": "_symbol",
						"offset": 0,
						"slot": "4",
						"type": "t_string_storage"
					},
					{
						"astId": 1567,
						"contract": "Tokenrenacecoin/tokenrenacecoin.sol:RENACECOIN",
						"label": "_nonces",
						"offset": 0,
						"slot": "5",
						"type": "t_mapping(t_address,t_struct(Counter)1037_storage)"
					},
					{
						"astId": 86,
						"contract": "Tokenrenacecoin/tokenrenacecoin.sol:RENACECOIN",
						"label": "UNAUTHORIZED",
						"offset": 0,
						"slot": "6",
						"type": "t_string_storage"
					},
					{
						"astId": 88,
						"contract": "Tokenrenacecoin/tokenrenacecoin.sol:RENACECOIN",
						"label": "authority",
						"offset": 0,
						"slot": "7",
						"type": "t_contract(IOlympusAuthority)78"
					}
				],
				"types": {
					"t_address": {
						"encoding": "inplace",
						"label": "address",
						"numberOfBytes": "20"
					},
					"t_contract(IOlympusAuthority)78": {
						"encoding": "inplace",
						"label": "contract IOlympusAuthority",
						"numberOfBytes": "20"
					},
					"t_mapping(t_address,t_mapping(t_address,t_uint256))": {
						"encoding": "mapping",
						"key": "t_address",
						"label": "mapping(address => mapping(address => uint256))",
						"numberOfBytes": "32",
						"value": "t_mapping(t_address,t_uint256)"
					},
					"t_mapping(t_address,t_struct(Counter)1037_storage)": {
						"encoding": "mapping",
						"key": "t_address",
						"label": "mapping(address => struct Counters.Counter)",
						"numberOfBytes": "32",
						"value": "t_struct(Counter)1037_storage"
					},
					"t_mapping(t_address,t_uint256)": {
						"encoding": "mapping",
						"key": "t_address",
						"label": "mapping(address => uint256)",
						"numberOfBytes": "32",
						"value": "t_uint256"
					},
					"t_string_storage": {
						"encoding": "bytes",
						"label": "string",
						"numberOfBytes": "32"
					},
					"t_struct(Counter)1037_storage": {
						"encoding": "inplace",
						"label": "struct Counters.Counter",
						"members": [
							{
								"astId": 1036,
								"contract": "Tokenrenacecoin/tokenrenacecoin.sol:RENACECOIN",
								"label": "_value",
								"offset": 0,
								"slot": "0",
								"type": "t_uint256"
							}
						],
						"numberOfBytes": "32"
					},
					"t_uint256": {
						"encoding": "inplace",
						"label": "uint256",
						"numberOfBytes": "32"
					}
				}
			},
			"userdoc": {
				"kind": "user",
				"methods": {},
				"version": 1
			}
		}
	}
}